:100000000C9478090C94C1090C94C1090C94C10991
:100010000C94C1090C94C1090C94C1090C94C10938
:100020000C94C1090C94C1090C94A9240C9480254A
:100030000C94B41B0C94C1090C94C1090C94C10913
:100040000C94C1090C94C1090C94C1090C94C10908
:100050000C94C1090C94151C0C94C1090C94C10991
:100060000C94C1090C94C1090C94C1090C94C109E8
:100070000C94C1090C94C1090C94C1090C94C109D8
:100080000C94C1090C94C1090C94C1090C94C109C8
:100090000C94C1090C94C10901E002E001E202E202
:1000A000014D024D0029001E001F002000210022EA
:1000B000000000000000000000000000000000231D
:1000C0000024002500260027002A002B0014001A17
:1000D00000080015001700000000000000000000EC
:1000E00000000000001C0018000C00120013004C5F
:1000F00000390004001600070009000A0000000093
:1001000000000000000000000000000B000D000EC9
:10011000000F0033003400E1001D001B0006001931
:1001200000050000000000000000000000000000CA
:1001300000110010003600370038000151E000E3E4
:1001400000E200003000000000000000000000009D
:1001500000000000000000000000005000520051AC
:10016000004F00000000000000000000002C004ACA
:100170000000000000000000002E00280000000029
:10018000000000000000000000000000000000006F
:1001900000000000004D0000000000000000000012
:1001A000002D000000000000000000000000003AE8
:1001B000003B003C003D003E003F0000000000000E
:1001C0000000000000000000004000410042004329
:1001D0000044004500010035003502010001000126
:1001E000000000000000000000000000000000010E
:1001F00000010001002F003000010001000100019A
:1002000000010001000100000000000000000000EB
:1002100000000000000100010001002F0230020177
:1002200000010001000100010001000100000000C8
:1002300000000000000000000000000100010001BB
:100240000031023100010001000100010001000045
:10025000000000000000000000000000000000009E
:10026000000000000001000100010001000000008A
:100270000000000000000001004B00000000000032
:10028000000000010001000000000000000000006C
:100290000000000000000000000000000000004E10
:1002A000000000000000000000000001000000004D
:1002B000000000000000000000010001000100013A
:1002C000000100010000000000000000000000002C
:1002D0000000000100010001000100010001000117
:1002E0000001000100010001000100000000000009
:1002F00000000000000000000001000100010001FA
:1003000000010001000100010001000100010001E5
:1003100000000000000000000000000000000001DC
:1003200000010001000100010001000100010001C5
:1003300000010001000100000000000000000000BA
:1003400000000000000100010001000100010001A7
:100350000001000100010001000000000000000099
:10036000000000000000000000000000000000018C
:10037000000100010001000000000000000000007A
:100380000001000100000000000000000001000169
:10039000000000000000000000000000000000005D
:1003A000000000000000000000010000000000004C
:1003B000000000000001000000000000000000003C
:1003C0000000000100010001000100010001000027
:1003D000000000000000000000000000000100011B
:1003E0000001000100010001000100010001000105
:1003F00000010001000000000000000000000000FB
:1004000000000001000100010001000100010001E5
:1004100000010001000100010001000000000000D7
:1004200000000000000000000001000100010001C8
:1004300000010001000100010001000100010001B4
:1004400000000000000000000000000000000001AB
:100450000001000100010001000100010001000194
:10046000000100000000000000000000000000008B
:100470000000000000000000000100010001000178
:10048000000000000000000000000001000100006A
:10049000000000000000000100010000000000005A
:1004A000000000000000000000000000000000004C
:1004B000000000010000000000000000000000013A
:1004C000000000000000000000000000000100012A
:1004D0000001000100010001000000000000000018
:1004E0000000000000000001000100010001000107
:1004F00000010001000100010001000100010000F5
:1005000000000000000000000000000000010001E9
:1005100000010001000100010001000100010001D3
:1005200000010001000000000000000000000000C9
:1005300000000001000100010001000100010001B4
:1005400000010001000100010001000000000000A6
:100550000000000000000000000100010001000197
:100560000001000100010001000100010000000085
:10057000000000000000000000000000000000007B
:100580000000000100010001000100000000000067
:100590000000000000010001000000000000000059
:1005A0000001000100000000000000000000000049
:1005B000000000000000000000000000000100003A
:1005C000000000000000000000010000000000002A
:1005D0000000000000000001000100010001000116
:1005E000000100000000000000000000000000000A
:1005F00000010001000100010001000100010001F3
:1006000000010001000100010000000000000000E6
:1006100000000000000000010001000100010001D5
:1006200000010001000100010001000100010000C3
:1006300000000000000000000000000000010001B8
:1006400000010001000100010001000100010001A2
:100650000001000100000000000000000000000098
:100660000000000100010001000100010001000183
:100670000001000100010000000000000000000077
:100680000000000000000000000000000001000168
:100690000001000100000000000000000000000157
:1006A0000001000000000000000000010001000047
:1006B000000000000000000000000000000000003A
:1006C0000000000000000001000000000000000029
:1006D0000000000100000000000000000000000019
:1006E0000001000100010001000100010000000004
:1006F00000000000000000000000000100010001F7
:1007000000010001000100010001000100010001E1
:1007100000010000000000000000000000000000D8
:1007200000010001000100010001000100010001C1
:1007300000010001000100010000000000000000B5
:1007400000000000000000010001000100010001A4
:100750000001000100010001000100010001000092
:100760000000000000000000000000000001000187
:100770000001000100010001000100010001000171
:100780000000000000000000000000000000000069
:100790000000000000000001000100010001000055
:1007A0000000000000000000000100010000000047
:1007B0000000000000010001000000000000000037
:1007C0000000000000000000000000000000000029
:1007D0000001000000000000000000000001000017
:1007E0000000000000000000000000010001000106
:1007F00000010001000100000000000000000000F6
:1008000000000000000100010001000100010001E2
:1008100000010001000100010001000100000000D2
:1008200000000000000000000000000100010001C5
:1008300000010001000100010001000100010001B0
:1008400000010000000000000000000000000000A7
:100850000001000100010001000100010001000190
:100860000001000100010001000000000000000084
:100870000000000000000001000100010001000173
:100880000001000100010001000100000000000063
:100890000000000000000000000000000000000058
:1008A0000001000100010001000000000000000044
:1008B0000000000100010000000000000000000135
:1008C0000001000000000000000000000000000027
:1008D0000000000000000000000000010000000017
:1008E0000000000000000001000000000000000007
:1008F00000000000000100010001000100010001F2
:1009000000000000000000000000000000000001E6
:1009100000010001000100010001000100010001CF
:1009200000010001000100000000000000000000C4
:1009300000000000000100010001000100010001B1
:1009400000010001000100010001000100000000A1
:100950000000000000000000000000010001000194
:10096000000100010001000100010001000100017F
:100970000001000000000000000000000000000076
:10098000000100010001000100010001000100015F
:100990000001000100000000000000000000000055
:1009A0000000000000000000000000010001000144
:1009B0000001000000000000000000000001000134
:1009C0000000000000000000000100010000000025
:1009D0000000000000000000000000000000000017
:1009E0000000000000010000000000000000000006
:1009F00000010000000000000000000000000001F5
:100A000000010001000100010001000000000000E1
:100A100000000000000000000001000100010001D2
:100A200000010001000100010001000100010001BE
:100A300000000000000000000000000000000001B5
:100A4000000100010001000100010001000100019E
:100A50000001000100010000000000000000000093
:100A60000000000000010001000100010001000180
:100A70000001000100010001000100010000000070
:100A80000000000000000000000000010001000163
:100A9000000100010001000100010001000100004F
:100AA0000000000000000000000000000000000046
:100AB0000000000000010001000100010000000032
:100AC0000000000000000001000100000000000024
:100AD0000000000100010000000000000000000014
:100AE0000000000000000000000000000000000105
:100AF00000000000000000000000000100000000F5
:100B000000000000000000000001000100010001E1
:100B100000010001000000000000000000000000D3
:100B200000000001000100010001000100010001BE
:100B300000010001000100010001000000000000B0
:100B400000000000000000000001000100010001A1
:100B5000000100010001000100010001000100018D
:100B60000000000000000000000000000000000184
:100B7000000100010001000100010001000100016D
:100B80000001000100010000000000000000000062
:100B9000000000000001000100010001000100014F
:100BA0000001000100010001000000000000000041
:100BB0000000000000000000000000000000000134
:100BC0000001000100010000000000000000000022
:100BD0000001000100000000000000000001000111
:100BE0000000000000000000000000000000000005
:100BF00000000000000000000001000000000000F4
:100C000000000000000100000000000000000000E3
:100C100000000001000100010001000100010000CE
:100C200000000000000000000000000000010001C2
:100C300000010001000100010001000100010001AC
:100C400000010001000000000000000000000000A2
:100C5000000000010001000100010001000100018D
:100C6000000100010001000100010000000000007F
:100C70000000000000000000000100010001000170
:100C8000000100010001000100010001000100015C
:100C90000000000000000000000000000000000153
:100CA000000100010001000100010001000100013C
:100CB0000001000000000000000000000000000033
:100CC0000000000000000000000100010001000120
:100CD0000000000000000000000000010001000012
:100CE0000000000000000001000100000000000002
:100CF00000000000000000000000000000000000F4
:100D000000000001000000000000000000000001E1
:100D100000000000000000000000000000010001D1
:100D200000010001000100010000000000000000BF
:100D300000000000000000010001000100010001AE
:100D4000000100010001000100010001000100009C
:100D50000000000000000000000000000001000191
:100D6000000100010001000100010001000100017B
:100D70000001000100000000000000000000000071
:100D8000000000010001000100010001000100015C
:100D9000000100010001000100010000000000004E
:100DA000000000000000000000010001000100013F
:100DB000000100010001000100010001000000002D
:100DC0000000000000000000000000000000000023
:100DD000000000010001000100010000000000000F
:100DE0000000000000010001000000000000000001
:100DF00000010001000000000000000000000000F1
:100E000000000000000000000000000000010000E1
:100E100000000000000000000001000000000000D1
:100E200000000000000000010001000100010001BD
:100E300000010000000000000000000000000000B1
:100E4000000100010001000100010001000100019A
:100E5000000100010001000100000000000000008E
:100E6000000000000000000100010001000100017D
:100E7000000100010001000100010001000100006B
:100E80000000000000000000000000000001000160
:100E9000000100010001000100010001000100014A
:100EA0000001000100000000000000000000000040
:100EB000000000010001000100010001000100012B
:100EC000000100010001000000000000000000001F
:100ED0000000000000000000000000000001000110
:100EE00000010001000000000000000000000001FF
:100EF00000010000000000000000000100010000EF
:100F000000000000000000000000000000000000E1
:100F100000000000000000010000000000000000D0
:100F200000000001000000000000000000000000C0
:100F300000010001000100010001000100000000AB
:100F4000000000000000000000000001000100019E
:100F50000001000100010001000100010001000189
:100F60000001000000000000000000000000000080
:100F70000001000100010001000100010001000169
:100F8000000100010001000100000000000000005D
:100F9000000000000000000100010001000100014C
:100FA000000100010001000100010001000100003A
:100FB000000000000000000000000000000100012F
:100FC0000001000100010001000100010001000119
:100FD0000000000000000000000000000000000011
:100FE00000000000000000010001000100010000FD
:100FF00000000000000000000001000100000000EF
:1010000000000000000100010000000000000000DE
:1010100000000000000000000000000000000000D0
:1010200000010000000000000000000000010000BE
:1010300000000000000000000000000100010001AD
:10104000000100010001000000000000000000009D
:10105000000000000001000100010001000100018A
:10106000000100010001000100010001000000007A
:10107000000000000000000000000001000100016D
:101080000001000100010001000100010001000158
:10109000000100000000000000000000000000004F
:1010A0000001000100010001000100010001000138
:1010B000000100010001000100000000000000002C
:1010C000000000000000000100010001000100011B
:1010D000000100010001000100010000000000000B
:1010E0000000000000000000000000000000000000
:1010F00000010001000100010000000000000000EC
:1011000000000001000100000000000000000001DC
:1011100000010000000000000000000000000000CE
:1011200000000000000000000000000100000000BE
:1011300000000000000000010000000000000000AE
:10114000000000000012036B006500790062006F70
:10115000006100720064000000160371006D006BF6
:10116000006200750069006C006400650072000098
:10117000000403090409026D00040100A0FA090437
:1011800000000103010100092111010001224000BA
:101190000705810308000A09040100010301020098
:1011A000092111010001224D000705820308000AF0
:1011B00009040200010300000009211101000122BD
:1011C00036000705830308000A0904030001030031
:1011D00000000921110100012239000705840320C4
:1011E00000011201100100000008EDFE6060010026
:1011F0000102000105010906A101050719E029E71F
:1012000015002501950875018102050819012905B8
:101210009505750191029501750391010507190066
:1012200029F71500250195F875018102C00501090E
:1012300080A10185021601002603001A81002A837D
:1012400000751095018100C0050C0901A1018503FD
:10125000160100269C021A01002A9C0275109501B5
:101260008100C005010902A1010901A100050919B8
:101270000129051500250195057501810295017566
:101280000381010501093009311581257F9502751A
:1012900008810609381581257F95017508810605A5
:1012A0000C0A38021581257F950175088106C0C09A
:1012B00005010906A101050719E029E71500250127
:1012C00095087501810295017508810105081901CC
:1012D0002905950575019102950175039101050791
:1012E000190029FF150026FF00950675088100C02A
:1012F00011241FBECFEFD0E2DEBFCDBF04B603FE88
:1013000027C08091AD029091AE02A091AF02B09142
:10131000B0028730904BA740B04BD1F41092AD0291
:101320001092AE021092AF021092B00214BE84B7B7
:10133000877F84BF0FB6F894A8958091600088617C
:1013400080936000109260000FBEE0E0F8EF099516
:1013500011E0A0E0B1E0E8EEF1E500E00BBF02C073
:1013600007900D92A234B107D9F722E0A2E4B1E0D0
:1013700001C01D92AD3AB207E1F70E94FC210C9426
:10138000C6280C940000FC01611106C082818823EC
:1013900019F088E990E0089590E080E008950895BC
:1013A000089581E00895089581E008950C94D1098D
:1013B0000E94F5132FEF84E39CE021508040904081
:1013C000E1F700C000000C94381CEF92FF920F93DD
:1013D0001F93CF93DF938C01FC01E080F18080911B
:1013E000B201811140C082818823C1F1C7010E94EE
:1013F0007A19C82F682FC7010E942319B7018C2FB3
:101400000E941D0BEC01B8010E94D609882309F443
:101410004BC0B801CE010E94260D882309F444C0B8
:10142000C531F0E7DF0720F5C23080E7D80708F0C4
:101430004DC0C115E0E7DE0791F1C130D047E1F1C1
:1014400081E08093440180934501C801DF91CF91F1
:101450001F910F91FF90EF900C94D409C7010E9447
:101460005119C82FCBCFC7010E947A19B701C8CF35
:10147000CC3380E7D80709F49BC0CD33D04701F7C0
:10148000F8018281882309F4BAC0109245010E94B4
:10149000E41B909343018093420180E296C0F801DF
:1014A000828181110E94D80980E0DF91CF911F9144
:1014B0000F91FF90EF900895F80182818823A1F3A6
:1014C00080916D02816080936D02EECFF801828180
:1014D000882309F4BACF0E94351B811102C00E94F3
:1014E0001B1B0E94521B90E090939F0280939E02D0
:1014F000FE01E350F04780919E028160E231F105E8
:1015000038F4E853F74D0C94732880919E02826062
:1015100080939E0280919E020E94561B0E94F513AA
:10152000C3CF80919E028460F3CF80919E02886039
:10153000EFCF80919E028061EBCF80919E0280620E
:10154000E7CF80919E028064E3CF80919E02806805
:10155000DFCF80919E028C60DBCF80919E028E7FD8
:10156000D7CF80919E028D7FD3CF80919E028B7FBB
:10157000CFCF80919E02877FCBCF80919E028F7EBE
:10158000C7CF80919E028F7DC3CF80919E028F7BBB
:10159000BFCF80919E028F77BBCF80919E02837FC9
:1015A000B7CF90919E02892F97FB87F98058B0CFD3
:1015B000F8018281882361F0109244010E94E41BAB
:1015C000909343018093420182E00E945A116CCFB4
:1015D0008091440181110FC080914201909143019B
:1015E0000E94F01B883C910530F486E20E942F1087
:1015F00086E20E940B1182E00E94611155CF80911A
:10160000450181110FC080914201909143010E94D8
:10161000F01B883C910530F487E20E942F1087E28E
:101620000E940B1180E2E8CF0C94750D0C94770D9D
:101630000C94D3090C94180B0895972F70E023E1B4
:10164000929F600D711D1124FB0195E8899FE00DAB
:10165000F11D1124EE0FFF1FEB55FF4F8591949163
:101660000895FC01EE0FFF1FEB5BFE4E85919491F8
:1016700008950E941D0B0E94AA0C9C01811540E454
:10168000940708F097C0211580E3380708F0FAC0E6
:10169000203E310508F074C0203C310508F0E5C05B
:1016A000283A310588F4253A310508F0E2C02130A6
:1016B000310509F477C0C9010497813A910508F40E
:1016C00071C030E020E06EC0C901885A9109459789
:1016D000C0F7283A310509F4FEC0293A310509F46A
:1016E000FDC02A3A310509F4FCC02B3A310509F452
:1016F000FBC02C3A310509F4FAC02B3B310509F443
:10170000F9C02C3B310509F4F8C02D3A310509F434
:10171000F7C0203B310509F4F6C02E3A310509F433
:10172000F5C02F3A310509F4F4C0213B310509F425
:10173000F3C0223B310509F4F2C0233B310509F423
:10174000F1C0243B310509F4F0C0253B310509F413
:10175000EFC0263B310509F4EEC0273B310509F403
:10176000EDC0283B310509F4ECC0293B310509F4F3
:10177000EBC02A3B310509F4EAC020E034E412C092
:10178000211590E2390780F42F3F310509F050F41C
:10179000283E310538F0C901805F910930654097D6
:1017A00008F08FCFC9010895C9019F700E94310BC5
:1017B0009C01F8CF8115944508F041C0211583E5BF
:1017C000380708F06AC0211592E5390738F5211568
:1017D00041E5340708F05CC0211580E5380708F4BE
:1017E00054C0C90134E0969587953A95E1F7837026
:1017F000422F46954695437090E2499FA0011124DF
:10180000582B822F837021E030E002C0220F331F5B
:101810008A95E2F7242B352B3C68C4CFC90183702D
:10182000992741E050E002C0440F551F8A95E2F726
:101830002695269580E2289F90011124EBCF211553
:1018400096E5390748F4922F882721153545C8F5C4
:101850009C01246F306AA6CFC90190563F70811554
:10186000904108F02ECF30629DCFC901805C910974
:101870009DCF253A310549F1263A310549F522E84F
:1018800030E490CF3327306C8DCF3F70306A8ACFF1
:10189000322F2227216F306A85CFC90183709927A3
:1018A00041E050E002C0440F551F8A95E2F72695AB
:1018B000269580E2289F90011124242B352B3A682D
:1018C00071CF88279F719C01CECF21E830E46ACF89
:1018D00023E830E467CF22EE34E464CF29EE34E429
:1018E00061CF2AEE34E45ECF25EB34E45BCF26EB08
:1018F00034E458CF23EB34E455CF24EB34E452CF17
:1019000027EB34E44FCF2CEC34E44CCF2DEC34E413
:1019100049CF23E835E446CF2AE835E443CF22E92E
:1019200035E440CF24E935E43DCF21E236E43ACF37
:1019300023E236E437CF24E236E434CF25E236E43E
:1019400031CF26E236E42ECF27E236E42BCF2AE24F
:1019500036E428CF803E910581F1C8F481339105AA
:1019600009F462C048F48932910509F456C08A32FC
:10197000910509F460C0089589339105B9F0823862
:101980009105A1F08533910509F440C00895863E84
:10199000910561F138F4823E9105B1F0833E9105E5
:1019A000E1F00895873E910551F1089520919E023E
:1019B0002370D9F080EE90E0089520919E0220FFE0
:1019C00014C089E390E0089520919E0222FF0DC08B
:1019D00024FD09C083EE90E0089520919E0222FD2F
:1019E00031C024FF02C090E080E0089520919E0263
:1019F00023FFFBCF24FDF7CF87EE90E008952091E1
:101A00009E0223FFEECF86EE90E0089520919E0285
:101A100025FFEBCF89E290E0089520919E0225FFFB
:101A2000E4CF85E390E0089520919E0226FFDDCF6C
:101A30008AE290E0089520919E0226FFD6CF81E3AE
:101A400090E0089582EE90E0089508950F931F931B
:101A5000CF938C01FB018281811106C0C1E08C2FE4
:101A6000CF911F910F910895C0915301C11125C0CD
:101A70000531104799F70E94250D81E080935301AD
:101A80000E94E41B909352018093510110924601F1
:101A9000109248011092470110924A011092490198
:101AA00010924C0110924B0110924E0110924D0178
:101AB0001092500110924F01D2CF8091510190911C
:101AC00052010E94F01B883C910540F6809146012E
:101AD000E82FF0E0EE0FFF1FE95BFE4F118300835C
:101AE0008F5F80934601C0E0BACF0C94CF090C946D
:101AF000D00985B7806885BF85B7806885BFA6E2B5
:101B0000B1E061E070E08D91E82FE295EF70F0E0D8
:101B100041A18F709B0101C0220F8A95EAF7922F95
:101B20009095942391A382A1822B82A381E0AD3270
:101B3000B80749F7A3E1B1E061E070E08D91E82FCB
:101B4000E295EF70F0E041A18F709B0101C0220F80
:101B50008A95EAF7922F9095942391A382A1822BE4
:101B600082A381E0A632B80749F7E0E7F1E0A4E5F7
:101B7000B1E08CE891E011921192119211921D92B4
:101B80001D921D921D928E179F07A9F70C94140B9E
:101B90002F923F924F925F926F927F928F929F927D
:101BA000AF92BF92CF92DF92EF92FF920F931F936B
:101BB000CF93DF93CDB7DEB72B970FB6F894DEBF88
:101BC0000FBECDBF84E5282E81E0382E06E211E05D
:101BD0001E830D8338862F82C12CD12C7601C394AD
:101BE000AF81B8858D909D90AD90BD90B887AF8343
:101BF000FD011292129212921292FB87EA87AD8136
:101C0000BE818D91BE83AD83E82FE295EF70F0E049
:101C100091A18F7001E010E002C0000F111F8A95A2
:101C2000E2F71A830983802F892B81A382A1009573
:101C30000987802382A310EA1A95F1F723E131E0A6
:101C40003C832B8390E080E0AB81BC817D90BC83A2
:101C5000AB83272D22952F7030E0D90190965C90B0
:101C6000AA85BB854D915D916D917C91272D2F703B
:101C700001E010E002C0000F111F2A95E2F7980161
:101C8000252109F07AC097018601082E04C0000FB3
:101C9000111F221F331F0A94D2F72801390144294A
:101CA000552966297729AA85BB854D935D936D9348
:101CB0007C93139701968331910531F681A11985A3
:101CC000182311A382A1B9818B2B82A3EA85FB85FE
:101CD00080819181A281B38188169906AA06BB06EC
:101CE00049F0F1E0F0938C010E94E41B90938E0187
:101CF00080938D010F8118850057114009F070CF36
:101D000080918C018823E9F080918D0190918E0162
:101D10000E94F01B0697A8F020E731E0F1018191C5
:101D20009191A191B1911F01F90181939193A19397
:101D3000B1939F01F0E72F16F1E03F0679F710927B
:101D40008C010E94160B81E02B960FB6F894DEBF33
:101D50000FBECDBFDF91CF911F910F91FF90EF90FC
:101D6000DF90CF90BF90AF909F908F907F906F90BB
:101D70005F904F903F902F900895412C512C32014D
:101D80008ECFCF93DF9300D000D0CDB7DEB794E0F5
:101D9000899FF0011124E059FE4F80819181A28139
:101DA000B381BC01CD010F900F900F900F90DF9188
:101DB000CF9108950895909394018093930108958D
:101DC000E0919301F0919401309721F00190F0811E
:101DD000E02D099480E00895E0919301F091940141
:101DE000309721F00280F381E02D09940895E0916D
:101DF0009301F0919401309721F00480F581E02D5A
:101E00000994089520919101309192012817390782
:101E100071F09093920180939101E0919301F09180
:101E20009401309721F00680F781E02D0994089500
:101E300020918F01309190012817390771F090930C
:101E4000900180938F01E0919301F091940130977C
:101E500021F00084F185E02D0994089508950C94F3
:101E60002E0F0E94DB1B0E94790D0C94A41C4F9234
:101E70005F926F927F929F92AF92BF92CF92DF92CA
:101E8000EF92FF920F931F93CF93DF9300D000D078
:101E90000F92CDB7DEB70E94C80D26E9A22E21E031
:101EA000B22E10E000E0902E802F0E94C10E6B0138
:101EB0007C01F50141905190619071905F014C144B
:101EC0005D046E047F0409F475C080916D0281FD8C
:101ED0000E94DA0E90E080E04C245D246E247F2482
:101EE000B301A201082E04C07695679557954795D2
:101EF0000A94D2F740FF59C089839A82412C512C11
:101F00003201439404C0440C551C661C771C8A950E
:101F1000D2F7C420D520E620F72081E0CD28CE28B6
:101F2000CF2809F480E08B830E94E41B8160782F26
:101F30009D838C8349815A816B818D810E9406101B
:101F4000000F111F000F111FF801EA56FE4F80818C
:101F50009181A281B38184259525A625B72580830B
:101F60009183A283B3830E94511F0E94E00E90913F
:101F700095018917B1F10E94E00E809395010F90B1
:101F80000F900F900F900F90DF91CF911F910F91B5
:101F9000FF90EF90DF90CF90BF90AF909F907F9099
:101FA0006F905F904F900C941A0B019683319105BE
:101FB00009F096CF0F5F1F4F0730110509F073CF5F
:101FC0008FEF89838A831B820E94E41B8160782FB4
:101FD0009D838C8349815A816B818D810E9406107B
:101FE000C2CF0F900F900F900F900F90DF91CF9175
:101FF0001F910F91FF90EF90DF90CF90BF90AF9027
:102000009F907F906F905F904F900895CF93DF9354
:10201000CDB7DEB72B970FB6F894DEBF0FBECDBF9E
:102020004F83588769877A878B871E8285E0FE01F8
:102030003796DE01119601900D928A95E1F749815C
:102040005A816B817C818D819E812B960FB6F8948D
:10205000DEBF0FBECDBFDF91CF910C947D168823DC
:1020600009F4D8C0823871F40E94E00E81FDD2C01C
:1020700089E30E94221A0E94EC1A89E30E945F1AE7
:102080000C94EC1A833859F40E94E00E80FDC2C013
:1020900083E50E94221A0E94EC1A83E5EFCF843870
:1020A00059F40E94E00E82FDB5C087E40E94221A16
:1020B0000E94EC1A87E4E2CF9CEF980F913A18F453
:1020C0000E94221ADDCF90E2980F983050F487706A
:1020D00091E001C0990F8A95EAF7892F0E94A31A0F
:1020E000CFCF9BE5980F933070F4853A31F0863A64
:1020F00039F083E890E00C94020F81E890E0FBCF88
:1021000082E890E0F8CF98E5980F953108F082C00A
:10211000883A09F440C0893A09F440C08A3A09F47F
:1021200040C08B3A09F440C08C3A09F440C08B3B64
:1021300009F440C08C3B09F440C08D3A09F440C01A
:10214000803B09F440C08E3A09F440C08F3A09F44C
:1021500040C0813B09F440C0823B09F440C0833B4E
:1021600009F440C0843B09F440C0853B09F440C0F9
:10217000863B09F440C0873B09F440C0883B09F422
:1021800040C0893B09F440C08A3B09F440C090E05C
:1021900080E00C94180F82EE90E0FBCF89EE90E087
:1021A000F8CF8AEE90E0F5CF85EB90E0F2CF86EBAA
:1021B00090E0EFCF83EB90E0ECCF84EB90E0E9CFC1
:1021C00087EB90E0E6CF8CEC90E0E3CF8DEC90E0F5
:1021D000E0CF83E891E0DDCF8AE891E0DACF82E9D1
:1021E00091E0D7CF84E991E0D4CF81E292E0D1CFE2
:1021F00083E292E0CECF84E292E0CBCF85E292E020
:10220000C8CF86E292E0C5CF87E292E0C2CF8AE2F1
:1022100092E0BFCF0895882309F44BC0823871F44F
:102220000E94E00E81FF45C089E30E94221A0E94AD
:10223000EC1A89E30E945F1A0C94EC1A833859F463
:102240000E94E00E80FF35C083E50E94221A0E94A2
:10225000EC1A83E5EFCF843859F40E94E00E82FF38
:1022600028C087E40E94221A0E94EC1A87E4E2CF79
:102270009CEF980F913AF0F290E2980F983050F45A
:10228000877091E001C0990F8A95EAF7892F0E9423
:10229000A91AD2CF9BE5980F933020F490E080E00C
:1022A0000C94020F885A853120F490E080E00C9461
:1022B000180F0895882321F00E94A31A0C94EC1A99
:1022C0000895882321F00E94A91A0C94EC1A08950D
:1022D0008F929F92AF92BF92DF92EF92FF920F93F5
:1022E0001F93CF93DF9300D000D00F92CDB7DEB70E
:1022F0007C016D837983FC01058102950F70128149
:1023000011110E94C21A0E941B1AD82E882371F044
:102310001123A1F08D81805E883080F082E00E94E0
:10232000051A0E941B1A91E0D82ED926E981E29560
:10233000EF70F0E0E652F74D0C947328D12CF6CFF5
:1023400009810F70F981F07F11F00295007F112350
:10235000B1F0002361F08D81805E883018F02D810E
:10236000211109C0802F0E94A31A0E94EC1A8D81AE
:102370000E942F1015C0802F0E94B41AF6CF8D81B5
:102380000E940B11002361F08D81805E883018F06F
:102390003D81311129C0802F0E94A91A0E94EC1A98
:1023A000DD2009F4D3C10E94F81980FDCFC1F701E7
:1023B00012820E94F2190E943B18C7010E94B713B3
:1023C0000E94F2190F900F900F900F900F90DF91D5
:1023D000CF911F910F91FF90EF90DF90BF90AF9042
:1023E0009F908F900C945D18802F0E94BA1AD6CFC0
:1023F00049814F70B42E5981507F503219F0B294F8
:1024000080EFB8228D81882369F0813029F1112372
:1024100069F1002359F0F701858180FFA8CF8F7003
:10242000858304C0112361F0011104C08B2D0E942B
:102430005A11B6CF8B2D0130D1F70E94D61AB0CFEA
:10244000011106C00E94D91A8B2D0E946111A8CFDC
:10245000013009F4A5CFF6CF112321F0063008F0A2
:102460009FCFE4CF053008F09BCFEECF002361F380
:102470008D810E940B1194CF8981869586958370FA
:1024800069F0813009F08CCF8D81998193701111A1
:1024900002C090E080E00E94180F82CF8D81998168
:1024A0009370111102C090E080E00E94020F78CF7B
:1024B0008D81112329F00E945F1E0E94461F70CF5C
:1024C0000E94C71EFACF8981837009F05FC0111185
:1024D00067CF2D81229526952770220F220F8D819F
:1024E0008F7090E0B0E0A0E04C015D01022E04C0CE
:1024F000880C991CAA1CBB1C0A94D2F7FD8160E0D1
:1025000070E0CB01F4FF0FC06FE070E080E090E07E
:1025100004C0660F771F881F991F2A95D2F7609510
:1025200070958095909529812695269523702D8309
:102530002230B1F0233019F19B01AC01282939294F
:102540004A295B2929833A834B835C833D816981D6
:102550007A818B819C813130B1F00E94C81720CFE5
:102560009B01AC01282939294A295B2929833A830F
:102570004B835C83CA01B9010E94F21711CF0E94FC
:10258000C817C501B4010E949E170ACF8695112372
:1025900011F089818170882309F402CF2D81229561
:1025A00026952770220F220F8D818F7090E0B0E06A
:1025B000A0E04C015D01022E04C0880C991CAA1CED
:1025C000BB1C0A94D2F73D8160E070E0CB0134FF80
:1025D0000FC06FE070E080E090E004C0660F771FEE
:1025E000881F991F2A95D2F76095709580959095D0
:1025F00049814695469543704D834230B1F0433052
:1026000019F19B01AC01282939294A295B29298321
:102610003A834B835C833D8169817A818B819C8184
:102620003130B1F00E94CE18BBCE9B01AC012829FD
:1026300039294A295B2929833A834B835C83CA0160
:10264000B9010E94F818ACCE0E94CE18C501B401A1
:102650000E94A418A5CE3D81323F09F447C080F402
:10266000303F79F1313FD9F1832F805E8031D0F056
:10267000112309F456C001117ACE89818F7133C0BC
:102680004D81433FD1F1443F99F7112309F43FC0F5
:1026900089818F7189830E943B1863E089810E9440
:1026A000FC197ECE5D815F705D8389818F711123FE
:1026B00021F00E943B188D81BACE0E945D188D8159
:1026C000C4CE112341F0053008F06ACE89818F71A4
:1026D0000E94821865CE063008F062CEF7CF89815D
:1026E0008F71112339F00E943B185ACE89818F7166
:1026F0001123C9F30E945D1853CE112329F089815B
:102700008F710E9426184CCE0E941C1849CE81E081
:102710000E94051A023008F443CE82E00E94051A96
:102720003FCE0111A5CE89818F71E4CF49814F70D1
:102730006D81C7010E94C3090E94171731CE4981DC
:102740004F706D81C7010E941C0B2ACE0F900F9015
:102750000F900F900F90DF91CF911F910F91FF90ED
:10276000EF90DF90BF90AF909F908F9008950F9360
:102770001F93CF93DF93EC018B819C81892B29F0F0
:102780008881998189238F3F29F4DF91CF911F910F
:102790000F910895CE010E94E5098823B1F3688165
:1027A00079818A810E94C8198C010E9422190E9495
:1027B0009317B801CE01DF91CF911F910F910C9427
:1027C00068110E94C21A0E94D31A0E94951A0E9490
:1027D000EC1A0E9437200E94461F90E080E00E9481
:1027E000020F90E080E00C94180F0E94B11A0C9434
:1027F000E1130E94BC19282F892F82958F70903C7D
:1028000080F48A30B0F4843020F4823090F480E098
:1028100008958630E1F781E0203E88F0213FB9F746
:102820000EC08C3011F08F3091F793FB882780F920
:10283000089581E0203F39F018F4203E40F70895D4
:10284000243F29F7FCCF0895CF93DF9300D000D029
:102850000F92CDB7DEB70F900F900F900F900F90A3
:10286000DF91CF910895CF93DF9300D000D000D0B7
:10287000CDB7DEB726960FB6F894DEBF0FBECDBF3C
:10288000DF91CF9108951F93CF93DF93E091B30130
:1028900016E08091B4018E1304C0DF91CF911F9197
:1028A0000895CE2FD0E01E9FF0011124EB54FE4F6F
:1028B0004081518162817381848195810E943314AA
:1028C000FE013196E770E5CF4091E5015091E601B8
:1028D0006091E7017091E8018091E9019091EA012E
:1028E0000C9433141F93CF93DF938091EA01807F80
:1028F000C1F48091E7018823A1F08091B301C091D8
:10290000B4016091E5017091E6014091E8015091B8
:10291000E901D62FD723DA01A095B09516E0C813A8
:1029200004C0DF91CF911F91089590E041155105AA
:1029300011F0DF3F31F401968770F1CF2A0F3B1F72
:1029400017C0189FF001199FF00D1124EB54FE4F92
:1029500021812713F0CF20812613EDCF2281211171
:10296000EACF238134812417350740F3241B350B2C
:10297000283C310500F72091EA012F702061209357
:10298000EA0126E0289FF001299FF00D1124E6546A
:10299000FE4F80818F708061808385EE91E00E9480
:1029A000B713DF91CF911F910C9443149F92AF9274
:1029B000BF92CF92DF92EF92FF920F931F93CF932C
:1029C000DF93CDB7DEB72B970FB6F894DEBF0FBEFF
:1029D000CDBF8C0185E0F801DE01179601900D92C4
:1029E0008A95E1F7D8014C9111965C911197129656
:1029F000EC9012978091E8019091E901009709F419
:102A00006BC12091E5013091E601632F62236F3F96
:102A100009F462C11396CD90DC909090E701992063
:102A200009F4F8C0C816D90608F43FC0F601E81B3F
:102A3000F90BCF01FF24F394883C910508F0F12CA9
:102A400085EEA82E81E0B82E8091EA01982F907F24
:102A5000FF2009F4B7C0911180C0FE2C35132AC0A5
:102A6000241328C0E11026C08F7080618093EA0192
:102A70000E946414C5010E94B7138091EA01D80135
:102A800015968C938F2D2B960FB6F894DEBF0FBE44
:102A9000CDBFDF91CF911F910F91FF90EF90DF900D
:102AA000CF90BF90AF909F900895809590958C0D9A
:102AB0009D1DC0CFCD2829F0842F85238F3F09F09D
:102AC00019C180E0B82FB170DB2EE091B3012091E5
:102AD000B40136E080FD1CC0EE20A1F28091EA0135
:102AE00081608093EA01F12CCDCF8E2F90E03E9F44
:102AF000F0011124EB54FE4F6181651306C0608123
:102B0000641303C062816E11E7CFFC013196E77058
:102B1000E213EBCF4F8358878F8198850E94BC19B1
:102B2000292F22952F70903260F0225F2F70223073
:102B300078F49F7051F0F8019581907F31F4D12C99
:102B40000AC09F7011F08823D1F3805E8830B8F3FB
:102B5000C8010E94B713FD2C95CF351306C024136E
:102B600004C0D801EE2009F47BC04F8358878F81C1
:102B700098850E94F913882309F4B8C0EE2009F45F
:102B8000B5C08091EA01803270F02091E50130916A
:102B9000E6013A8329831B82DD82CC828E83CE01BB
:102BA00001960E94B71386E0F801A5EEB1E001900E
:102BB0000D928A95E1F70E9472140E946414FF241A
:102BC000F39460CF911113C07C2DDB86CA866E2DE5
:102BD0008B850E94241485EE91E00E94B71386E055
:102BE000F50111928A95E9F70E9464144BCF3513D1
:102BF000BCCF2413BACFE110B8CFD80115968C936F
:102C0000C8010E94B71386E0F50111928A95E9F791
:102C1000F92C38CFC816D90688F1B601681B790B94
:102C2000CB01F12C883C910508F047C0FE2CEE202A
:102C300009F45CC0351330C024132EC08091EA0122
:102C400080FD21C0982F907FF1F0D80115968C93CC
:102C50001597903F39F0982F907F905F8F70892B58
:102C600015968C93C8010E94B71386E0F801A5EE73
:102C7000B1E001900D928A95E1F7B6CF80959095DD
:102C80008C0D9D1DCECF86E0F801A5EEB1E0019040
:102C90000D928A95E1F7F6CE4F8358878F819885FC
:102CA0000E94F91381117FCF8091EA0181608093A6
:102CB000EA01C8010E94B713E5CE7C2DDB86CA86E7
:102CC0006E2D8B850E94241486E0E5EEF1E0DF0195
:102CD0001D928A95E9F788CFEE2041F04F835887FF
:102CE0008F8198850E94F91381115DCFC8010E94E0
:102CF000B71365CF81E08E25E5CE1F93CF93DF9389
:102D0000CDB7DEB72C970FB6F894DEBF0FBECDBFA0
:102D10004F83588769877A878B879C87CE01079670
:102D20000E94D614882369F08A859B85892B39F007
:102D30004F815885842F85238F3F09F071C016E09D
:102D40005FC086E0FE013796DE01119601900D927C
:102D50008A95E1F78A859B85892B89F388859F81F0
:102D600089238F3F61F32091B40130E0C9010196BE
:102D7000877099274091B3014817190671F40E9492
:102D8000F5131092B4011092B30186E0E5EEF1E084
:102D9000DF011D928A95E9F7D2CF96E0929FD0018C
:102DA000939FB00D1124AB54BE4FFE01319601909C
:102DB0000D929A95E1F78093B4010E944314BFCF1E
:102DC000819FC00111248B549E4F0E94D6148823EA
:102DD000E9F0E091B3011E9FF0011124EB54FE4F86
:102DE0004081518162817381848195810E94331475
:102DF0008091B30190E00196877099278093B30189
:102E00008091B3019091B4018913DACF2C960FB65B
:102E1000F894DEBF0FBECDBFDF91CF911F91089513
:102E200069857A858B859C850E94331488CFEF92C3
:102E3000FF920F931F93CF93DF938C01892B89F01F
:102E4000F12CEE24E394E8012196F8018491843773
:102E500009F457C0A0F4823009F43EC048F4813030
:102E6000D1F0DF91CF911F910F91FF90EF900895D6
:102E70009CEF980F9037A8F70E942F100AC0853753
:102E800009F44CC09CE7980F903758F78F770E9451
:102E90000B118E0116C00E5F1F4FFE01849190E250
:102EA000980F983060F48770FE2D01C0FF0F8A954F
:102EB000EAF78F2F0E94C51A0E94EC1A02C00E94E6
:102EC0002F108F2D815008F4BECFEFE9FFE031972E
:102ED000F1F700C00000F6CF0E5F1F4FFE01849196
:102EE00090E2980F983050F48770FE2D01C0FF0FCC
:102EF0008A95EAF78F2F0E94CB1ADECF0E940B1122
:102F0000E0CF0E5F1F4FFE01C491C150D0F28FE998
:102F10009FE00197F1F700C00000F7CF0E5F1F4F51
:102F2000FE01F490CECF0895609344027093450261
:102F300080934602909347020C94E113CF93DF9362
:102F400000D000D0CDB7DEB769837A838B839C83B2
:102F50008091440290914502A0914602B0914702AF
:102F600029813A814B815C81822B932BA42BB52B39
:102F70008093440290934502A0934602B093470287
:102F80000F900F900F900F90DF91CF910C94E11361
:102F9000CF93DF9300D000D0CDB7DEB769837A83BB
:102FA0008B839C838091440290914502A0914602BC
:102FB000B091470229813A814B815C81822393231E
:102FC000A423B5238093440290934502A093460224
:102FD000B09347020F900F900F900F90DF91CF9119
:102FE0000C94E113CF93DF9300D000D0CDB7DEB7C0
:102FF00069837A838B839C838091440290914502FC
:10300000A0914602B091470229813A814B815C81AF
:1030100082279327A427B5278093440290934502E3
:10302000A0934602B09347020F900F900F900F901D
:10303000DF91CF910C94E113109240021092410263
:1030400010924202109243020C94E11341E050E0CE
:1030500060E070E004C0440F551F661F771F8A951B
:10306000D2F7409340025093410260934202709322
:1030700043020C94E113282F81E090E0A0E0B0E03F
:1030800004C0880F991FAA1FBB1F2A95D2F7409131
:103090004002509141026091420270914302842BA0
:1030A000952BA62BB72B8093400290934102A093BF
:1030B0004202B09343020C94E11341E050E060E01F
:1030C00070E004C0440F551F661F771F8A95D2F722
:1030D0004095509560957095809140029091410285
:1030E000A0914202B091430284239523A623B723E3
:1030F0008093400290934102A0934202B093430216
:103100000C94E113282F81E090E0A0E0B0E004C02F
:10311000880F991FAA1FBB1F2A95D2F74091400222
:103120005091410260914202709143028427952799
:10313000A627B7278093400290934102A0934202B2
:10314000B09343020C94E113CF93DF9300D000D0EF
:10315000CDB7DEB769837A838B839C8380914002ED
:1031600090914102A0914202B091430229813A819B
:103170004B815C81822B932BA42BB52B8093400237
:1031800090934102A0934202B09343020F900F909C
:103190000F900F90DF91CF910C94E113CF93DF93B9
:1031A00000D000D0CDB7DEB769837A838B839C8350
:1031B0008091400290914102A0914202B09143025D
:1031C00029813A814B815C8182239323A423B523F7
:1031D0008093400290934102A0934202B093430235
:1031E0000F900F900F900F90DF91CF910C94E113FF
:1031F000CF93DF9300D000D0CDB7DEB769837A8359
:103200008B839C838091400290914102A091420265
:10321000B091430229813A814B815C8182279327B7
:10322000A427B5278093400290934102A0934202C5
:10323000B09343020F900F900F900F90DF91CF91BA
:103240000C94E1130895E82F23E1929FE00D1124DF
:103250008E2F877041E001C0440F8A95EAF7E6950A
:10326000E695E69585E0E89FF0011124E551FE4FD3
:1032700030E020E070E05191DF011197CB01022E88
:1032800002C0969587950A94E2F78170819585270B
:10329000842385278C932F5F3F4F2530310559F7C5
:1032A0000895E82F23E1929FE00D11249E2F97703F
:1032B000E695E695E69585E0E89FF0011124E55155
:1032C000FE4F50E040E080E0219130E0092E02C046
:1032D000369527950A94E2F721703327042E01C012
:1032E000220F0A94EAF7822B4F5F5F4F453051055A
:1032F00059F70895BF92CF92DF92EF92FF920F930A
:103300001F93CF93DF938C01C0904002D090410275
:10331000E0904202F0904302809144029091450275
:10332000A0914602B0914702C82AD92AEA2AFB2A6C
:10333000CFE1D0E0BC2ED701C6010C2E04C0B6955B
:10334000A795979587950A94D2F780FD0EC021978F
:1033500088F7B12C8B2DDF91CF911F910F91FF90AA
:10336000EF90DF90CF90BF900895B8018C2F0E940E
:10337000390B019761F3EECFCF93DF93D82FC92F8D
:103380000E947A196D2F7C2FDF91CF910C94390B0D
:103390001F93CF93DF93162FD72F9091B2019923CC
:1033A00039F0862F972FDF91CF911F910C94BC1984
:1033B000882391F0862F972F0E947A19C82F682FA3
:1033C000812F9D2F0E942319612F7D2F8C2FDF913C
:1033D000CF911F910C94390B862F972F0E94511972
:1033E000C82FF2CF809148028595859585950895DF
:1033F000809148028770089598E0899F9001112478
:10340000622B609348020C943B189091480280957F
:10341000892380934802282F277061F4282F082ED3
:10342000000C330B9217130629F085958595859529
:103430000C945D18089590914802977081E009F40A
:1034400080E00895909112019923E1F090919E02FD
:1034500097FF18C0E82FE695E695E695EF3139F12C
:103460002091000130910101E20FF32FF11D8770CF
:1034700021E030E001C0220F8A95EAF78181822B9A
:10348000818308952091000130910101F901329664
:103490009FEF40E05191851751F09F3F19F4511172
:1034A00001C0942F4F5F4E31A9F79F3F09F4089553
:1034B000290F311D97FD3A95F90182830895909166
:1034C0001201992301F190919E0297FF1CC0E82FF1
:1034D000E695E695E695EF3139F1209100013091BE
:1034E0000101E20FF32FF11D877021E030E0A90107
:1034F00002C0440F551F8A95E2F7CA018095918159
:103500008923818308952091000130910101F901FF
:103510003296205E3F4F9191891303C0DF011197CE
:103520001C92E217F307B9F7089581E090E0E0916B
:103530000001F0910101E80FF91F1082019680321D
:103540009105A9F7089590916C02982B90936C02C5
:103550000895982F909580916C02892380936C0236
:10356000089510926C02089590916B02982B90939D
:103570006B020895982F909580916B028923809318
:103580006B02089510926B02089590916A02982B35
:1035900090936A020895982F909580916A028923EA
:1035A00080936A02089510926A02089580934902F6
:1035B000089510924902089520910001309101016F
:1035C000F9013196205E3F4F80E0919191118F5F1C
:1035D000E217F307D1F70895E0910001F09101019E
:1035E00080916C028083E0910001F0910101808163
:1035F00090916B02892B8083E0910001F091010191
:10360000808190916A02892B80839091490299234D
:1036100061F0E0910001F09101018081892B8083AC
:103620000E94DC1A81111092490280910001909150
:1036300001010C94EC0E6DEE7EEF90E080E00E94B4
:10364000B02860E082E090E00E949E2860E083E085
:1036500090E00E949E2860E084E090E00E949E2816
:1036600060E085E090E00C949E2890E080E00E946D
:1036700098289C0181E02D3E3E4F09F080E008959E
:1036800082E090E00C949028682F82E090E00C9407
:103690009E2883E090E00C949028682F83E090E0CF
:1036A0000C949E2884E090E00C949028682F84E08D
:1036B00090E00C949E288091A402843039F11092FD
:1036C0006E0288E190E020E40FB6F894A89580930C
:1036D00060000FBE2093600080E00E941A0B83B749
:1036E000817F846083BF83B7816083BF789488952E
:1036F00083B78E7F83BF0FB6F894A8958091600042
:10370000886180936000109260000FBE0895089554
:103710000895CF93DF9300D000D00F92CDB7DEB7DE
:103720000E94871B0E94C80D0E94881B1D828D81EC
:103730000E94C10E672B682B692B71F48D818F5FFE
:103740008D838730A1F780E00F900F900F900F903E
:103750000F90DF91CF91089581E0F6CF0E94F5138D
:103760000E94E00E0C941A0B1F921FB61F92112498
:103770008F939F93AF93BF9380916E02811113C07B
:1037800080919A0290919B02A0919C02B0919D021F
:103790004196A11DB11D80939A0290939B02A09324
:1037A0009C02B0939D02BF91AF919F918F911F900A
:1037B0001FBE1F90189582E084BD93E095BD9AEFDF
:1037C00097BD80936E0008952FB7F89480919A0268
:1037D00090919B02A0919C02B0919D022FBF0895F1
:1037E000CF92DF92EF92FF929C014FB7F8948091B5
:1037F0009A0290919B02A0919C02B0919D024FBFB2
:103800006C017D01EE24FF24A90170E060E0C41684
:10381000D506E606F70638F0821B930BFF90EF9073
:10382000DF90CF9008950197F7CF1F921FB61F9298
:1038300011248F939F93AF93BF9380919A0290919D
:103840009B02A0919C02B0919D020196A11DB11D09
:1038500080939A0290939B02A0939C02B0939D0246
:10386000BF91AF919F918F911F901FBE1F90189590
:103870000E942B24F8942FEF87EA91E62150804094
:103880009040E1F700C0000087E090EBDC018093FE
:10389000AD029093AE02A093AF02B093B00288E164
:1038A0009CE00FB6F894A895809360000FBE9093AB
:1038B0006000FFCFAF92BF92CF92DF92EF92FF9264
:1038C0000F931F93CF93C0E0A82EB12C8C2F0E9492
:1038D000C10E6B017C0110E000E0D701C601002E93
:1038E00004C0B695A795979587950A94D2F780FF5F
:1038F00013C0602F7C2F80E00E941D0BA816B90614
:1039000059F481E0CF911F910F91FF90EF90DF90DC
:10391000CF90BF90AF9008950F5F1F4F03311105F7
:10392000E1F6CF5FC73091F680E0ECCFCF93C82FA0
:103930008CE20E945A1C882321F08C2FCF910C948A
:103940005A1C80E0CF910895CF93DF9300D000D030
:10395000CDB7DEB70E94351B811102C00E941B1B30
:1039600095E6998308C00E94C80D8FE39CE90197F2
:10397000F1F700C00000A981A150A983A111F3CFE4
:1039800089E20E94961C811110C18AE20E94961C55
:1039900081110E941B1B85E00E94961C81110E94D0
:1039A000381C0E94401B80936D0287E00E94961C89
:1039B000882371F08BE10E94961C882309F4D1C002
:1039C00090916D02892F8D7F91FF826080936D02AF
:1039D00080916D020E94441B0E94521B90E09093C4
:1039E0009F0280939E0280EE0E94961C882341F0E5
:1039F00090919E02892F8E7F90FF816080939E021E
:103A000089E30E94961C882341F090919E02892FA1
:103A10008D7F91FF826080939E0282EE0E94961CB1
:103A2000882341F090919E02892F8B7F92FF8460C2
:103A300080939E0286EE0E94961C882341F090910E
:103A40009E02892F877F93FF886080939E0283EE7A
:103A50000E94961C882341F090919E02892F8F7EB0
:103A600094FF806180939E0285E30E94961C8823C8
:103A700041F090919E02892F8F7D95FF8062809307
:103A80009E0281E30E94961C882341F090919E0241
:103A9000892F8F7B96FF806480939E0281E10E9434
:103AA000961C882341F090919E02892F97FB87F9FD
:103AB000805880939E0280919E020E94561B87E24E
:103AC0000E94961C89838EE10E94961C882319F01F
:103AD000B981B260B9838FE10E94961C882319F0E6
:103AE00029812460298380E20E94961C882319F092
:103AF00039813860398381E20E94961C882319F04D
:103B000049814061498382E20E94961C882319F012
:103B100059815062598383E20E94961C882319F0D0
:103B200089818064898384E20E94961C8823B1F194
:103B300099819068998389810E944D1B3981232F37
:103B400030E050E040E029833A834B835C83CA0134
:103B5000B9010F900F900F900F90DF91CF910C94BF
:103B600094178EE00E94961C882339F090916D0284
:103B7000892F8B7F92FF846029CF80E10E94961C61
:103B800090916D02882329F0892F877F93FF8860A9
:103B90001DCF892F8E7F90FF816018CFA981A11141
:103BA000CACF0E94491B282FCBCF0F900F900F90A8
:103BB0000F90DF91CF9108958091710280FF12C024
:103BC0006091050185E0689FB001112475956795A6
:103BD0007595679560387105A8F561157105A1F1B6
:103BE000862F089581FF09C06091050185E0689FD7
:103BF000B001112475956795EDCF6091050182FDA7
:103C00000AC0809172028823D1F0909104016091E2
:103C10000501891728F085E0689FB0011124DACFEB
:103C2000869FB001112485E0869F9001879F300D0B
:103C30001124692F70E0C9010E945F28CBCF65E095
:103C400070E0CECF8FE7089581E0089580917102F2
:103C500080FF0CC06091030170E0759567957595C4
:103C600067956115710549F1862F089581FF06C09A
:103C70006091030170E075956795F3CF6091030142
:103C800082FD0BC0909172029923A1F06091020114
:103C900080910301961738F0682F70E06038710545
:103CA00000F38FE70895899FC001112470E00E94FE
:103CB0005F28F4CF61E070E0D7CF81E00895803FC6
:103CC00031F40E94DC1D8195809375020895813F37
:103CD00019F40E94DC1DF8CF823F31F40E94DC1DF4
:103CE0008195809374020895833F19F40E94DC1D2E
:103CF000F8CF893F29F40E94261E8093760208950A
:103D00008A3F21F40E94261E8195F7CF8B3F31F424
:103D10000E94261E81958093770208958C3F19F4A6
:103D20000E94261EF8CF843F31F480917302816097
:103D3000809373020895853F21F48091730282601D
:103D4000F7CF863F21F4809173028460F1CF873FE3
:103D500021F4809173028860EBCF883F21F4809139
:103D600073028061E5CF8D3F31F4809171028160F3
:103D70008093710208958E3F21F4809171028260D8
:103D8000F7CF8F3FB9F7809171028460F1CF9091A6
:103D90007402803F41F48091750287FD1092750294
:103DA000992371F00895813F29F4809175021816C6
:103DB000ACF3F6CF823F81F497FFF2CF10927402FA
:103DC0008091750290917602892B90917702892BD0
:103DD00049F7109272020895833F19F4191674F38B
:103DE000DFCF893F39F4809176021816CCF6109215
:103DF0007602D6CF8A3F29F48091760287FFD0CF12
:103E0000F6CF8B3F39F48091770287FFC9CF1092AC
:103E10007702C6CF8C3F29F4809177021816BCF345
:103E2000BFCF843F31F4809173028E7F8093730201
:103E3000B7CF853F21F4809173028D7FF7CF863F06
:103E400021F4809173028B7FF1CF873F21F4809121
:103E50007302877FEBCF883F21F4809173028F7EBE
:103E6000E5CF8D3F31F4809171028E7F8093710296
:103E700097CF8E3F21F4809171028D7FF7CF8F3FD6
:103E800009F08ECF809171028B7FF0CF83E792E0B3
:103E90000E94F70E0E94E41B9093700280936F02C1
:103EA00008951F93CF93DF9300D000D000D0CDB7FB
:103EB000DEB780916F02909170020E94F01BAC01FE
:103EC000809172022091060130E0811106C020919C
:103ED00007019AE0299F900111244217530788F0A7
:103EE00020917402A0917502A98310917602B0917D
:103EF0007702BE8321110FC09A2F912B9B2B09F0C3
:103F0000B2C026960FB6F894DEBF0FBECDBFDF91CC
:103F1000CF911F9108958F3F19F08F5F80937202A8
:103F2000121624F40E94DC1D8093740280917402A6
:103F300087FF05C00E94DC1D819580937402298152
:103F4000121624F40E94DC1D809375028091750284
:103F500087FF05C00E94DC1D8195809375028091CA
:103F60007402882309F455C0309175023D833323D0
:103F700009F44FC0282F880F330B440B550B2983AE
:103F80003A834B835C83CA01B9010E94662723E30D
:103F900033E343E35FE369837A838B839C836981A3
:103FA0007A818B819C810E94CA2769837A838B8363
:103FB0009C8369817A818B819C810E942E276093EA
:103FC00074028D81082E000C990BAA0BBB0B898300
:103FD0009A83AB83BC83BC01CD010E94662723E397
:103FE00033E343E35FE369837A838B839C83698153
:103FF0007A818B819C810E94CA2769837A838B8313
:104000009C8369817A818B819C810E942E27609399
:104010007502111624F40E94261E80937602809168
:10402000760287FF05C00E94261E81958093760246
:104030009E81191624F40E94261E80937702809197
:10404000770287FF05C00E94261E81958093770224
:1040500026960FB6F894DEBF0FBECDBFDF91CF918D
:104060001F910C94461F8F3F09F057CF68CF85E012
:10407000E3E7F2E0DF011D928A95E9F71092720200
:10408000109271020895809198020895CF93DF9362
:1040900000D00F92CDB7DEB72091A402243019F5DD
:1040A00023E029838A839B832093E9008FEF9091FB
:1040B000E800815095FD06C095ED9A95F1F7000056
:1040C0008111F5CF8091E80085FF0DC050E040E000
:1040D00063E070E0CE0101960E94A3228091E80087
:1040E0008E778093E8000F900F900F90DF91CF9123
:1040F0000895CF93DF9300D00F92CDB7DEB79C0128
:104100008091A402843031F582E0898320583109FE
:104110003B832A8383E08093E9008FEF9091E8004E
:10412000815095FD06C095ED9A95F1F7000081113B
:10413000F5CF8091E80085FF0DC050E040E063E0DE
:1041400070E0CE0101960E94A3228091E8008E7754
:104150008093E8000F900F900F90DF91CF9108951A
:104160002091A4022430F1F422E02093E9002FEF03
:104170003091E800215035FD06C035ED3A95F1F754
:1041800000002111F5CF2091E80025FF0BC050E081
:1041900040E065E070E00E94A3228091E8008E7705
:1041A0008093E8000895CF93DF93D82FC92F809193
:1041B000A4028430F1F4909112019923E9F09091D6
:1041C0009E0297FF19C08093E9008FEF9091E8005D
:1041D000815095FD06C095E19A95F1F70000811197
:1041E000F5CF8091E80050E040E060E270E085FDAE
:1041F0001AC0DF91CF91089581E08093E9008FEF9D
:104200009091E800815095FD06C095ED9A95F1F7E3
:1042100000008111F5CF8091E80085FFEACF50E0E2
:1042200040E068E070E08D2F9C2F0E94A3228091D7
:10423000E8008E778093E80080E2ED2FFC2FA8E75E
:10424000B2E001900D928A95E1F7D3CF8091A3025D
:10425000811109C00E942B240E948D248091E200CC
:1042600084608093E20008951092A3020895089557
:1042700008950C94AE1B42E061EC81E00E94A723FC
:1042800042E061EC82E00E94A72342E061EC83E01F
:104290000E94A72342E261EC84E00C94A723809162
:1042A000A602893089F148F4823009F494C0833041
:1042B00009F44FC0813041F008958A3009F47BC081
:1042C0008B3009F461C008958091A502813A09F00C
:1042D0003FC08091E800877F8093E8008091A90229
:1042E0009091AA02892B61F460E288E792E070E085
:1042F0000E94F2228091E8008B778093E800089575
:1043000060E090E080E0F3CF8091A502813201F57A
:104310008091A9029091AA02009711F00397C1F42D
:104320008091E800877F8093E8008091E80082FF19
:104330000BC08091F100809398028091E8008B7708
:104340008093E8000C94DB238091A4028111EDCFCF
:1043500008958091A502813AD9F78091A9029091A0
:10436000AA02892BA9F78091E800877F8093E80053
:104370008091E80080FFFCCF809112018093F100D2
:104380008091E8008E77DCCF8091A502813201F721
:104390008091A9029091AA02892BD1F68091E80020
:1043A000877F8093E8000E94DB238091A70280939F
:1043B00012010C94F5138091A502813249F6809187
:1043C000E800877F8093E8000E94DB238091A802A9
:1043D0008093990208958091A502813A09F0B8CF9F
:1043E0008091E800877F8093E8008091E80080FF5B
:1043F000FCCF80919902C2CF84B7877F84BF0FB66C
:10440000F894A89580916000886180936000109274
:1044100060000FBE80E880936100109261000E94EE
:104420002F0F0E942B240E948D248091E200846033
:104430008093E20078940E9413270E94310F88E055
:1044400091E00E94DB0E8091A402853019F00E9459
:10445000370FF9CF0E945B1B8091A202882399F34A
:104460000E94891B882379F30E948D22ECCF9C0146
:10447000DA01892F992783309105C1F068F48130E2
:10448000910509F445C0029761F48DE690E025E7B7
:1044900031E12D933C93089581329105E1F08297AB
:1044A00039F190E080E030E020E0F3CFC9019927B6
:1044B000213059F08230910559F0E1E7F1E1892B83
:1044C00081F7849190E09F01E4CFE9E5F1E1F9CF34
:1044D000E5E4F1E1F6CF643020F7E62FF0E0EE0FEF
:1044E000FF1FE75CFE4F2081318189E090E0D1CF52
:1044F0006430B8F670E0FB01EE0FFF1FEF5CFE4F7B
:1045000020813181635D7E4FFB01808190E0C1CFCE
:1045100082E190E022EE31E1BCCF84E189BD86E109
:1045200089BD09B400FEFDCF8091D8008F7D8093B6
:10453000D8008091E00082608093E0008091E000EC
:1045400081FDFCCF0895AF92BF92CF92DF92FF9290
:104550000F931F93CF93DF936C01EB018A010E94AD
:10456000FA23F82E811123C00115110539F0F80145
:1045700080819181C81BD90BC80ED91EB12CA12CEA
:104580002097A9F08091E80085FD22C08091E80085
:104590008E778093E80001151105A1F0F801808164
:1045A0009181A80EB91EB182A08285E0F82E8F2DD0
:1045B000DF91CF911F910F91FF90DF90CF90BF902F
:1045C000AF9008950E94FA238823D1F2F82EEFCFFE
:1045D000F60181916F018093F1002197FFEFAF1AEF
:1045E000BF0ACECFFC01CB012091AB023091AC02CF
:1045F0002617370790F0009729F42091E8002E77CE
:104600002093E80040E0009751F4411108C08091E8
:10461000E80082FF31C080E00895C901F3CF209106
:10462000A4022223A9F12530A9F12091E80023FD5D
:104630002DC02091E80022FDEACF2091E80020FF64
:10464000E2CF2091F2003091F300009719F028306A
:10465000310558F041E02830310509F040E0209163
:10466000E8002E772093E800CECF41914093F100EF
:1046700001972F5F3F4FE9CF8091A402882341F03B
:10468000853041F08091E80083FFC1CF81E008953B
:1046900082E0089583E00895FC01CB012091AB02F4
:1046A0003091AC022617370790F0009729F420913B
:1046B000E8002E772093E80040E0009751F4411184
:1046C00008C08091E80082FF32C080E00895C901EF
:1046D000F3CF2091A4022223B1F12530B1F1209132
:1046E000E80023FD2EC02091E80022FDEACF2091B2
:1046F000E80020FFE2CF2091F2003091F300009714
:1047000019F02830310558F041E02830310509F022
:1047100040E02091E8002E772093E800CECF44912E
:104720004093F100319601972F5F3F4FE8CF809182
:10473000A402882341F0853041F08091E80083FF96
:10474000C0CF81E0089582E0089583E00895982F16
:10475000973028F08F708093E90081E0089590935E
:10476000E900242F762F50E0981731F07091EC007B
:104770002091ED005091F00021FD02C09F5FE8CF35
:104780003091EB003E7F3093EB003091ED003D7FA8
:104790003093ED003091EB0031603093EB0070937B
:1047A000EC002093ED005093F0002091EE0027FDE7
:1047B000E5CF80E008958091A50287FF13C0809126
:1047C000E80082FF06C08091E8008B778093E800C4
:1047D00004C08091A4028111F2CF08958091A402B7
:1047E0008823D9F38091E80080FFF8CF8091E8001A
:1047F0008E77ECCF2091E4003091E50095E6A90199
:104800002091EC00822F817020FF06C08091E8008B
:1048100080FF06C080E008952091E80022FD1AC0C4
:104820008091A402882389F0853089F08091EB0083
:1048300085FD0FC02091E4003091E5004217530739
:10484000F9F29150E1F684E0089582E0089583E062
:10485000089581E008950E949C240E94A424E0EE23
:10486000F0E0808181608083E8EDF0E080818F77E7
:10487000808319BCA7EDB0E08C918E7F8C938081F2
:104880008F7E80831092A30208950F931F93CF937E
:10489000DF930E949C240E94A424C8EDD0E088816C
:1048A0008F77888388818068888388818F7D8883DB
:1048B000E7EDF0E080818068808319BC1092A4024B
:1048C0001092A0021092A2021092A10200EE10E03B
:1048D000F80180818B7F808388818160888342E0BA
:1048E00060E080E00E94A723E1EEF0E080818E7F0F
:1048F0008083E2EEF0E08081816080838081886047
:104900008083F80180818E7F8083888180618883A5
:10491000DF91CF911F910F910895E8EDF0E0808134
:104920008F7E8083E7EDF0E080818160808381E08D
:104930008093A3020C944524E8EDF0E080818C7F05
:1049400080831092E20008951092DA001092E10044
:1049500008951F920F920FB60F9211240BB60F926B
:104960002F933F934F935F936F937F938F939F9377
:10497000AF93BF93EF93FF938091E10082FF0BC051
:104980008091E20082FF07C08091E1008B7F8093DD
:10499000E1000E9412278091DA0080FF19C0809107
:1049A000D80080FF15C08091DA008E7F8093DA00F6
:1049B0008091D90080FF96C084E189BD86E189BDE0
:1049C00009B400FEFDCF81E08093A4020E9426215D
:1049D0008091E10080FF19C08091E20080FF15C046
:1049E0008091E2008E7F8093E2008091E2008061FE
:1049F0008093E2008091D80080628093D80019BC37
:104A000085E08093A4020E9438218091E10084FF18
:104A100029C08091E20084FF25C084E189BD86E140
:104A200089BD09B400FEFDCF8091D8008F7D8093B1
:104A3000D8008091E1008F7E8093E1008091E200B8
:104A40008F7E8093E2008091E20081608093E2009B
:104A50008091A002882309F44BC084E08093A402D3
:104A60000E9439218091E10083FF29C08091E200FA
:104A700083FF25C08091E100877F8093E10082E081
:104A80008093A4021092A0028091E1008E7F809317
:104A9000E1008091E2008E7F8093E2008091E2004D
:104AA00080618093E20042E060E080E00E94A72302
:104AB0008091F00088608093F0000E943721FF9180
:104AC000EF91BF91AF919F918F917F916F915F9186
:104AD0004F913F912F910F900BBE0F900FBE0F90F3
:104AE0001F90189519BC1092A4020E94342170CF17
:104AF0008091E30087FD02C081E0B0CF83E0AECFBC
:104B00001F920F920FB60F9211240BB60F922F9394
:104B10003F934F935F936F937F938F939F93AF9345
:104B2000BF93CF93DF93EF93FF93D091E900DF70B2
:104B30008091EC00C82FC17080FDC0E81092E900A0
:104B40008091F000877F8093F00078940E94C825C0
:104B50001092E9008091F00088608093F000CD2BE6
:104B6000CF70C093E900FF91EF91DF91CF91BF919A
:104B7000AF919F918F917F916F915F914F913F91F5
:104B80002F910F900BBE0F900FBE0F901F90189596
:104B90001F93CF93DF93CDB7DEB7AA970FB6F894E4
:104BA000DEBF0FBECDBF85EA92E0FC0101962091E9
:104BB000F100208322E08D3A9207B9F70E944F213D
:104BC0008091E80083FF16C18091A5029091A60212
:104BD0009A3008F00FC1E92FF0E0E651F74D0C9440
:104BE0007328803881F0823809F004C18091A902CD
:104BF0008F708093E9008091EB0085FB882780F916
:104C00001092E90006C08091A1029091A202911138
:104C100082609091E800977F9093E8008093F10084
:104C20001092F1008091E8008E77E0C0882309F4AB
:104C3000CEC0823009F0DEC08091A7028111D1C0C0
:104C40008091A9028F7009F4D5C08093E90020916A
:104C5000EB0020FFC6C0933031F48091EB008062FE
:104C60008093EB00BEC09091EB0090619093EB00BD
:104C700021E030E001C0220F8A95EAF72093EA0094
:104C80001092EA008091EB008860EACF8111B2C0F7
:104C90001091A7021F778091E3008078812B809389
:104CA000E3008091E800877F8093E8000E94DB2387
:104CB0008091E80080FFFCCF8091E30080688093C2
:104CC000E30082E0111183E08093A40293C0805836
:104CD000823008F08FC08091A7029091A8028C3D8D
:104CE00023E09207A1F583E08A838AE289834FB7A4
:104CF000F894DE01139620E03EE051E2E32FF0E06D
:104D000050935700E49120FF03C0E295EF703F5F9E
:104D1000EF708E2F90E0EA30C0F0C7968D939D9390
:104D20002F5F243159F74FBF8091E800877F809330
:104D3000E8006AE270E0CE0101960E94F2228091C2
:104D4000E8008B778093E80055C0C096E7CFAE01AE
:104D50004F5F5F4F6091A9020E943722BC01892BEF
:104D600009F448C08091E800877F8093E80089813A
:104D70009A810E944C23E3CF8038E1F58091E800CE
:104D8000877F8093E8008091A0028093F1004ACF52
:104D9000811130C09091A702923060F58091E800B7
:104DA000877F8093E8009093A0020E94DB2380918C
:104DB000A002882311F084E005C08091E30087FD04
:104DC000FACF81E08093A4020E943B2113C080911E
:104DD000A702813079F481E0933009F080E080937C
:104DE000A2021092E9008091E800877F8093E8009A
:104DF0000E94DB238091E80083FF0AC08091E800D5
:104E0000877F8093E8008091EB0080628093EB00C5
:104E1000AA960FB6F894DEBF0FBECDBFDF91CF913B
:104E20001F9108950895CF938091A4028823A1F043
:104E3000C091E900CF709091EC00892F817090FDB6
:104E400080E8C82B1092E9008091E80083FD0E9461
:104E5000C825CF70C093E900CF9108950E943527EF
:104E60006894B1110C94C42708950E94A92788F072
:104E70009F5798F0B92F9927B751B0F0E1F0660F1E
:104E8000771F881F991F1AF0BA95C9F714C0B1305F
:104E900091F00E94C327B1E008950C94C327672FB7
:104EA000782F8827B85F39F0B93FCCF3869577958E
:104EB0006795B395D9F73EF4909580957095619577
:104EC0007F4F8F4F9F4F0895E89409C097FB3EF4A2
:104ED00090958095709561957F4F8F4F9F4F992347
:104EE000A9F0F92F96E9BB279395F69587957795C5
:104EF0006795B795F111F8CFFAF4BB0F11F460FF85
:104F00001BC06F5F7F4F8F4F9F4F16C0882311F0DC
:104F100096E911C0772321F09EE8872F762F05C0F0
:104F2000662371F096E8862F70E060E02AF09A958B
:104F3000660F771F881FDAF7880F9695879597F980
:104F4000089557FD9058440F551F59F05F3F71F079
:104F50004795880F97FB991F61F09F3F79F08795E0
:104F60000895121613061406551FF2CF4695F1DF69
:104F700008C0161617061806991FF1CF86957105F9
:104F8000610508940895E894BB2766277727CB012D
:104F900097F908950E94DD270C944E280E9440281E
:104FA00038F00E94472820F0952311F00C94372800
:104FB0000C943D2811240C94C4270E94A12770F35F
:104FC000959FC1F3950F50E0551F629FF001729FAE
:104FD000BB27F00DB11D639FAA27F00DB11DAA1FBD
:104FE000649F6627B00DA11D661F829F2227B00D0A
:104FF000A11D621F739FB00DA11D621F839FA00D95
:10500000611D221F749F3327A00D611D231F849FE4
:10501000600D211D822F762F6A2F11249F5750403B
:105020009AF0F1F088234AF0EE0FFF1FBB1F661FB6
:10503000771F881F91505040A9F79E3F510580F07F
:105040000C9437280C94C4275F3FE4F3983ED4F3C4
:10505000869577956795B795F795E7959F5FC1F723
:10506000FE2B880F911D9695879597F9089597F9CE
:105070009F6780E870E060E008959FEF80EC0895FE
:1050800000240A9416161706180609060895002427
:105090000A9412161306140605060895092E0394A1
:1050A000000C11F4882352F0BB0F40F4BF2B11F415
:1050B00060FF04C06F5F7F4F8F4F9F4F089597FB36
:1050C000072E16F4009407D077FD09D00E947C28A3
:1050D00007FC05D03EF4909581959F4F08957095FB
:1050E00061957F4F0895EE0FFF1F0024001C0BBE3B
:1050F0000790F691E02D0994AA1BBB1B51E107C054
:10510000AA1FBB1FA617B70710F0A61BB70B881F57
:10511000991F5A95A9F780959095BC01CD010895E6
:10512000F999FECF92BD81BDF89A992780B508956F
:10513000A8E1B0E042E050E00C94B828262FF9999D
:10514000FECF92BD81BDF89A019700B4021639F0E6
:105150001FBA20BD0FB6F894FA9AF99A0FBE0895B7
:105160000196272F0E949F280C949E28DC01CB01DA
:10517000FC01F999FECF06C0F2BDE1BDF89A319667
:1051800000B40D9241505040B8F70895F894FFCF05
:10519000850A910A950A990A9D0AA10AA50AA90AEF
:1051A000AD0AB10AB50AB90ABD0AC10AC50AC90AD7
:1051B000CD0AD10AA011A011F811F8113C12581211
:1051C000D011D0116312D0112B132B139613D011C1
:1051D000D0119F13F1251626FA261626FA26462602
:0851E0006726FA26BC26C8264A
:1051E8004A022808140A321E4320D320B02079200E
:1051F80046200137606162636465666790919293A7
:1052080094959697C0C130313233343536404D3697
:1052180039B01263122D12F4118711A011B911D2ED
:02522800110073
:00000001FF
