:100000000C94A8050C94F1050C94F1050C94F105E1
:100010000C94F1050C94F1050C94F1050C94F10588
:100020000C94F1050C94F1050C9458200C942F219C
:100030000C9462170C94F1050C94F1050C94F105E5
:100040000C94F1050C94F1050C94F1050C94F10558
:100050000C94F1050C94C3170C94F1050C94F10564
:100060000C94F1050C94F1050C94F1050C94F10538
:100070000C94F1050C94F1050C94F1050C94F10528
:100080000C94F1050C94F1050C94F1050C94F10518
:100090000C94F1050C94F10501E002E001E202E2AA
:1000A000014D024D0029001E001F002000210022EA
:1000B00000230024002500260027002A002B00141E
:1000C000001A000800150017001C0018000C001290
:1000D0000013004C00390004001600070009000A54
:1000E000000B000D000E000F0033003400E1001D76
:1000F000001B000600190005001100100036003733
:100100000038000151E000E300E200003000004A46
:10011000002E0000005000520051004F000000006F
:1001200000000000002C004D002D00280000000001
:1001300000000000003A003B003C003D003E003F54
:1001400000400041004200430044004500010035EA
:100150000001000100010001000100010001000197
:100160000001000100010001000100010001000187
:100170000001000100010001000100010001000177
:100180000001000100010001000100010001000167
:100190000031000100010001000100010000000128
:1001A000002F00000001000100010001000000001C
:1001B000000000000001000100300001000000000C
:1001C0000000000000010001000100010001000129
:1001D0000001000100010001000100010001000117
:1001E0000001000100010001000100010001000107
:1001F00000010001000100010001000100010001F7
:1002000000010001000100010001000100010001E6
:1002100000010001000100010001000100010001D6
:1002200000010001000100010001000100000001C7
:1002300000010000000100010001000100000000B9
:1002400000000000000100010001000100000000AA
:100250000000000000010001000100010001000198
:100260000001000100010001000100010001000186
:100270000001000100010001000100010001000176
:100280000001000100010001000100010001000166
:100290000001000100010001000100010001000156
:1002A0000001000100010001000100010001000146
:1002B0000001000100010001000100010000000137
:1002C0000001000000010001000100010000000029
:1002D000000000000001000100010001000000001A
:1002E0000000000000010001000100010001000108
:1002F00000010001000100010001000100010001F6
:1003000000010001000100010001000100010001E5
:1003100000010001000100010001000100010001D5
:1003200000010001000100010001000100010001C5
:1003300000010001000100010001000100010001B5
:1003400000010001000100010001000100000001A6
:100350000001000000010001000100010000000098
:100360000000000000010001000100010000000089
:100370000000000000010001000100010001000177
:100380000001000100010001000100010001000165
:100390000001000100010001000100010001000155
:1003A0000001000100010001000100010001000145
:1003B0000001000100010001000100010001000135
:1003C0000001000100010001000100010001000125
:1003D0000001000100010001000100010000000116
:1003E0000001000000010001000100010000000008
:1003F00000000000000100010001000100000000F9
:1004000000000000000100010001000100010001E6
:1004100000010001000100010001000100010001D4
:1004200000010001000100010001000100010001C4
:1004300000010001000100010001000100010001B4
:1004400000010001000100010001000100010001A4
:100450000001000100010001000100010001000194
:100460000001000100010001000100010000000185
:100470000001000000010001000100010000000077
:100480000000000000010001000100010000000068
:100490000000000000010001000100010001000156
:1004A0000001000100010001000100010001000144
:1004B0000001000100010001000100010001000134
:1004C0000001000100010001000100010001000124
:1004D0000001000100010001000100010001000114
:1004E0000001000100010001000100010001000104
:1004F00000010001000100010001000100000001F5
:1005000000010000000100010001000100000000E6
:1005100000000000000100010001000100000000D7
:1005200000000000000100010001000100010001C5
:1005300000010001000100010001000100010001B3
:1005400000010001000100010001000100010001A3
:100550000001000100010001000100010001000193
:100560000001000100010001000100010001000183
:100570000001000100010001000100010001000173
:100580000001000100010001000100010000000164
:100590000001000000010001000100010000000056
:1005A0000000000000010001000100010000000047
:1005B0000000000000010001000100010001000135
:1005C0000001000100010001000100010001000123
:1005D0000001000100010001000100010001000113
:1005E0000001000100010001000100010001000103
:1005F00000010001000100010001000100010001F3
:1006000000010001000100010001000100010001E2
:1006100000010001000100010001000100000001D3
:1006200000010000000100010001000100000000C5
:1006300000000000000100010001000100000000B6
:1006400000000000000100010001000100010001A4
:100650000001000100010001000100010001000192
:100660000001000100010001000100010001000182
:100670000001000100010001000100010001000172
:100680000001000100010001000100010001000162
:100690000001000100010001000100010001000152
:1006A0000001000100010001000100010000000143
:1006B0000001000000010001000100010000000035
:1006C0000000000000010001000100010000000026
:1006D0000000000000010001000100010001000114
:1006E0000001000100010001000100010001000102
:1006F00000010001000100010001000100010001F2
:1007000000010001000100010001000100010001E1
:1007100000010001000100010001000100010001D1
:1007200000010001000100010001000100010001C1
:1007300000010001000100010001000100000001B2
:1007400000010000000100010001000100000000A4
:100750000000000000010001000100010000000095
:100760000000000000010001000100010001000183
:100770000001000100010001000100010001000171
:100780000001000100010001000100010001000161
:100790000001000100010001000100010001000151
:1007A0000001000100010001000100010001000141
:1007B0000001000100010001000100010001000131
:1007C0000001000100010001000100010000000122
:1007D0000001000000010001000100010000000014
:1007E0000000000000010001000100010000000005
:1007F00000000000000100010001000100010001F3
:1008000000010001000100010001000100010001E0
:1008100000010001000100010001000100010001D0
:1008200000010001000100010001000100010001C0
:1008300000010001000100010001000100010001B0
:1008400000010001000100010001000100010001A0
:100850000001000100010001000100010000000191
:100860000001000000010001000100010000000083
:100870000000000000010001000100010000000074
:100880000000000000010001000100010001000162
:100890000001000100010001000100010001000150
:1008A0000001000100010001000100010001000140
:1008B0000001000100010001000100010001000130
:1008C0000001000100010001000100010001000120
:1008D0000001000100010001000100010001000110
:1008E0000001000100010001000100010000000101
:1008F00000010000000100010001000100000000F3
:1009000000000000000100010001000100000000E3
:1009100000000000000100010001000100010001D1
:1009200000010001000100010001000100010001BF
:1009300000010001000100010001000100010001AF
:10094000000100010001000100010001000100019F
:10095000000100010001000100010001000100018F
:10096000000100010001000100010001000100017F
:100970000001000100010001000100010000000170
:100980000001000000010001000100010000000062
:100990000000000000010001000100010000000053
:1009A000000000000012036B006500790062006F18
:1009B000006100720064000000160371006D006B9E
:1009C000006200750069006C006400650072000040
:1009D000000403090409026D00040100A0FA0904DF
:1009E0000000010301010009211101000122400062
:1009F0000705810308000A09040100010301020040
:100A0000092111010001224D000705820308000A97
:100A10000904020001030000000921110100012264
:100A200036000705830308000A09040300010300D8
:100A3000000009211101000122390007058403206B
:100A400000011201100100000008EDFE60600100CD
:100A50000102000105010906A101050719E029E7C6
:100A60001500250195087501810205081901290560
:100A7000950575019102950175039101050719000E
:100A800029F71500250195F875018102C0050109B6
:100A900080A10185021601002603001A81002A8325
:100AA00000751095018100C0050C0901A1018503A5
:100AB000160100269C021A01002A9C02751095015D
:100AC0008100C005010902A1010901A10005091960
:100AD000012905150025019505750181029501750E
:100AE0000381010501093009311581257F950275C2
:100AF00008810609381581257F950175088106054D
:100B00000C0A38021581257F950175088106C0C041
:100B100005010906A101050719E029E715002501CE
:100B20009508750181029501750881010508190173
:100B30002905950575019102950175039101050738
:100B4000190029FF150026FF00950675088100C0D1
:100B500011241FBECFEFD0E2DEBFCDBF04B603FE2F
:100B600027C080914D0290914E02A0914F02B0910A
:100B700050028730904BA740B04BD1F410924D02F9
:100B800010924E0210924F021092500214BE84B77F
:100B9000877F84BF0FB6F894A89580916000886124
:100BA00080936000109260000FBEE0E0F8EF0995BE
:100BB00011E0A0E0B1E0E6E4F9E400E00BBF02C020
:100BC00007900D92AA33B107D9F722E0AAE3B1E06A
:100BD00001C01D92AD34B207E1F70E94AB1D0C9429
:100BE00075240C940000FC01611106C082818823E9
:100BF00019F088E990E0089590E080E00895089564
:100C0000089581E00895089581E008950C94010607
:100C10000E94B30F2FEF84E39CE02150804090406E
:100C2000E1F700C000000C94E617EF92FF920F93DB
:100C30001F93CF93DF938C01FC01E080F1808091C2
:100C40007A01811140C082818823C1F1C7010E94CD
:100C50003815C82F682FC7010E94E114B7018C2FE7
:100C60000E944D07EC01B8010E940606882309F492
:100C70004BC0B801CE010E945609882309F444C034
:100C8000C531F0E7DF0720F5C23080E7D80708F06C
:100C90004DC0C115E0E7DE0791F1C130D047E1F169
:100CA00081E080933C0180933D01C801DF91CF91A9
:100CB0001F910F91FF90EF900C940406C7010E94C2
:100CC0000F15C82FCBCFC7010E943815B701C8CF69
:100CD000CC3380E7D80709F49BC0CD33D04701F768
:100CE000F8018281882309F4BAC010923D010E9464
:100CF000921790933B0180933A0180E296C0F801ED
:100D0000828181110E94080680E0DF91CF911F91BE
:100D10000F91FF90EF900895F80182818823A1F34D
:100D200080910D02816080930D02EECFF8018281E7
:100D3000882309F4BACF0E94F316811102C00E94E1
:100D4000D9160E94101790E090933F0280933E02C4
:100D5000FE01E350F04780913E028160E231F105EF
:100D600038F4E958FB4D0C94222480913E028260B5
:100D700080933E0280913E020E9414170E94B30F9E
:100D8000C3CF80913E028460F3CF80913E028860A1
:100D9000EFCF80913E028061EBCF80913E02806276
:100DA000E7CF80913E028064E3CF80913E0280686D
:100DB000DFCF80913E028C60DBCF80913E028E7F40
:100DC000D7CF80913E028D7FD3CF80913E028B7F23
:100DD000CFCF80913E02877FCBCF80913E028F7E26
:100DE000C7CF80913E028F7DC3CF80913E028F7B23
:100DF000BFCF80913E028F77BBCF80913E02837F31
:100E0000B7CF90913E02892F97FB87F98058B0CFDA
:100E1000F8018281882361F010923C010E949217B0
:100E200090933B0180933A0182E00E94180D6CCFB1
:100E300080913C0181110FC080913A0190913B015A
:100E40000E949E17883C910530F486E20E94ED0BCB
:100E500086E20E94C90C82E00E941F0D55CF80914E
:100E60003D0181110FC080913A0190913B010E9498
:100E70009E17883C910530F487E20E94ED0B87E2D3
:100E80000E94C90C80E2E8CF0C94A5090C94A70934
:100E90000C9403060C9448070895972F70E02CE0FB
:100EA000929F600D711D1124FB0198E4899FE00D54
:100EB000F11D1124EE0FFF1FEB55FF4F859194910B
:100EC0000895FC01EE0FFF1FEB55F64F85919491AD
:100ED00008950E944D070E94DA089C01811540E4A4
:100EE000940708F097C0211580E3380708F0FAC08E
:100EF000203E310508F074C0203C310508F0E5C003
:100F0000283A310588F4253A310508F0E2C021304D
:100F1000310509F477C0C9010497813A910508F4B5
:100F200071C030E020E06EC0C901885A9109459730
:100F3000C0F7283A310509F4FEC0293A310509F411
:100F4000FDC02A3A310509F4FCC02B3A310509F4F9
:100F5000FBC02C3A310509F4FAC02B3B310509F4EA
:100F6000F9C02C3B310509F4F8C02D3A310509F4DC
:100F7000F7C0203B310509F4F6C02E3A310509F4DB
:100F8000F5C02F3A310509F4F4C0213B310509F4CD
:100F9000F3C0223B310509F4F2C0233B310509F4CB
:100FA000F1C0243B310509F4F0C0253B310509F4BB
:100FB000EFC0263B310509F4EEC0273B310509F4AB
:100FC000EDC0283B310509F4ECC0293B310509F49B
:100FD000EBC02A3B310509F4EAC020E034E412C03A
:100FE000211590E2390780F42F3F310509F050F4C4
:100FF000283E310538F0C901805F9109306540977E
:1010000008F08FCFC9010895C9019F700E94610740
:101010009C01F8CF8115944508F041C0211583E566
:10102000380708F06AC0211592E5390738F521150F
:1010300041E5340708F05CC0211580E5380708F465
:1010400054C0C90134E0969587953A95E1F78370CD
:10105000422F46954695437090E2499FA001112486
:10106000582B822F837021E030E002C0220F331F03
:101070008A95E2F7242B352B3C68C4CFC9018370D5
:10108000992741E050E002C0440F551F8A95E2F7CE
:101090002695269580E2289F90011124EBCF2115FB
:1010A00096E5390748F4922F882721153545C8F56C
:1010B0009C01246F306AA6CFC90190563F708115FC
:1010C000904108F02ECF30629DCFC901805C91091C
:1010D0009DCF253A310549F1263A310549F522E8F7
:1010E00030E490CF3327306C8DCF3F70306A8ACF99
:1010F000322F2227216F306A85CFC901837099274B
:1011000041E050E002C0440F551F8A95E2F7269552
:10111000269580E2289F90011124242B352B3A68D4
:1011200071CF88279F719C01CECF21E830E46ACF30
:1011300023E830E467CF22EE34E464CF29EE34E4D0
:1011400061CF2AEE34E45ECF25EB34E45BCF26EBAF
:1011500034E458CF23EB34E455CF24EB34E452CFBE
:1011600027EB34E44FCF2CEC34E44CCF2DEC34E4BB
:1011700049CF23E835E446CF2AE835E443CF22E9D6
:1011800035E440CF24E935E43DCF21E236E43ACFDF
:1011900023E236E437CF24E236E434CF25E236E4E6
:1011A00031CF26E236E42ECF27E236E42BCF2AE2F7
:1011B00036E428CF803E910581F1C8F48133910552
:1011C00009F462C048F48932910509F456C08A32A4
:1011D000910509F460C0089589339105B9F082380A
:1011E0009105A1F08533910509F440C00895863E2C
:1011F000910561F138F4823E9105B1F0833E91058D
:10120000E1F00895873E910551F1089520913E0245
:101210002370D9F080EE90E0089520913E0220FFE7
:1012200014C089E390E0089520913E0222FF0DC092
:1012300024FD09C083EE90E0089520913E0222FD36
:1012400031C024FF02C090E080E0089520913E026A
:1012500023FFFBCF24FDF7CF87EE90E00895209188
:101260003E0223FFEECF86EE90E0089520913E02ED
:1012700025FFEBCF89E290E0089520913E0225FF03
:10128000E4CF85E390E0089520913E0226FFDDCF74
:101290008AE290E0089520913E0226FFD6CF81E3B6
:1012A00090E0089582EE90E0089508950F931F93C3
:1012B000CF938C01FB018281811106C0C1E08C2F8C
:1012C000CF911F910F910895C0914B01C11125C07D
:1012D0000531104799F70E94550981E080934B0131
:1012E0000E94921790934A018093490110923E0107
:1012F0001092400110923F01109242011092410160
:10130000109244011092430110924601109245013F
:101310001092480110924701D2CF809149019091DB
:101320004A010E949E17883C910540F680913E013B
:10133000E82FF0E0EE0FFF1FE15CFE4F118300830A
:101340008F5F80933E01C0E0BACF0C94FF050C94F0
:10135000000685B7806885BF85B7806885BFAFE127
:10136000B1E061E070E08D91E82FE295EF70F0E080
:1013700041A18F709B0101C0220F8A95EAF7922F3D
:101380009095942391A382A1822B82A381E0A53220
:10139000B80749F7A3E1B1E061E070E08D91E82F73
:1013A000E295EF70F0E041A18F709B0101C0220F28
:1013B0008A95EAF7922F9095942391A382A1822B8C
:1013C00082A381E0AF31B80749F7E8E5F1E0ACE48A
:1013D000B1E084E691E0119211921D921D928E1758
:1013E0009F07C9F70C9444072F923F924F925F9248
:1013F0006F927F928F929F92AF92BF92CF92DF9225
:10140000EF92FF920F931F93CF93DF930CE411E0C1
:101410008FE1C82E81E0D82E1801EE24E394F12C40
:1014200066246394D1018D909D901D011E921E92A1
:10143000E60189916E01E82FE295EF70F0E091A14D
:101440008F70970101C0220F8A95EAF7892F822BAE
:1014500081A382A1722E7094872182A3D0EADA95AB
:10146000F1F763E171E090E080E0EB015990BE019B
:10147000452D42954F7050E0EA0148A0AD90BC90D8
:101480001197552D5F70E70102C0CC0FDD1F5A95F3
:10149000E2F7AE01442109F059C0A701082E02C0AD
:1014A000440F551F0A94E2F74A295B2911965C9371
:1014B0004E9301968C309105C1F681A1782271A2DC
:1014C00082A1282B22A38D919C918816990641F028
:1014D000609264010E949217909366018093650167
:1014E000D8E52D16D1E03D0609F09CCF809164012E
:1014F0008823B1F080916501909166010E949E174A
:10150000069770F0E8E5F1E0D8018D919D918D018D
:1015100081939193B1E008351B07B1F710926401F4
:101520000E94460781E0DF91CF911F910F91FF90BC
:10153000EF90DF90CF90BF90AF909F908F907F9073
:101540006F905F904F903F902F90089550E040E053
:10155000ABCFE82FF0E0EE0FFF1FE85AFE4F80817F
:1015600091810895089590936C0180936B01089583
:10157000E0916B01F0916C01309721F00190F081C6
:10158000E02D099480E00895E0916B01F0916C01E9
:10159000309721F00280F381E02D09940895E091C5
:1015A0006B01F0916C01309721F00480F581E02D02
:1015B000099408952091690130916A01281739072B
:1015C00071F090936A0180936901E0916B01F09151
:1015D0006C01309721F00680F781E02D0994089581
:1015E00020916701309168012817390771F09093B5
:1015F000680180936701E0916B01F0916C01309775
:1016000021F00084F185E02D0994089508950C944B
:10161000060B0E9489170E94A9090C9453185F9227
:101620006F927F928F929F92AF92BF92CF92DF92F2
:10163000EF92FF920F931F93CF93DF9300D000D0D0
:101640000F92CDB7DEB70E94F4099EE6A92E91E075
:10165000B92E10E000E088248394912C502E802F26
:101660000E94A90A7C01F501C190D1905F01C816C2
:10167000D90609F45DC080910D0281FD0E94B20A75
:1016800090E080E0CE24DF243401082E02C0660CF6
:10169000771C0A94E2F7960126213721232B09F4BF
:1016A00042C089835A82E620F72081E0EF2809F4BE
:1016B00080E08B830E9492178160782F9D838C83BA
:1016C00049815A816B818D810E94C40B000F111FCB
:1016D000F801E259FE4F8081918168267926718256
:1016E00060820E94001B0E94B80A90916D018917C8
:1016F000B1F10E94B80A80936D010F900F900F9086
:101700000F900F90DF91CF911F910F91FF90EF906D
:10171000DF90CF90BF90AF909F908F907F906F9011
:101720005F900C944A0701968C30910509F0ACCF7C
:101730000F5F1F4F0630110509F090CF8FEF89839F
:101740008A831B820E9492178160782F9D838C83ED
:1017500049815A816B818D810E94C40BC2CF0F9049
:101760000F900F900F900F90DF91CF911F910F91DD
:10177000FF90EF90DF90CF90BF90AF909F908F90B1
:101780007F906F905F900895CF93DF93CDB7DEB7D2
:101790002B970FB6F894DEBF0FBECDBF4F8358878F
:1017A00069877A878B871E8285E0FE013796DE0186
:1017B000119601900D928A95E1F749815A816B81CA
:1017C0007C818D819E812B960FB6F894DEBF0FBE73
:1017D000CDBFDF91CF910C943B12882309F4D8C080
:1017E000823871F40E94B80A81FDD2C089E30E9458
:1017F000E0150E94AA1689E30E941D160C94AA16F1
:10180000833859F40E94B80A80FDC2C083E50E9463
:10181000E0150E94AA1683E5EFCF843859F40E94A0
:10182000B80A82FDB5C087E40E94E0150E94AA169E
:1018300087E4E2CF9CEF980F913A18F40E94E015EC
:10184000DDCF90E2980F983050F4877091E001C09E
:10185000990F8A95EAF7892F0E946116CFCF9BE5F1
:10186000980F933070F4853A31F0863A39F083E876
:1018700090E00C94DA0A81E890E0FBCF82E890E0F7
:10188000F8CF98E5980F953108F082C0883A09F4AE
:1018900040C0893A09F440C08A3A09F440C08B3A02
:1018A00009F440C08C3A09F440C08B3B09F440C0B5
:1018B0008C3B09F440C08D3A09F440C0803B09F4E8
:1018C00040C08E3A09F440C08F3A09F440C0813BD1
:1018D00009F440C0823B09F440C0833B09F440C096
:1018E000843B09F440C0853B09F440C0863B09F4C1
:1018F00040C0873B09F440C0883B09F440C0893BA5
:1019000009F440C08A3B09F440C090E080E00C94A8
:10191000F00A82EE90E0FBCF89EE90E0F8CF8AEEFD
:1019200090E0F5CF85EB90E0F2CF86EB90E0EFCF43
:1019300083EB90E0ECCF84EB90E0E9CF87EB90E095
:10194000E6CF8CEC90E0E3CF8DEC90E0E0CF83E845
:1019500091E0DDCF8AE891E0DACF82E991E0D7CF5C
:1019600084E991E0D4CF81E292E0D1CF83E292E0AA
:10197000CECF84E292E0CBCF85E292E0C8CF86E280
:1019800092E0C5CF87E292E0C2CF8AE292E0BFCF79
:101990000895882309F44BC0823871F40E94B80A74
:1019A00081FF45C089E30E94E0150E94AA1689E3E1
:1019B0000E941D160C94AA16833859F40E94B80A86
:1019C00080FF35C083E50E94E0150E94AA1683E5DA
:1019D000EFCF843859F40E94B80A82FF28C087E408
:1019E0000E94E0150E94AA1687E4E2CF9CEF980FB0
:1019F000913AF0F290E2980F983050F4877091E0AD
:101A000001C0990F8A95EAF7892F0E946716D2CFF5
:101A10009BE5980F933020F490E080E00C94DA0A74
:101A2000885A853120F490E080E00C94F00A089503
:101A3000882321F00E9461160C94AA160895882329
:101A400021F00E9467160C94AA1608958F929F9217
:101A5000AF92BF92DF92EF92FF920F931F93CF93BB
:101A6000DF9300D000D00F92CDB7DEB77C016D833D
:101A70007983FC01058102950F70128111110E947A
:101A800080160E94D915D82E882371F01123A1F059
:101A90008D81805E883080F082E00E94C3150E94B4
:101AA000D91591E0D82ED926E981E295EF70F0E0C2
:101AB000E757FB4D0C942224D12CF6CF09810F70EF
:101AC000F981F07F11F00295007F1123B1F000231E
:101AD00061F08D81805E883018F02D81211109C060
:101AE000802F0E9461160E94AA168D810E94ED0B24
:101AF00015C0802F0E947216F6CF8D810E94C90CEE
:101B0000002361F08D81805E883018F03D813111B5
:101B100029C0802F0E9467160E94AA16DD2009F4B2
:101B2000D3C10E94B61580FDCFC1F70112820E9479
:101B3000B0150E94F913C7010E94750F0E94B015DD
:101B40000F900F900F900F900F90DF91CF911F91FA
:101B50000F91FF90EF90DF90BF90AF909F908F908C
:101B60000C941B14802F0E947816D6CF49814F7099
:101B7000B42E5981507F503219F0B29480EFB822C0
:101B80008D81882369F0813029F1112369F10023C7
:101B900059F0F701858180FFA8CF8F70858304C03D
:101BA000112361F0011104C08B2D0E94180DB6CFD6
:101BB0008B2D0130D1F70E949416B0CF011106C0D1
:101BC0000E9497168B2D0E941F0DA8CF013009F49B
:101BD000A5CFF6CF112321F0063008F09FCFE4CF38
:101BE000053008F09BCFEECF002361F38D810E947A
:101BF000C90C94CF898186958695837069F0813070
:101C000009F08CCF8D8199819370111102C090E001
:101C100080E00E94F00A82CF8D819981937011112A
:101C200002C090E080E00E94DA0A78CF8D81112313
:101C300029F00E940E1A0E94F51A70CF0E94761A9F
:101C4000FACF8981837009F05FC0111167CF2D81B0
:101C5000229526952770220F220F8D818F7090E09C
:101C6000B0E0A0E04C015D01022E04C0880C991C7C
:101C7000AA1CBB1C0A94D2F7FD8160E070E0CB0186
:101C8000F4FF0FC06FE070E080E090E004C0660FEA
:101C9000771F881F991F2A95D2F7609570958095B8
:101CA000909529812695269523702D832230B1F0B9
:101CB000233019F19B01AC01282939294A295B29D4
:101CC00029833A834B835C833D8169817A818B814F
:101CD0009C813130B1F00E94861320CF9B01AC0172
:101CE000282939294A295B2929833A834B835C8334
:101CF000CA01B9010E94B01311CF0E948613C50119
:101D0000B4010E945C130ACF8695112311F08981DA
:101D10008170882309F402CF2D81229526952770A2
:101D2000220F220F8D818F7090E0B0E0A0E04C0177
:101D30005D01022E04C0880C991CAA1CBB1C0A94CD
:101D4000D2F73D8160E070E0CB0134FF0FC06FE05F
:101D500070E080E090E004C0660F771F881F991F35
:101D60002A95D2F760957095809590954981469512
:101D7000469543704D834230B1F0433019F19B01D9
:101D8000AC01282939294A295B2929833A834B83C5
:101D90005C833D8169817A818B819C813130B1F096
:101DA0000E948C14BBCE9B01AC01282939294A29F9
:101DB0005B2929833A834B835C83CA01B9010E9462
:101DC000B614ACCE0E948C14C501B4010E946214FA
:101DD000A5CE3D81323F09F447C080F4303F79F110
:101DE000313FD9F1832F805E8031D0F0112309F487
:101DF00056C001117ACE89818F7133C04D81433F26
:101E0000D1F1443F99F7112309F43FC089818F71C3
:101E100089830E94F91363E089810E94BA157ECEFE
:101E20005D815F705D8389818F71112321F00E9434
:101E3000F9138D81BACE0E941B148D81C4CE11235B
:101E400041F0053008F06ACE89818F710E944014FC
:101E500065CE063008F062CEF7CF89818F711123ED
:101E600039F00E94F9135ACE89818F711123C9F379
:101E70000E941B1453CE112329F089818F710E9477
:101E8000E4134CCE0E94DA1349CE81E00E94C315C0
:101E9000023008F443CE82E00E94C3153FCE011108
:101EA000A5CE89818F71E4CF49814F706D81C701C3
:101EB0000E94F3050E94D51231CE49814F706D8189
:101EC000C7010E944C072ACE0F900F900F900F90E1
:101ED0000F90DF91CF911F910F91FF90EF90DF90C6
:101EE000BF90AF909F908F9008950F931F93CF93C3
:101EF000DF93EC018B819C81892B29F0888199816A
:101F000089238F3F29F4DF91CF911F910F9108957D
:101F1000CE010E9415068823B1F3688179818A81F8
:101F20000E9486158C010E94E0140E945113B80192
:101F3000CE01DF91CF911F910F910C94260D0E943D
:101F400080160E9491160E9453160E94AA160E94A3
:101F5000E61B0E94F51A90E080E00E94DA0A90E009
:101F600080E00C94F00A0E946F160C949F0F0E9460
:101F70007A15282F892F82958F70903C80F48A30B3
:101F8000B0F4843020F4823090F480E008958630FC
:101F9000E1F781E0203E88F0213FB9F70EC08C3098
:101FA00011F08F3091F793FB882780F9089581E035
:101FB000203F39F018F4203E40F70895243F29F7D8
:101FC000FCCF0895CF93DF9300D000D00F92CDB710
:101FD000DEB70F900F900F900F900F90DF91CF9181
:101FE0000895CF93DF9300D000D000D0CDB7DEB7F7
:101FF00026960FB6F894DEBF0FBECDBFDF91CF910E
:1020000008951F93CF93DF93E0917B0116E08091B9
:102010007C018E1304C0DF91CF911F910895CE2FC4
:10202000D0E01E9FF0011124E358FE4F4081518102
:1020300062817381848195810E94F10FFE01319646
:10204000E770E5CF4091AD015091AE016091AF01D5
:102050007091B0018091B1019091B2010C94F10F97
:102060001F93CF93DF938091B201807FC1F4809161
:10207000AF018823A1F080917B01C0917C01609128
:10208000AD017091AE014091B0015091B101D62FD8
:10209000D723DA01A095B09516E0C81304C0DF91EC
:1020A000CF911F91089590E04115510511F0DF3F48
:1020B00031F401968770F1CF2A0F3B1F17C0189F8C
:1020C000F001199FF00D1124E358FE4F21812713D1
:1020D000F0CF20812613EDCF22812111EACF238179
:1020E00034812417350740F3241B350B283C310578
:1020F00000F72091B2012F7020612093B20126E0F9
:10210000289FF001299FF00D1124EE57FE4F80818A
:102110008F70806180838DEA91E00E94750FDF915E
:10212000CF911F910C9401109F92AF92BF92CF92CA
:10213000DF92EF92FF920F931F93CF93DF93CDB770
:10214000DEB72B970FB6F894DEBF0FBECDBF8C0164
:1021500085E0F801DE01179601900D928A95E1F76E
:10216000D8014C9111965C9111971296EC901297B0
:102170008091B0019091B101009709F46BC1209159
:10218000AD013091AE01632F62236F3F09F462C14C
:102190001396CD90DC909090AF01992009F4F8C08F
:1021A000C816D90608F43FC0F601E81BF90BCF01A9
:1021B000FF24F394883C910508F0F12C8DEAA82EB9
:1021C00081E0B82E8091B201982F907FFF2009F412
:1021D000B7C0911180C0FE2C35132AC0241328C02B
:1021E000E11026C08F7080618093B2010E9422109E
:1021F000C5010E94750F8091B201D80115968C938C
:102200008F2D2B960FB6F894DEBF0FBECDBFDF919A
:10221000CF911F910F91FF90EF90DF90CF90BF90E3
:10222000AF909F900895809590958C0D9D1DC0CF87
:10223000CD2829F0842F85238F3F09F019C180E034
:10224000B82FB170DB2EE0917B0120917C0136E04C
:1022500080FD1CC0EE20A1F28091B20181608093CC
:10226000B201F12CCDCF8E2F90E03E9FF0011124D2
:10227000E358FE4F6181651306C06081641303C09B
:1022800062816E11E7CFFC013196E770E213EBCF6C
:102290004F8358878F8198850E947A15292F229520
:1022A0002F70903260F0225F2F70223078F49F7090
:1022B00051F0F8019581907F31F4D12C0AC09F70C4
:1022C00011F08823D1F3805E8830B8F3C8010E94F2
:1022D000750FFD2C95CF351306C0241304C0D8010B
:1022E000EE2009F47BC04F8358878F8198850E9428
:1022F000B70F882309F4B8C0EE2009F4B5C0809167
:10230000B201803270F02091AD013091AE013A837C
:1023100029831B82DD82CC828E83CE0101960E94AE
:10232000750F86E0F801ADEAB1E001900D928A9553
:10233000E1F70E9430100E942210FF24F39460CF36
:10234000911113C07C2DDB86CA866E2D8B850E9471
:10235000E20F8DEA91E00E94750F86E0F50111927F
:102360008A95E9F70E9422104BCF3513BCCF241376
:10237000BACFE110B8CFD80115968C93C8010E944E
:10238000750F86E0F50111928A95E9F7F92C38CF9F
:10239000C816D90688F1B601681B790BCB01F12C60
:1023A000883C910508F047C0FE2CEE2009F45CC083
:1023B000351330C024132EC08091B20180FD21C09E
:1023C000982F907FF1F0D80115968C931597903F38
:1023D00039F0982F907F905F8F70892B15968C9392
:1023E000C8010E94750F86E0F801ADEAB1E00190E6
:1023F0000D928A95E1F7B6CF809590958C0D9D1D35
:10240000CECF86E0F801ADEAB1E001900D928A9559
:10241000E1F7F6CE4F8358878F8198850E94B70FDA
:1024200081117FCF8091B20181608093B201C80198
:102430000E94750FE5CE7C2DDB86CA866E2D8B85BE
:102440000E94E20F86E0EDEAF1E0DF011D928A953D
:10245000E9F788CFEE2041F04F8358878F81988528
:102460000E94B70F81115DCFC8010E94750F65CF23
:1024700081E08E25E5CE1F93CF93DF93CDB7DEB7F6
:102480002C970FB6F894DEBF0FBECDBF4F83588791
:1024900069877A878B879C87CE0107960E94941064
:1024A000882369F08A859B85892B39F04F8158856F
:1024B000842F85238F3F09F071C016E05FC086E04E
:1024C000FE013796DE01119601900D928A95E1F793
:1024D0008A859B85892B89F388859F8189238F3FF6
:1024E00061F320917C0130E0C90101968770992742
:1024F00040917B014817190671F40E94B30F1092A6
:102500007C0110927B0186E0EDEAF1E0DF011D9293
:102510008A95E9F7D2CF96E0929FD001939FB00DB4
:102520001124A358BE4FFE01319601900D929A9549
:10253000E1F780937C010E940110BFCF819FC00111
:10254000112483589E4F0E9494108823E9F0E09153
:102550007B011E9FF0011124E358FE4F4081518101
:1025600062817381848195810E94F10F80917B014A
:1025700090E001968770992780937B0180917B0181
:1025800090917C018913DACF2C960FB6F894DEBFB8
:102590000FBECDBFDF91CF911F91089569857A85D8
:1025A0008B859C850E94F10F88CFEF92FF920F934D
:1025B0001F93CF93DF938C01892B89F0F12CEE24AC
:1025C000E394E8012196F8018491843709F457C017
:1025D000A0F4823009F43EC048F48130D1F0DF919C
:1025E000CF911F910F91FF90EF9008959CEF980F5E
:1025F0009037A8F70E94ED0B0AC0853709F44CC04C
:102600009CE7980F903758F78F770E94C90C8E017E
:1026100016C00E5F1F4FFE01849190E2980F983014
:1026200060F48770FE2D01C0FF0F8A95EAF78F2FA7
:102630000E9483160E94AA1602C00E94ED0B8F2DE5
:10264000815008F4BECFEFE9FFE03197F1F700C009
:102650000000F6CF0E5F1F4FFE01849190E2980FAD
:10266000983050F48770FE2D01C0FF0F8A95EAF76D
:102670008F2F0E948916DECF0E94C90CE0CF0E5F1B
:102680001F4FFE01C491C150D0F28FE99FE0019726
:10269000F1F700C00000F7CF0E5F1F4FFE01F4906E
:1026A000CECF08956093E4017093E5018093E60135
:1026B0009093E7010C949F0FCF93DF9300D000D04D
:1026C000CDB7DEB769837A838B839C838091E401E5
:1026D0009091E501A091E601B091E70129813A814D
:1026E0004B815C81822B932BA42BB52B8093E4012F
:1026F0009093E501A093E601B093E7010F900F904E
:102700000F900F90DF91CF910C949F0FCF93DF9399
:1027100000D000D0CDB7DEB769837A838B839C83EA
:102720008091E4019091E501A091E601B091E7016B
:1027300029813A814B815C8182239323A423B52391
:102740008093E4019093E501A093E601B093E70143
:102750000F900F900F900F90DF91CF910C949F0FDF
:10276000CF93DF9300D000D0CDB7DEB769837A83F3
:102770008B839C838091E4019091E501A091E60117
:10278000B091E70129813A814B815C8182279327AF
:10279000A427B5278093E4019093E501A093E60177
:1027A000B093E7010F900F900F900F90DF91CF91B2
:1027B0000C949F0F1092E0011092E1011092E2013F
:1027C0001092E3010C949F0F41E050E060E070E054
:1027D00004C0440F551F661F771F8A95D2F7409398
:1027E000E0015093E1016093E2017093E3010C94E6
:1027F0009F0F282F81E090E0A0E0B0E004C0880F98
:10280000991FAA1FBB1F2A95D2F74091E001509152
:10281000E1016091E2017091E301842B952BA62BDD
:10282000B72B8093E0019093E101A093E201B09374
:10283000E3010C949F0F41E050E060E070E004C0C1
:10284000440F551F661F771F8A95D2F74095509504
:10285000609570958091E0019091E101A091E20175
:10286000B091E30184239523A623B7238093E0014D
:102870009093E101A093E201B093E3010C949F0FC8
:10288000282F81E090E0A0E0B0E004C0880F991FFD
:10289000AA1FBB1F2A95D2F74091E0015091E10198
:1028A0006091E2017091E30184279527A627B7275D
:1028B0008093E0019093E101A093E201B093E301E2
:1028C0000C949F0FCF93DF9300D000D0CDB7DEB72D
:1028D00069837A838B839C838091E0019091E101ED
:1028E000A091E201B091E30129813A814B815C81A1
:1028F000822B932BA42BB52B8093E0019093E101C5
:10290000A093E201B093E3010F900F900F900F900E
:10291000DF91CF910C949F0FCF93DF9300D000D025
:10292000CDB7DEB769837A838B839C838091E00186
:102930009091E101A091E201B091E30129813A81F6
:102940004B815C8182239323A423B5238093E001F0
:102950009093E101A093E201B093E3010F900F90F7
:102960000F900F90DF91CF910C949F0FCF93DF9337
:1029700000D000D0CDB7DEB769837A838B839C8388
:102980008091E0019091E101A091E201B091E30119
:1029900029813A814B815C8182279327A427B5271F
:1029A0008093E0019093E101A093E201B093E301F1
:1029B0000F900F900F900F90DF91CF910C949F0F7D
:1029C0000895E82F2CE0929FE00D11248E2F877040
:1029D00041E001C0440F8A95EAF7E695E695E69551
:1029E00085E0E89FF0011124ED54FE4F30E020E037
:1029F00070E05191DF011197CB01022E02C0969534
:102A000087950A94E2F7817081958527842385272D
:102A10008C932F5F3F4F2530310559F70895E82FEC
:102A20002CE0929FE00D11249E2F9770E695E6957D
:102A3000E69585E0E89FF0011124ED54FE4F50E04B
:102A400040E080E0219130E0092E02C036952795C4
:102A50000A94E2F721703327042E01C0220F0A9452
:102A6000EAF7822B4F5F5F4F4530510559F70895C4
:102A7000BF92CF92DF92EF92FF920F931F93CF936B
:102A8000DF938C01C090E001D090E101E090E20181
:102A9000F090E3018091E4019091E501A091E601BD
:102AA000B091E701C82AD92AEA2AFB2ACFE1D0E06F
:102AB000BC2ED701C6010C2E04C0B695A7959795DC
:102AC00087950A94D2F780FD0EC0219788F7B12C24
:102AD0008B2DDF91CF911F910F91FF90EF90DF90A1
:102AE000CF90BF900895B8018C2F0E94690701977D
:102AF00061F3EECFCF93DF93D82FC92F0E94381503
:102B00006D2F7C2FDF91CF910C9469071F93CF938A
:102B1000DF93162FD72F90917A01992339F0862FC2
:102B2000972FDF91CF911F910C947A15882391F004
:102B3000862F972F0E943815C82F682F812F9D2F21
:102B40000E94E114612F7D2F8C2FDF91CF911F9177
:102B50000C946907862F972F0E940F15C82FF2CF6C
:102B60008091E80185958595859508958091E80186
:102B70008770089598E0899F90011124622B6093DB
:102B8000E8010C94F9139091E801809589238093D2
:102B9000E801282F277061F4282F082E000C330B32
:102BA0009217130629F08595859585950C941B142D
:102BB00008959091E801977081E009F480E008950C
:102BC000909112019923E1F090913E0297FF18C075
:102BD000E82FE695E695E695EF3139F12091000171
:102BE00030910101E20FF32FF11D877021E030E0F9
:102BF00001C0220F8A95EAF78181822B8183089593
:102C00002091000130910101F90132969FEF40E0DF
:102C10005191851751F09F3F19F4511101C0942F24
:102C20004F5F4E31A9F79F3F09F40895290F311DD9
:102C300097FD3A95F90182830895909112019923A5
:102C400001F190913E0297FF1CC0E82FE695E695B2
:102C5000E695EF3139F12091000130910101E20F49
:102C6000F32FF11D877021E030E0A90102C0440F6D
:102C7000551F8A95E2F7CA01809591818923818346
:102C800008952091000130910101F9013296205EF2
:102C90003F4F9191891303C0DF0111971C92E217F6
:102CA000F307B9F7089581E090E0E0910001F09119
:102CB0000101E80FF91F1082019680329105A9F7F2
:102CC000089590910C02982B90930C020895982FE0
:102CD000909580910C02892380930C0208951092A4
:102CE0000C02089590910B02982B90930B0208957B
:102CF000982F909580910B02892380930B02089561
:102D000010920B02089590910A02982B90930A0258
:102D10000895982F909580910A02892380930A0242
:102D2000089510920A0208958093E901089510927F
:102D3000E90108952091000130910101F9013196D6
:102D4000205E3F4F80E0919191118F5FE217F30772
:102D5000D1F70895E0910001F091010180910C02FA
:102D60008083E0910001F0910101808190910B023C
:102D7000892B8083E0910001F09101018081909185
:102D80000A02892B80839091E901992361F0E091F7
:102D90000001F09101018081892B80830E949A16A5
:102DA00081111092E90180910001909101010C9430
:102DB000C40A6DEE7EEF90E080E00E945F2460E048
:102DC00082E090E00E944D2460E083E090E00E9469
:102DD0004D2460E084E090E00E944D2460E085E0B6
:102DE00090E00C944D2490E080E00E9447249C01E8
:102DF00081E02D3E3E4F09F080E0089582E090E0B2
:102E00000C943F24682F82E090E00C944D2483E0E2
:102E100090E00C943F24682F83E090E00C944D24C4
:102E200084E090E00C943F24682F84E090E00C94C0
:102E30004D2480914402843039F110920E0288E1D1
:102E400090E020E40FB6F894A895809360000FBE40
:102E50002093600080E00E944A0783B7817F8460EE
:102E600083BF83B7816083BF7894889583B78E7F53
:102E700083BF0FB6F894A895809160008861809315
:102E80006000109260000FBE089508950895CF93DA
:102E90000E9445170E94F4090E944617C0E08C2F3B
:102EA0000E94A90A892B31F4CF5FC630C1F780E0B8
:102EB000CF91089581E0FCCF0E94B30F0E94B80A21
:102EC0000C944A071F921FB61F9211248F939F9351
:102ED000AF93BF9380910E02811113C080913A028B
:102EE00090913B02A0913C02B0913D024196A11D00
:102EF000B11D80933A0290933B02A0933C02B093A1
:102F00003D02BF91AF919F918F911F901FBE1F9067
:102F1000189582E084BD93E095BD9AEF97BD8093AC
:102F20006E0008952FB7F89480913A0290913B0279
:102F3000A0913C02B0913D022FBF0895CF92DF9245
:102F4000EF92FF929C014FB7F89480913A029091D2
:102F50003B02A0913C02B0913D024FBF6C017D014C
:102F6000EE24FF24A90170E060E0C416D506E60651
:102F7000F70638F0821B930BFF90EF90DF90CF9015
:102F800008950197F7CF1F921FB61F9211248F93B8
:102F90009F93AF93BF9380913A0290913B02A0918F
:102FA0003C02B0913D020196A11DB11D80933A02F1
:102FB00090933B02A0933C02B0933D02BF91AF912E
:102FC0009F918F911F901FBE1F9018950E94DA1F2E
:102FD000F8942FEF87EA91E6215080409040E1F786
:102FE00000C0000087E090EBDC0180934D029093DD
:102FF0004E02A0934F02B093500288E19CE00FB6BE
:10300000F894A895809360000FBE90936000FFCF66
:10301000AF92BF92CF92DF92EF92FF920F931F93E6
:10302000CF93C0E0AA24A394B12CE82EF12C8C2FCE
:103030000E94A90A6C0110E000E0C501002E02C048
:10304000880F991F0A94E2F78C219D21892B99F012
:10305000602F7C2F80E00E944D07E816F90659F496
:1030600081E0CF911F910F91FF90EF90DF90CF9073
:10307000BF90AF9008950F5F1F4F0C301105E9F618
:10308000CF5FC630A1F680E0ECCFCF93C82F8CE2A3
:103090000E940818882321F08C2FCF910C940818D7
:1030A00080E0CF910895CF93DF9300D000D0CDB7CB
:1030B000DEB70E94F316811102C00E94D91695E670
:1030C000998308C00E94F4098FE39CE90197F1F706
:1030D00000C00000A981A150A983A111F3CF89E20A
:1030E0000E944518811110C18AE20E944518811181
:1030F0000E94D91685E00E94451881110E94E617AA
:103100000E94FE1680930D0287E00E9445188823D6
:1031100071F08BE10E944518882309F4D1C0909189
:103120000D02892F8D7F91FF826080930D02809127
:103130000D020E9402170E94101790E090933F0228
:1031400080933E0280EE0E944518882341F09091C2
:103150003E02892F8E7F90FF816080933E0289E33B
:103160000E944518882341F090913E02892F8D7F5F
:1031700091FF826080933E0282EE0E944518882370
:1031800041F090913E02892F8B7F92FF8460809363
:103190003E0286EE0E944518882341F090913E023F
:1031A000892F877F93FF886080933E0283EE0E9481
:1031B0004518882341F090913E02892F8F7E94FF1D
:1031C000806180933E0285E30E944518882341F088
:1031D00090913E02892F8F7D95FF806280933E0201
:1031E00081E30E944518882341F090913E02892F87
:1031F0008F7B96FF806480933E0281E10E94451898
:10320000882341F090913E02892F97FB87F98058DF
:1032100080933E0280913E020E94141787E20E9432
:10322000451889838EE10E944518882319F0B981D9
:10323000B260B9838FE10E944518882319F0298173
:103240002460298380E20E944518882319F039817F
:103250003860398381E20E944518882319F049813A
:103260004061498382E20E944518882319F0598100
:103270005062598383E20E944518882319F089819E
:103280008064898384E20E9445188823B1F1998182
:103290009068998389810E940B173981232F30E030
:1032A00050E040E029833A834B835C83CA01B90133
:1032B0000F900F900F900F90DF91CF910C945213BD
:1032C0008EE00E944518882339F090910D02892FD5
:1032D0008B7F92FF846029CF80E10E9445189091F6
:1032E0000D02882329F0892F877F93FF88601DCFE7
:1032F000892F8E7F90FF816018CFA981A111CACF3D
:103300000E940717282FCBCF0F900F900F900F9090
:10331000DF91CF9108958091110280FF12C06091DA
:10332000050185E0689FB001112475956795759535
:10333000679560387105A8F561157105A1F1862FB3
:10334000089581FF09C06091050185E0689FB00183
:10335000112475956795EDCF6091050182FD0AC036
:10336000809112028823D1F09091040160910501AF
:10337000891728F085E0689FB0011124DACF869F75
:10338000B001112485E0869F9001879F300D1124A4
:10339000692F70E0C9010E940E24CBCF65E070E078
:1033A000CECF8FE7089581E008958091110280FFCC
:1033B0000CC06091030170E07595679575956795F0
:1033C0006115710549F1862F089581FF06C060914E
:1033D000030170E075956795F3CF6091030182FD5D
:1033E0000BC0909112029923A1F06091020180918B
:1033F0000301961738F0682F70E06038710500F30C
:103400008FE70895899FC001112470E00E940E2467
:10341000F4CF61E070E0D7CF81E00895803F31F4D0
:103420000E948B198195809315020895813F19F4AC
:103430000E948B19F8CF823F31F40E948B1981953D
:10344000809314020895833F19F40E948B19F8CFDA
:10345000893F29F40E94D5198093160208958A3F66
:1034600021F40E94D5198195F7CF8B3F31F40E944A
:10347000D51981958093170208958C3F19F40E9405
:10348000D519F8CF843F31F4809113028160809385
:1034900013020895853F21F4809113028260F7CFD3
:1034A000863F21F4809113028460F1CF873F21F49D
:1034B000809113028860EBCF883F21F48091130242
:1034C0008061E5CF8D3F31F480911102816080935E
:1034D000110208958E3F21F4809111028260F7CF8E
:1034E0008F3FB9F7809111028460F1CF909114025F
:1034F000803F41F48091150287FD109215029923B7
:1035000071F00895813F29F4809115021816ACF3EB
:10351000F6CF823F81F497FFF2CF10921402809190
:10352000150290911602892B90911702892B49F769
:10353000109212020895833F19F4191674F3DFCF25
:10354000893F39F4809116021816CCF610921602B3
:10355000D6CF8A3F29F48091160287FFD0CFF6CFCD
:103560008B3F39F48091170287FFC9CF1092170261
:10357000C6CF8C3F29F4809117021816BCF3BFCF39
:10358000843F31F4809113028E7F80931302B7CF72
:10359000853F21F4809113028D7FF7CF863F21F480
:1035A000809113028B7FF1CF873F21F4809113022A
:1035B000877FEBCF883F21F4809113028F7EE5CF88
:1035C0008D3F31F4809111028E7F8093110297CF4D
:1035D0008E3F21F4809111028D7FF7CF8F3F09F04C
:1035E0008ECF809111028B7FF0CF83E192E00E9419
:1035F000CF0A0E9492179093100280930F020895B1
:103600001F93CF93DF9300D000D000D0CDB7DEB7AB
:1036100080910F02909110020E949E17AC01809140
:1036200012022091060130E0811106C020910701AD
:103630009AE0299F900111244217530788F02091A6
:103640001402A0911502A98310911602B0911702DD
:10365000BE8321110FC09A2F912B9B2B09F0B2C072
:1036600026960FB6F894DEBF0FBECDBFDF91CF9187
:103670001F9108958F3F19F08F5F809312021216E9
:1036800024F40E948B19809314028091140287FF06
:1036900005C00E948B19819580931402298112160E
:1036A00024F40E948B19809315028091150287FFE4
:1036B00005C00E948B198195809315028091140298
:1036C000882309F455C0309115023D83332309F452
:1036D0004FC0282F880F330B440B550B29833A8397
:1036E0004B835C83CA01B9010E94152323E333E3B2
:1036F00043E35FE369837A838B839C8369817A8167
:103700008B819C810E94792369837A838B839C833C
:1037100069817A818B819C810E94DD2260931402F1
:103720008D81082E000C990BAA0BBB0B89839A8301
:10373000AB83BC83BC01CD010E94152323E333E39B
:1037400043E35FE369837A838B839C8369817A8116
:103750008B819C810E94792369837A838B839C83EC
:1037600069817A818B819C810E94DD2260931502A0
:10377000111624F40E94D519809316028091160226
:1037800087FF05C00E94D5198195809316029E81FE
:10379000191624F40E94D5198093170280911702FC
:1037A00087FF05C00E94D519819580931702269640
:1037B0000FB6F894DEBF0FBECDBFDF91CF911F9142
:1037C0000C94F51A8F3F09F057CF68CF85E0E3E1FD
:1037D000F2E0DF011D928A95E9F710921202109231
:1037E00011020895809138020895CF93DF9300D09D
:1037F0000F92CDB7DEB720914402243019F523E0B3
:1038000029838A839B832093E9008FEF9091E800BE
:10381000815095FD06C095ED9A95F1F70000811154
:10382000F5CF8091E80085FF0DC050E040E063E0F7
:1038300070E0CE0101960E94521E8091E8008E77C2
:103840008093E8000F900F900F90DF91CF91089533
:10385000CF93DF9300D00F92CDB7DEB79C0180915C
:103860004402843031F582E08983205831093B835A
:103870002A8383E08093E9008FEF9091E8008150E4
:1038800095FD06C095ED9A95F1F700008111F5CFF1
:103890008091E80085FF0DC050E040E063E070E0FB
:1038A000CE0101960E94521E8091E8008E7780938F
:1038B000E8000F900F900F90DF91CF910895209125
:1038C00044022430F1F422E02093E9002FEF3091FC
:1038D000E800215035FD06C035ED3A95F1F70000BE
:1038E0002111F5CF2091E80025FF0BC050E040E00A
:1038F00065E070E00E94521E8091E8008E77809310
:10390000E8000895CF93DF93D82FC92F8091440208
:103910008430F1F4909112019923E9F090913E02E4
:1039200097FF19C08093E9008FEF9091E8008150D4
:1039300095FD06C095E19A95F1F700008111F5CF4C
:103940008091E80050E040E060E270E085FD1AC040
:10395000DF91CF91089581E08093E9008FEF9091FE
:10396000E800815095FD06C095ED9A95F1F70000AD
:103970008111F5CF8091E80085FFEACF50E040E06B
:1039800068E070E08D2F9C2F0E94521E8091E8000D
:103990008E778093E80080E2ED2FFC2FA8E1B2E063
:1039A00001900D928A95E1F7D3CF80914302811166
:1039B00009C00E94DA1F0E943C208091E2008460CE
:1039C0008093E200089510924302089508950895A7
:1039D0000C945C1742E061EC81E00E94561F42E0CB
:1039E00061EC82E00E94561F42E061EC83E00E949D
:1039F000561F42E261EC84E00C94561F809146020F
:103A0000893089F148F4823009F494C0833009F494
:103A10004FC0813041F008958A3009F47BC08B306B
:103A200009F461C0089580914502813A09F03FC0D0
:103A30008091E800877F8093E8008091490290910F
:103A40004A02892B61F460E288E192E070E00E9412
:103A5000A11E8091E8008B778093E800089560E0D4
:103A600090E080E0F3CF80914502813201F58091B2
:103A7000490290914A02009711F00397C1F4809196
:103A8000E800877F8093E8008091E80082FF0BC008
:103A90008091F100809338028091E8008B778093C9
:103AA000E8000C948A1F809144028111EDCF0895A3
:103AB00080914502813AD9F78091490290914A025A
:103AC000892BA9F78091E800877F8093E800809197
:103AD000E80080FFFCCF809112018093F10080917B
:103AE000E8008E77DCCF80914502813201F780912A
:103AF000490290914A02892BD1F68091E800877F94
:103B00008093E8000E948A1F8091470280931201EF
:103B10000C94B30F80914502813249F68091E80000
:103B2000877F8093E8000E948A1F809148028093DB
:103B30003902089580914502813A09F0B8CF809109
:103B4000E800877F8093E8008091E80080FFFCCF49
:103B500080913902C2CF84B7877F84BF0FB6F894B3
:103B6000A895809160008861809360001092600049
:103B70000FBE80E880936100109261000E94070BE5
:103B80000E94DA1F0E943C208091E20084608093B2
:103B9000E20078940E94C2220E94090B88E091E022
:103BA0000E94B30A80914402853019F00E940F0BE5
:103BB000F9CF0E94191780914202882399F30E943D
:103BC0004717882379F30E943C1EECCF9C01DA0151
:103BD000892F992783309105C1F068F481309105D0
:103BE00009F445C0029761F48DE690E025ED39E0D7
:103BF0002D933C93089581329105E1F0829739F13C
:103C000090E080E030E020E0F3CFC9019927213037
:103C100059F08230910559F0E1EDF9E0892B81F7F7
:103C2000849190E09F01E4CFE9EBF9E0F9CFE5EA78
:103C3000F9E0F6CF643020F7E62FF0E0EE0FFF1F3B
:103C4000EF5CFE4F2081318189E090E0D1CF64307C
:103C5000B8F670E0FB01EE0FFF1FE75DFE4F20811D
:103C600031816B5D7E4FFB01808190E0C1CF82E1AD
:103C700090E022E43AE0BCCF84E189BD86E189BDD1
:103C800009B400FEFDCF8091D8008F7D8093D800CD
:103C90008091E00082608093E0008091E00081FDEF
:103CA000FCCF0895AF92BF92CF92DF92FF920F9315
:103CB0001F93CF93DF936C01EB018A010E94A91F30
:103CC000F82E811123C00115110539F0F80180810A
:103CD0009181C81BD90BC80ED91EB12CA12C2097DD
:103CE000A9F08091E80085FD22C08091E8008E77E0
:103CF0008093E80001151105A1F0F8018081918100
:103D0000A80EB91EB182A08285E0F82E8F2DDF911A
:103D1000CF911F910F91FF90DF90CF90BF90AF9008
:103D200008950E94A91F8823D1F2F82EEFCFF60143
:103D300081916F018093F1002197FFEFAF1ABF0AC5
:103D4000CECFFC01CB0120914B0230914C022617C3
:103D5000370790F0009729F42091E8002E77209300
:103D6000E80040E0009751F4411108C08091E8005C
:103D700082FF31C080E00895C901F3CF2091440251
:103D80002223A9F12530A9F12091E80023FD2DC0BF
:103D90002091E80022FDEACF2091E80020FFE2CF49
:103DA0002091F2003091F300009719F0283031058E
:103DB00058F041E02830310509F040E02091E8005A
:103DC0002E772093E800CECF41914093F1000197E8
:103DD0002F5F3F4FE9CF80914402882341F0853027
:103DE00041F08091E80083FFC1CF81E0089582E037
:103DF000089583E00895FC01CB0120914B0230919E
:103E00004C022617370790F0009729F42091E8001C
:103E10002E772093E80040E0009751F4411108C04C
:103E20008091E80082FF32C080E00895C901F3CF9D
:103E3000209144022223B1F12530B1F12091E80014
:103E400023FD2EC02091E80022FDEACF2091E8005A
:103E500020FFE2CF2091F2003091F300009719F09B
:103E60002830310558F041E02830310509F040E0B4
:103E70002091E8002E772093E800CECF4491409324
:103E8000F100319601972F5F3F4FE8CF80914402B8
:103E9000882341F0853041F08091E80083FFC0CF56
:103EA00081E0089582E0089583E00895982F973087
:103EB00028F08F708093E90081E008959093E900E5
:103EC000242F762F50E0981731F07091EC0020915C
:103ED000ED005091F00021FD02C09F5FE8CF3091CE
:103EE000EB003E7F3093EB003091ED003D7F30934F
:103EF000ED003091EB0031603093EB007093EC00FB
:103F00002093ED005093F0002091EE0027FDE5CFC7
:103F100080E008958091450287FF13C08091E800FA
:103F200082FF06C08091E8008B778093E80004C090
:103F3000809144028111F2CF089580914402882338
:103F4000D9F38091E80080FFF8CF8091E8008E7768
:103F5000ECCF2091E4003091E50095E6A901209195
:103F6000EC00822F817020FF06C08091E80080FF66
:103F700006C080E008952091E80022FD1AC08091DB
:103F80004402882389F0853089F08091EB0085FD1B
:103F90000FC02091E4003091E50042175307F9F279
:103FA0009150E1F684E0089582E0089583E0089559
:103FB00081E008950E944B200E945320E0EEF0E043
:103FC000808181608083E8EDF0E080818F7780835D
:103FD00019BCA7EDB0E08C918E7F8C9380818F7E91
:103FE00080831092430208950F931F93CF93DF9322
:103FF0000E944B200E945320C8EDD0E088818F772B
:10400000888388818068888388818F7D8883E7EDB5
:10401000F0E080818068808319BC10924402109285
:104020004002109242021092410200EE10E0F801AC
:1040300080818B7F808388818160888342E060E01B
:1040400080E00E94561FE1EEF0E080818E7F808349
:10405000E2EEF0E0808181608083808188608083EF
:10406000F80180818E7F8083888180618883DF91E1
:10407000CF911F910F910895E8EDF0E080818F7E40
:104080008083E7EDF0E080818160808381E0809330
:1040900043020C94F41FE8EDF0E080818C7F808374
:1040A0001092E20008951092DA001092E100089553
:1040B0001F920F920FB60F9211240BB60F922F93EF
:1040C0003F934F935F936F937F938F939F93AF93A0
:1040D000BF93EF93FF938091E10082FF0BC080912B
:1040E000E20082FF07C08091E1008B7F8093E100B6
:1040F0000E94C1228091DA0080FF19C08091D8000F
:1041000080FF15C08091DA008E7F8093DA00809165
:10411000D90080FF96C084E189BD86E189BD09B4DC
:1041200000FEFDCF81E0809344020E94D51C809167
:10413000E10080FF19C08091E20080FF15C08091EE
:10414000E2008E7F8093E2008091E20080618093A4
:10415000E2008091D80080628093D80019BC85E08D
:10416000809344020E94E71C8091E10084FF29C0F3
:104170008091E20084FF25C084E189BD86E189BD8C
:1041800009B400FEFDCF8091D8008F7D8093D800C8
:104190008091E1008F7E8093E1008091E2008F7E2C
:1041A0008093E2008091E20081608093E200809140
:1041B0004002882309F44BC084E0809344020E94AB
:1041C000E81C8091E10083FF29C08091E20083FF19
:1041D00025C08091E100877F8093E10082E0809399
:1041E0004402109240028091E1008E7F8093E100B2
:1041F0008091E2008E7F8093E2008091E2008061F6
:104200008093E20042E060E080E00E94561F8091CF
:10421000F00088608093F0000E94E61CFF91EF910F
:10422000BF91AF919F918F917F916F915F914F91CE
:104230003F912F910F900BBE0F900FBE0F901F90CC
:10424000189519BC109244020E94E31C70CF809113
:10425000E30087FD02C081E0B0CF83E0AECF1F92C4
:104260000F920FB60F9211240BB60F922F933F931C
:104270004F935F936F937F938F939F93AF93BF936E
:10428000CF93DF93EF93FF93D091E900DF7080919C
:10429000EC00C82FC17080FDC0E81092E900809149
:1042A000F000877F8093F00078940E94772110922D
:1042B000E9008091F00088608093F000CD2BCF70F2
:1042C000C093E900FF91EF91DF91CF91BF91AF9142
:1042D0009F918F917F916F915F914F913F912F911E
:1042E0000F900BBE0F900FBE0F901F9018951F934D
:1042F000CF93DF93CDB7DEB7AA970FB6F894DEBFA2
:104300000FBECDBF85E492E0FC0101962091F10043
:10431000208322E08D349207B9F70E94FE1C809121
:10432000E80083FF16C180914502909146029A30C1
:1043300008F00FC1E92FF0E0E756FB4D0C94222462
:10434000803881F0823809F004C1809149028F7071
:104350008093E9008091EB0085FB882780F910921B
:10436000E90006C080914102909142029111826061
:104370009091E800977F9093E8008093F10010926D
:10438000F1008091E8008E77E0C0882309F4CEC068
:10439000823009F0DEC0809147028111D1C0809146
:1043A00049028F7009F4D5C08093E9002091EB0099
:1043B00020FFC6C0933031F48091EB00806280937F
:1043C000EB00BEC09091EB0090619093EB0021E078
:1043D00030E001C0220F8A95EAF72093EA0010929C
:1043E000EA008091EB008860EACF8111B2C01091A1
:1043F00047021F778091E3008078812B8093E30050
:104400008091E800877F8093E8000E948A1F809156
:10441000E80080FFFCCF8091E30080688093E30098
:1044200082E0111183E08093440293C0805882306F
:1044300008F08FC080914702909148028C3D23E0A4
:104440009207A1F583E08A838AE289834FB7F894C3
:10445000DE01139620E03EE051E2E32FF0E05093BE
:104460005700E49120FF03C0E295EF703F5FEF70CB
:104470008E2F90E0EA30C0F0C7968D939D932F5F0A
:10448000243159F74FBF8091E800877F8093E8007F
:104490006AE270E0CE0101960E94A11E8091E800C0
:1044A0008B778093E80055C0C096E7CFAE014F5F91
:1044B0005F4F609149020E94E61DBC01892B09F4FF
:1044C00048C08091E800877F8093E80089819A81C5
:1044D0000E94FB1EE3CF8038E1F58091E800877FE2
:1044E0008093E800809140028093F1004ACF8111CF
:1044F00030C090914702923060F58091E800877F4C
:104500008093E800909340020E948A1F80914002AD
:10451000882311F084E005C08091E30087FDFACF85
:1045200081E0809344020E94EA1C13C080914702FC
:10453000813079F481E0933009F080E08093420289
:104540001092E9008091E800877F8093E8000E9444
:104550008A1F8091E80083FF0AC08091E800877F6E
:104560008093E8008091EB0080628093EB00AA9634
:104570000FB6F894DEBF0FBECDBFDF91CF911F9174
:1045800008950895CF93809144028823A1F0C091AB
:10459000E900CF709091EC00892F817090FD80E848
:1045A000C82B1092E9008091E80083FD0E947721DA
:1045B000CF70C093E900CF9108950E94E4226894DF
:1045C000B1110C94732308950E94582388F09F57CB
:1045D00098F0B92F9927B751B0F0E1F0660F771F27
:1045E000881F991F1AF0BA95C9F714C0B13091F01D
:1045F0000E947223B1E008950C947223672F782FE4
:104600008827B85F39F0B93FCCF3869577956795E1
:10461000B395D9F73EF490958095709561957F4F4D
:104620008F4F9F4F0895E89409C097FB3EF49095F3
:104630008095709561957F4F8F4F9F4F9923A9F07B
:10464000F92F96E9BB279395F6958795779567950A
:10465000B795F111F8CFFAF4BB0F11F460FF1BC04E
:104660006F5F7F4F8F4F9F4F16C0882311F096E9E1
:1046700011C0772321F09EE8872F762F05C066238F
:1046800071F096E8862F70E060E02AF09A95660F48
:10469000771F881FDAF7880F9695879597F9089501
:1046A00057FD9058440F551F59F05F3F71F04795E3
:1046B000880F97FB991F61F09F3F79F087950895C8
:1046C000121613061406551FF2CF4695F1DF08C0E7
:1046D000161617061806991FF1CF86957105610504
:1046E00008940895E894BB2766277727CB0197F9AC
:1046F00008950E948C230C94FD230E94EF2338F030
:104700000E94F62320F0952311F00C94E6230C94DC
:10471000EC2311240C9473230E94502370F3959F73
:10472000C1F3950F50E0551F629FF001729FBB27A8
:10473000F00DB11D639FAA27F00DB11DAA1F649F44
:104740006627B00DA11D661F829F2227B00DA11DF7
:10475000621F739FB00DA11D621F839FA00D611D7D
:10476000221F749F3327A00D611D231F849F600D9E
:10477000211D822F762F6A2F11249F5750409AF0C7
:10478000F1F088234AF0EE0FFF1FBB1F661F771F53
:10479000881F91505040A9F79E3F510580F00C941E
:1047A000E6230C9473235F3FE4F3983ED4F386959D
:1047B00077956795B795F795E7959F5FC1F7FE2BBE
:1047C000880F911D9695879597F9089597F99F679A
:1047D00080E870E060E008959FEF80EC0895002489
:1047E0000A941616170618060906089500240A9456
:1047F00012161306140605060895092E0394000CDC
:1048000011F4882352F0BB0F40F4BF2B11F460FF6A
:1048100004C06F5F7F4F8F4F9F4F089597FB072E08
:1048200016F4009407D077FD09D00E942B2407FCD2
:1048300005D03EF4909581959F4F089570956195B0
:104840007F4F0895EE0FFF1F0024001C0BBE079042
:10485000F691E02D0994AA1BBB1B51E107C0AA1FCA
:10486000BB1FA617B70710F0A61BB70B881F991F11
:104870005A95A9F780959095BC01CD010895F999B5
:10488000FECF92BD81BDF89A992780B50895A8E121
:10489000B0E042E050E00C946724262FF999FECF57
:1048A00092BD81BDF89A019700B4021639F01FBA83
:1048B00020BD0FB6F894FA9AF99A0FBE08950196A2
:1048C000272F0E944E240C944D24DC01CB01FC01C7
:1048D000F999FECF06C0F2BDE1BDF89A319600B459
:1048E0000D9241505040B8F70895F894FFCFB506A7
:1048F000C106C506C906CD06D106D506D906DD0610
:10490000E106E506E906ED06F106F506F906FD06FF
:1049100001075E0D5E0DB60DB60DFA0D160E8E0D6D
:104920008E0D210E8E0DE90EE90E540F8E0D8E0D9B
:104930005D0FA021C521A922C521A922F52116229A
:06494000A9226B22772280
:10494600EA012808140A321EF21B821C5F1C281C6E
:10495600F51B01909192939495606162636465364C
:104966003534333231404D3639100BC30A8D0A5473
:0A4976000AE709000A190A320A00D4
:00000001FF
