:100000000C9493060C94DC060C94DC060C94DC0631
:100010000C94DC060C94DC060C94DC060C94DC06D8
:100020000C94DC060C94DC060C9490290C94682A41
:100030000C9406240C94DC060C94DC060C94DC0670
:100040000C94DC060C94DC060C94DC060C94DC06A8
:100050000C94DC060C945D240C94DC060C94DC06F9
:100060000C94DC060C94DC060C94DC060C94DC0688
:100070000C94DC060C94DC060C94DC060C94DC0678
:100080000C94DC060C94DC060C94DC060C94DC0668
:100090000C94DC060C94DC060102E3270103E30068
:1000A00029001E001F002000210022002300240040
:1000B0002500260027002A002B0014001A00080043
:1000C000150017001C0018000C00120013004C0053
:1000D0002A0004001600070009000A000B000D00AA
:1000E0000E000F0033003400E1001D001B0006006D
:1000F00019000500110010003600370038000151CA
:10010000E000E300E200000000004A002E000000D2
:100110005000510052004F0000000000000000009D
:100120002C004D002D002800000000000000000001
:100130003A003B003C003D003E003F0040004100D3
:100140004200430044004500010035002F0030000C
:100150003100010001000100010001000100005C0C
:100160000100010001000100010001000100010087
:100170000100010001000100010001000100010077
:100180000100010001000100010001000100010067
:10019000010001000100010000004B00010000000F
:1001A000010001000100010000000000000000004B
:1001B00001004E00010001000000000000000000EE
:1001C00044454255473A2064697361626C65642E08
:1001D0000A0044454255473A20656E61626C656489
:1001E0002E0A0000000000000000002A2B2800005A
:1001F00000000000000000000000000000002900D6
:100200000000002C1E3420212224342627252E36DF
:100210002D3738271E1F202122232425263333364D
:100220002E37381F0405060708090A0B0C0D0E0FA0
:10023000101112131415161718191A1B1C1D2F3123
:1002400030232D350405060708090A0B0C0D0E0F87
:10025000101112131415161718191A1B1C1D2F3103
:1002600030354C00000000000000000000000000DD
:10027000000000000000000000000000000000007E
:10028000000000000000007E0F00D4FFFFFFC70049
:100290000000780A002530313662003A200025300F
:1002A0003258000A722F63203031323334353637FA
:1002B00038394142434445460A006D6B5F776865B3
:1002C000656C5F74696D655F746F5F6D6178203D0B
:1002D0002025640A006D6B5F776865656C5F6D61F2
:1002E000785F7370656564203D2025640A006D6B3E
:1002F0005F74696D655F746F5F6D6178203D202567
:10030000640A006D6B5F6D61785F73706565642072
:100310003D2025640A006D6B5F696E7465727661BD
:100320006C203D2025640A006D6B5F64656C61790B
:10033000203D2025640A006D6B5F776865656C5F02
:1003400074696D655F746F5F6D6178203D20256411
:100350000A006D6B5F776865656C5F6D61785F73D0
:1003600070656564203D2025640A006D6B5F7469CB
:100370006D655F746F5F6D6178203D2025640A00B4
:100380006D6B5F6D61785F7370656564203D2025DE
:10039000640A006D6B5F696E74657276616C203DF6
:1003A0002025640A006D6B5F64656C6179203D20D7
:1003B00025640A000A00257500363A2077686565CD
:1003C0006C5F74696D655F746F5F6D61783A200072
:1003D0000A00257500353A20776865656C5F6D61A8
:1003E000785F73706565643A20000A0025750034F3
:1003F0003A2074696D655F746F5F6D61783A2000B3
:100400000A00257500333A206D61785F7370656569
:10041000643A20000A00257500323A20696E74653E
:100420007276616C286D73293A20000A00257500E8
:10043000313A2064656C6179282A31306D73293A2C
:1004400020000A092D2056616C756573202D0A0065
:100450004D3E004D25643E20003F007365742064CE
:10046000656661756C740A00433E200077686572AA
:10047000652064656C74613A20637572736F723DB8
:1004800025642C20776865656C3D25640A53656595
:1004900020687474703A2F2F656E2E77696B6970BF
:1004A000656469612E6F72672F77696B692F4D6F75
:1004B0007573655F6B6579730A000A092D204D6FAE
:1004C0007573656B6579202D0A4553432F713A0981
:1004D000717569740A313A0964656C6179282A3149
:1004E000306D73290A323A09696E74657276616CEF
:1004F000286D73290A333A096D61785F73706565F9
:10050000640A343A0974696D655F746F5F6D617870
:100510000A353A09776865656C5F6D61785F73705D
:100520006565640A363A09776865656C5F74696D5C
:10053000655F746F5F6D61780A0A703A097072695D
:100540006E742076616C7565730A643A097365741C
:100550002064656661756C74730A75703A092B3195
:100560000A646F776E3A092D310A706775703A091F
:100570002B31300A7067646F776E3A092D31300A7B
:100580000A7370656564203D2064656C7461202A7F
:10059000206D61785F7370656564202A202872651C
:1005A00070656174202F2074696D655F746F5F6D75
:1005B0006178290A003F004D3E2000433E20004C58
:1005C00025640A0074696D65725F72656164333217
:1005D00028293A202530346C580A006B6579626FFF
:1005E0006172645F69646C653A2025580A006B6526
:1005F00079626F6172645F70726F746F636F6C3A6F
:100600002025580A00686F73745F6B6579626F61AB
:1006100072645F6C65647328293A2025580A000AC1
:10062000092D20537461747573202D0A00474343CC
:100630003A20382E342E30204156522D4C49424318
:100640003A20322E302E30204156525F41524348DC
:100650003A2061767235310A004F5054494F4E535B
:100660003A204C554641204D4F5553454B45592056
:1006700045585452414B455920434F4E534F4C45DA
:1006800020434F4D4D414E4420383139320A00420B
:1006900055494C443A202028417567203330203298
:1006A000303231290A005649443A203078464545CF
:1006B00044284861616469204B68616E2920504973
:1006C000443A203078303030302853706C697420D0
:1006D0004F7274686F20426F6172642920564552D0
:1006E0003A203078303030310A000A092D20566522
:1006F0007273696F6E202D0A000A092D20436F6EF8
:10070000736F6C65202D0A4553432F713A0971753B
:1007100069740A6D3A096D6F7573656B65790A00C6
:100720000A092D204D61676963202D0A443A094466
:1007300065627567204D65737361676520546F67E7
:10074000676C650A583A094D61747269782044658E
:10075000627567204D6F646520546F67676C652014
:100760002D2053686F77206B6579707265737365A0
:100770007320696E206D6174726978206772696494
:100780000A4B3A094B6579626F6172642044656275
:10079000756720546F67676C65202D2053686F77ED
:1007A000206B65797072657373207265706F7274F7
:1007B0000A4D3A094465627567204D6F757365206F
:1007C000546F67676C650A563A0956657273696FAC
:1007D0006E0A533A095374617475730A433A0941B6
:1007E0006374697661746520436F6E736F6C652006
:1007F0004D6F64650A46312D4631303A09537769A9
:1008000074636820746F204C6179657220302D39D3
:100810002028463130203D204C30290A302D393AED
:100820000953776974636820746F204C617965722D
:1008300020302D390A47524156453A095377697499
:10084000636820746F204C617965722030202861C4
:100850006C7465726E617465290A423A094A756D55
:100860007020746F20426F6F746C6F616465720AE0
:100870004553433A094A756D7020746F20426F6F7B
:10088000746C6F616465722028616C7465726E614E
:100890007465290A453A095072696E7420454550BD
:1008A000524F4D2053657474696E67730A425350FA
:1008B0004143453A09436C65617220454550524FAA
:1008C0004D0A000A002575002E6E6B726F3A2000EB
:1008D0000A002575002E737761705F6261636B7328
:1008E0006C6173685F6261636B73706163653A200A
:1008F000000A002575002E737761705F677261765C
:10090000655F6573633A20000A002575002E6E6FDF
:100910005F6775693A20000A002575002E737761BC
:10092000705F72616C745F726775693A20000A00CB
:100930002575002E737761705F6C616C745F6C67F6
:1009400075693A20000A002575002E737761705F83
:100950007263746C5F726775693A20000A002575CE
:10096000002E737761705F6C63746C5F6C67756980
:100970003A20000A002575002E636170736C6F6366
:100980006B5F746F5F636F6E74726F6C3A20000AF6
:10099000002575002E737761705F636F6E74726FE0
:1009A0006C5F636170736C6F636B3A20000A0025A3
:1009B000303258006B65796D61705F636F6E666988
:1009C000672E7261773A20000A002575002E6D6F40
:1009D0007573653A20000A002575002E6B657962F3
:1009E0006F6172643A20000A002575002E6D6174F3
:1009F0007269783A20000A002575002E656E6162E2
:100A00006C653A20000A0025303258006465627532
:100A1000675F636F6E6669672E7261773A20000ABE
:100A20000025750064656661756C745F6C6179653D
:100A3000723A20003F000A6D6F7573653A206F6649
:100A4000660A000A6D6F7573653A206F6E0A000AB8
:100A50006B6579626F6172643A206F66660A000A9C
:100A60006B6579626F6172643A206F6E0A000A6D7D
:100A700061747269783A206F66660A000A6D617463
:100A80007269783A206F6E0A000A64656275673A87
:100A9000206F66660A000A64656275673A206F6EA9
:100AA0000A000A0A4A756D70696E6720746F2062C9
:100AB0006F6F746C6F616465722E2E2E2000433E42
:100AC0002000436C656172696E6720454550524F46
:100AD0004D0A006565636F6E6669673A0A00290A08
:100AE000002575002F002575005D28002564002075
:100AF00000256400200025640020002564007C009F
:100B000025303258006D6F7573656B6579205B62B7
:100B1000746E7C782079207620685D287265702F4D
:100B200061636C293A205B000A00253032582000AE
:100B30006B6579626F6172645F7265706F72743A2F
:100B400020000A0025303258006B6579626F6172AF
:100B5000645F7365745F6C65643A20004F6E657303
:100B6000686F743A206163746976653A2025640A77
:100B7000005B735D004B6579626F61726420737412
:100B80006172742E0A005B575D005B535D005B521F
:100B90005D005B445D005B435D0024035300700017
:100BA0006C006900740020004F007200740068003F
:100BB0006F00200042006F006100720064000000BE
:100BC00016034800610061006400690020004B00CA
:100BD000680061006E0000000403090409025B0064
:100BE000030100A0FA09040000010301010009212A
:100BF000110100012240000705810308000A0904D1
:100C000001000103000000092111010001227B0005
:100C10000705820320000A09040200020300000005
:100C20000921110100012222000705830320000190
:100C3000070503032000011201100100000008ED68
:100C4000FE00000100010200010631FF0974A1014C
:100C50000975150026FF0095207508810209761593
:100C60000026FF00952075089102C005010902A128
:100C70000185020901A100050919012908150025AE
:100C80000195087501810205010930093115812599
:100C90007F95027508810609381581257F950175B4
:100CA000088106050C0A38021581257F9501750813
:100CB0008106C0C005010980A101850319012AB779
:100CC00000150126B700950175108100C0050C09BB
:100CD00001A101850419012AA002150126A002958F
:100CE0000175108100C005010906A101050719E081
:100CF00029E7150025019508750181029501750800
:100D000081010507190029FF150026FF00950675CA
:100D100008810005081901290595057501910295BD
:100D20000175039101C011241FBECFEFD0E2DEBFD9
:100D3000CDBF04B603FE27C080918A0290918B023A
:100D4000A0918C02B0918D028730904BA740B04BA0
:100D5000D1F410928A0210928B0210928C0210929F
:100D60008D0214BE84B7877F84BF0FB6F894A89510
:100D700080916000886180936000109260000FBED7
:100D8000E0E0F0EF099511E0A0E0B1E0ECE8F9E572
:100D900000E00BBF02C007900D92A23AB107D9F74D
:100DA00022E0A2EAB1E001C01D92AA38B207E1F741
:100DB0000E94C4260C949C2C0C940000FF93EF938B
:100DC000E091A201F091A301309709F00995EF910C
:100DD000FF910895FC018591803011F0EFDFFBCF8A
:100DE0000895FF27E0E230E247FF0CC0419597FFEE
:100DF00009C0EDE26095709580959095611D711D1B
:100E0000811D911D27FF02C0219530E350E2AA27E2
:100E1000660F771F881F991FAA1FA41710F0A41B25
:100E200063955A95A9F7AA3008F0A95FA05DAF9322
:100E3000F395611571058105910541F7ED3211F4C6
:100E4000EF93F395F21718F43F93F395FBCF8F913F
:100E5000B5DFFA95E1F70895E991F9918591803030
:100E600021F0853219F0AADFF9CF089520E0E89447
:100E700055915532C1F3503311F4689455915A335A
:100E800048F4505390F3220F022E220F220F200D10
:100E9000250FF4CF0EF4219589919991533619F3CA
:100EA000533729F1533559F1BC0188279927E89424
:100EB0005C3621F48991999168945591543639F4AE
:100EC00046EF7EF077FF0DC08FEF9FEF0AC05537DA
:100ED0004AE039F0583540E121F0523642E009F05D
:100EE0000895FF93EF937DDFEF91FF91B7CFFF93CD
:100EF000EF93FC0181918030B9F360DFFBCFFF936A
:100F0000EF9368DFF1CFDF93CF93CDB7DEB72596B0
:100F1000A3DFCF91DF9108959C01FB01828188239B
:100F200041F0232B39F488E990E00E94360980E0F3
:100F3000089581E0089581E008950C948C07089548
:100F40000C949F071F93CF93DF9300D000D00F9294
:100F5000CDB7DEB749835A836B833091D501898140
:100F60009A8131111DC06623B9F02223A9F00E9495
:100F70002821182F682F89819A810E94D4206981A5
:100F80007A81812F0F900F900F900F900F90DF912B
:100F9000CF911F910C9471090E940021182FEFCF5F
:100FA0000E94282169817A81EDCFFC01262F4081A2
:100FB00051816281738184810C94A207CF93DF9366
:100FC000EC0160E00E94D507BE01DF91CF910C9447
:100FD000A0070E94970B0C94BC0B0C94BF0B0895B8
:100FE0000E943E1C0E94EF072FEF84E39CE02150FB
:100FF00080409040E1F700C000000C9481240F93E2
:101000001F93CF93DF938C0161E00E94D507EC0121
:10101000B8010E949D078823C1F1B801CE010E944A
:10102000A215882391F1B801CE010E94F4158823FE
:1010300061F1B801CE010E941717882331F1F80140
:101040008281882361F0CF3DFCE5DF07B1F170F4C8
:10105000C115ECE5DE07B9F0C130DC45E1F0C801AF
:10106000DF91CF911F910F910C949B07CC358DE5AB
:10107000D80749F1CD35DC0719F1CB35DD4579F7D6
:101080000E94EB21ECCF0E94F00780E0DF91CF912E
:101090001F910F91089590915002892F8E7F90FF9C
:1010A00081608093500280FF05C082ED91E00E9434
:1010B000EA06EBCF80EC91E0FACF0E945923E5CF0E
:1010C0000E94E221CCCF0E94EE21C9CFDF92EF92A5
:1010D000FF920F931F93CF93DF93E82FF0E0ED5132
:1010E000FE4FD490282F26952695269530E0F901BD
:1010F000ED57FD4F0491877010E0082E02C0159542
:1011000007950A94E2F701701127F901ED58FD4F98
:10111000E490F12C082E02C0F594E7940A94E2F7CB
:1011200091E0E922FF24F901ED59FD4FC491D0E08F
:1011300002C0D595C7958A95E2F7C170DD270115E4
:10114000110519F081EE0E942419E114F10419F03F
:1011500086EE0E9424198D2D0E94BD19EF2819F0EA
:1011600086EE0E947719012B19F081EE0E94771903
:10117000CD2B51F08CE2DF91CF911F910F91FF9019
:10118000EF90DF900C94BD19DF91CF911F910F91DB
:10119000FF90EF90DF900895EF92FF920F931F93CF
:1011A000CF93DF938C01F62E8AE0E82EF80184912C
:1011B000882309F454C0813009F04DC0E80121961C
:1011C000FE018491813091F42196FE0184910E9468
:1011D000BD198E010F5F1F4F8F2D815038F3EFE93E
:1011E000FFE03197F1F700C00000F7CF823039F40B
:1011F000E8012296FE0184910E942419EACF8330EF
:1012000039F4E8012296FE0184910E947719E1CF1A
:101210008430F9F6E8012296FE01249190E080E006
:10122000FE0131962053330B2A30310548F00197E7
:1012300080F2EFE9FFE03197F1F700C00000F7CF4F
:10124000E89EA001E99E500D1124C901840F951F4D
:101250002491EF01E5CF0E946608E801BACFDF9143
:10126000CF911F910F91FF90EF90089560E00C9443
:10127000CC08829590E09C01220F331F220F331F70
:101280002C7C95958795959587958373282B30E0D1
:10129000C901880F991F8A7A359527952575822B64
:1012A0000895CF93DF93D92F0E943909C82F8D2F2E
:1012B0000E9439099C2FDF91CF91089508950C94D5
:1012C0005E0981E008950C946109CF93C82F0E94B4
:1012D0005F098C2FCF910C94630990E080E0089512
:1012E0000895972F70E02CE0929F600D711D1124DE
:1012F000FB0198E4899FE00DF11D1124EE0FFF1F03
:10130000E056FF4F859194910895FC01EE0FFF1F69
:10131000ED56FD4F859194910895CF93DF930E94F0
:1013200071090E94A20AEC01811520E5920708F0DC
:1013300042C0811530E4930708F0BDC0883E910596
:1013400028F5803E910508F09DC0883A910588F403
:10135000853A910508F08FC08130910509F492C05B
:10136000009709F48FC0049708F08CC0D0E0C0E06B
:1013700089C08F3B910508F489C0805C9109C03C0D
:10138000D105A0F30E948509EC017CC08115904233
:1013900050F4C11581E0D80708F074C0CD3ED105E6
:1013A00028F3D0656FC0C11590E3D90708F079C064
:1013B000CE019F70E7CF811525E5920758F581157D
:1013C00034E5930708F0A6C0811542E5940750F470
:1013D000C11581E5D80708F471C0DC2FCC27C16F97
:1013E000D06A50C0982F969596959E01237033270A
:1013F000C115D34508F07FC0C1E0D0E002C0CC0FDA
:10140000DD1F2A95E2F720E2929FC0011124C82B2C
:10141000D92B6FC0C11589E5D807A8F4C11598E587
:10142000D90708F07CC0C11526E5D20708F09ECF89
:101430008C2F0E94390BC82FD0E0DC2FCC27CC2773
:10144000DF71D0621FC0C1153AE5D30708F46CC044
:10145000CE0190568115904208F088CF8D2F8F7164
:101460000E94390B90E0982F882788279F719C0154
:101470002C2BE901E6CFC55AD0E0CD5BDE4FC88109
:10148000D0E0D064CE01DF91CF910895C85AD0E06A
:10149000CC0FDD1FCB5EDE4F0990D881C02DD46408
:1014A000F1CFCE019927D3FF03C0EC01D86CEACF6E
:1014B000EC01D06CE7CFDF70D06AE4CFCE01E4E07E
:1014C00096958795EA95E1F783702C2F26952695BA
:1014D000237090E2299F90011124382B8C2F837068
:1014E000C1E0D0E002C0CC0FDD1F8A95E2F7C22B2D
:1014F000D32BDC68C7CFC1E0D0E002C0CC0FDD1F2A
:101500002A95E2F730E2939FC0011124C82BD92B12
:10151000DA68B8CFD82FCC27C46FD06AB3CFDC2F0E
:10152000CC27C06FD06AAECF8C2F8F700E94390B42
:1015300034E0D695C7953A95E1F7CF709C2FEC0132
:10154000D069A0CF82389105B1F1B0F48133910513
:1015500009F475C048F48932910509F469C08A32EA
:10156000910509F473C008958533910509F459C0B4
:101570008933910501F10895833E9105A9F138F46D
:10158000803E9105F9F0823E910549F10895863E2D
:101590009105A9F1873E9105C9F1843E910519F5A0
:1015A0002091600221FF1FC080915F0284FD14C062
:1015B00087EE90E0089520915F022370A1F080EE05
:1015C00090E0089520915F0220FD47C030916002B5
:1015D00030FF09C024FF44C090E080E004C02091A7
:1015E0005F0222FDF7CF089520915F0222FD3BC0EC
:1015F0003091600230FDE3CF24FFF5CFEDCF209195
:101600005F0223FFF0CF24FDE7CFD2CF20915F020E
:1016100023FD2CC03091600231FFEECF84EE90E0CC
:10162000089520915F0225FFDECF89E290E00895C2
:1016300020915F0225FFD7CF85E390E008952091A8
:101640005F0226FFD0CF8AE290E0089520915F02EA
:1016500026FFC9CF81E390E0089589E390E00895E3
:1016600083EE90E0089582EE90E0089586EE90E09B
:10167000089590915F0292FF06C0282F28712830AC
:10168000F9F4877F846093FF06C0282F28712831E2
:10169000F1F4877E84612091600220FF06C0382F1C
:1016A00038713830D9F4877F816021FF06C0282F38
:1016B00028712831D1F4877E816194FD877E089559
:1016C000282F24712430F9F68B7F8860DCCF282FF7
:1016D0002471243101F78B7E8861DDCF382F317181
:1016E000313019F78E7F8860E0CF282F21712131AA
:1016F00021F78E7E8861E1CF0C94AE220E94650CAA
:101700002FEF86E791E0215080409040E1F700C044
:1017100000000E94650C80E00E94C10B80FF04C0A5
:101720000E947C0B0C94812408950C947E0B0E94E3
:10173000B422811102C00E9459230E94BF228093CB
:1017400050020E94C7229093600280935F020E9421
:10175000950B0E94C322682F70E090E080E00E9409
:10176000D61F60913B0270913C0280913D029091A6
:101770003E020C94102008950C94BB0B08950C9419
:10178000BE0BE82FF0E0EE0FFF1FE359FD4F808105
:1017900091810895CF92DF92EF92FF920F931F9362
:1017A000CF93DF9383EA92E00E94EA068DE6E82E6B
:1017B00082E0F82ED0E0C0E09EE9C92E92E0D92E5A
:1017C00005E912E0DF93CF93DF92CF920E94830767
:1017D0008BE992E00E94EA06F701819191917F01E5
:1017E0000E9451099F938F931F930F930E94830729
:1017F00083E992E00E94EA0621968DB79EB708968B
:101800000FB6F8949EBF0FBE8DBFC630D105D1F67E
:10181000DF91CF911F910F91FF90EF90DF90CF90CC
:10182000089580EA8A95F1F7089500C008950C9410
:10183000110CF894E82FE295EF70F0E031A1282F19
:101840002F7081E090E001C0880F2A95EAF7982F69
:101850009095932391A392A1892B82A378940895C4
:101860000F931F93CF93DF9381E60E94190C82E6BA
:101870000E94190C83E60E94190C84E60E94190C40
:1018800085E60E94190C86E60E94190CC6E4D1E098
:1018900002E511E089910E94190C0C171D07D1F780
:1018A000E1E6F2E0ADE6B2E0119211921D921D92D6
:1018B00082E0ED36F807C1F786E00E94E50CDF9183
:1018C000CF911F910F910C94E907AF92BF92DF92D5
:1018D000EF92FF920F931F93CF93DF93C2E5D1E076
:1018E00001E612E0D12CEE24E394F12C8991F894D6
:1018F000E82FE295EF70F0E021A18F70A70102C000
:10190000440F551F8A95E2F7CA01922F982B91A395
:1019100092A18095892382A378940E94150CE6E415
:10192000F1E030E020E0B12CA12C4191A42FA29550
:10193000AF70B0E090968C9190E04F7002C095959A
:1019400087954A95E2F780FD3BC0C701022E02C091
:10195000880F991F0A94E2F7A82AB92A2F5F3F4FF0
:101960002C30310511F7FE01319780810E94190C4E
:101970000E94170CF80180819181A816B90619F10F
:10198000B182A08281E0D82A0E5F1F4FF1E0C835F6
:10199000DF0709F0ABCF2D2D46E06DE672E081E662
:1019A00092E00E94E60C0E94ED078D2DDF91CF9111
:1019B0001F910F91FF90EF90DF90BF90AF9008952F
:1019C00090E080E0C9CF80E0DECF0895FF920F93D2
:1019D0001F93CF93DF93F82E092F162FD72FC42FE5
:1019E000222349F081E08093A6010E94362490933F
:1019F000A5018093A4018091A6018823A1F0809184
:101A0000A4019091A5010E944E24069760F0EF2D4D
:101A1000F02FA12FBD2F90E080E0D0E08C179D0724
:101A200044F01092A601DF91CF911F910F91FF908A
:101A30000895219131912D933D930196EFCF8AEB3B
:101A400094E00E94EA061F9281E08F931F9285E046
:101A50008F938CE694E09F938F930E9483070F905F
:101A60000F900F900F900F900F900895833009F40E
:101A700045C028F4813061F0823049F10895853005
:101A800009F46AC008F451C0863009F47CC0089596
:101A900080910701482F460F5527551F4F3F51058D
:101AA00094F4680F60930701809107011F928F9350
:101AB00085EA93E09F938F930E9483070F900F9086
:101AC0000F900F9008958FEF80930701EDCF8091D5
:101AD0000601482F460F5527551F4F3F510554F417
:101AE000680F60930601809106011F928F9383E92E
:101AF00093E0E0CF8FEF80930601F5CF8091050151
:101B0000482F460F5527551F4F3F510554F4680F76
:101B100060930501809105011F928F9380E893E007
:101B2000C9CF8FEF80930501F5CF80910401482F35
:101B3000460F5527551F4F3F510554F4680F6093CA
:101B40000401809104011F928F938BE693E0B2CF42
:101B50008FEF80930401F5CF80910101482F460F4C
:101B60005527551F4F3F510554F4680F60930101ED
:101B7000809101011F928F9382E593E09BCF8FEFBD
:101B800080930101F5CF80910001482F460F552722
:101B9000551F4F3F510554F4680F60930001809129
:101BA00000011F928F9387E393E084CF8FEF8093A0
:101BB0000001F5CF8330C9F128F4813061F0823023
:101BC00019F10895853009F452C008F43FC08630F9
:101BD00009F45EC0089580910701681790F4861B90
:101BE00080930701809107011F928F9388E293E011
:101BF0009F938F930E9483070F900F900F900F90E9
:101C0000089510920701EECF80910601681750F4F5
:101C1000861B80930601809106011F928F9386E1B7
:101C200093E0E6CF10920601F6CF80910501681788
:101C300050F4861B80930501809105011F928F93BC
:101C400083E093E0D5CF10920501F6CF8091040197
:101C5000681750F4861B80930401809104011F9241
:101C60008F938EEE92E0C4CF10920401F6CF809154
:101C70000101681750F4861B8093010180910101D6
:101C80001F928F9385ED92E0B3CF10920101F6CFB2
:101C900080910001681750F4861B809300018091A9
:101CA00000011F928F938AEB92E0A2CF1092000165
:101CB000F6CFCF93C82F1F928F938FEB95E09F9312
:101CC0008F930E94830761E070E080E090E004C0A1
:101CD000660F771F881F991FCA95D2F70E94D61FDB
:101CE0000F900F900F900F90CF910C943E1CCF93BC
:101CF000DF938B3109F4FAC108F09CC18B3009F4F1
:101D0000B8C108F06AC1863009F4C6C148F485300C
:101D100009F49EC184E39AE00E94EA0680E0CCC107
:101D2000873009F4CCC18830A9F783ED9AE00E948E
:101D3000EA0684E29AE00E94EA060E94C3221F9209
:101D40008F9381E29AE09F938F930E9483078FE1A4
:101D50009AE00E94EA060E94BF22C82F8CE09AE017
:101D60000E94EA061F92CF9387E09AE09F938F9399
:101D70000E94830785E09AE00E94EA068BEF99E0D3
:101D80000E94EA068C2F81701F928F9388EF99E052
:101D90009F938F930E94830786EF99E00E94EA0643
:101DA0008CEE99E00E94EA06C1FB882780F91F9219
:101DB0008F9389EE99E09F938F930E94830787EE1C
:101DC00099E00E94EA068BED99E00E94EA06C2FBC8
:101DD000882780F91F928F9388ED99E09F938F93C6
:101DE0000E94830786ED99E00E94EA068DEC99E057
:101DF0000E94EA06C3FBCC27C0F91F92CF938AEC5E
:101E000099E09F938F930E94830788EC99E00E944A
:101E1000EA060E94C722EC0184EB99E00E94EA06E0
:101E2000DF93CF938FEA99E09F938F930E9483076C
:101E30008DEA99E00E94EA0684E999E00E94EA06A8
:101E40008C2F81701F928F9381E999E09F938F93DC
:101E50000E9483078DB79EB780960FB6F8949EBFF9
:101E60000FBE8DBF8FE899E00E94EA0688E799E0EF
:101E70000E94EA06C1FB882780F91F928F9385E7AD
:101E800099E09F938F930E94830783E799E00E94D4
:101E9000EA0681E699E00E94EA068D2F81701F9282
:101EA0008F938EE599E09F938F930E9483078CE533
:101EB00099E00E94EA068AE499E00E94EA06D69533
:101EC000D1701F92DF9387E499E09F938F930E94D4
:101ED000830785E499E00E94EA0683E399E00E9483
:101EE000EA06C2FB882780F91F928F9380E399E06E
:101EF0009F938F930E9483078EE299E00E94EA06E7
:101F00008CE199E00E94EA06C3FB882780F91F92C2
:101F10008F9389E199E09F938F930E94830787E1D4
:101F200099E00E94EA068DE099E00E94EA06C4FB6F
:101F3000882780F91F928F938AE099E09F938F936F
:101F40000E94830788E099E00E94EA0686EF98E005
:101F50000E94EA06C5FB882780F91F928F9383EFC2
:101F600098E09F938F930E94830781EF98E00E94EF
:101F7000EA0685ED98E00E94EA06C6FB882780F90C
:101F80001F928F9382ED98E09F938F930E94830717
:101F90008DB79EB780960FB6F8949EBF0FBE8DBFCB
:101FA00080ED98E00E94EA0688EC98E00E94EA063C
:101FB000C7FBCC27C0F91F92CF9385EC98E09F9385
:101FC0008F930E94830783EC98E00E94EA060F90AB
:101FD0000F900F900F9081E06FC0803109F49EC088
:101FE00080F48E3009F096CE90915002892F8B7F2D
:101FF00092FF84608093500282FF8DC08FE59AE04B
:1020000081C0863109F49AC0893109F083CE8AEE05
:1020100096E00E94EA0686EA96E00E94EA068FE8C9
:1020200096E00E94EA0689E596E00E94EA068DE2C3
:1020300096E021C08A3249F190F4873211F128F4F8
:102040008E3108F467CE8D511DC0893209F062CE01
:1020500082EA9AE00E94EA060E94F007BCCF83342D
:1020600068F48A3308F0A1C0853359F0883309F049
:1020700051CE80E297E00E94EA06ADCF833409F0AA
:1020800049CE80E00E94590EA6CF82EC9AE00E94D1
:10209000EA060E9459239FCF80915002807F80934F
:1020A000500289EF96E00E94EA068EEB9AE00E94C9
:1020B000EA0681E08093A801DF91CF910895909185
:1020C0005002892F8E7F90FF81608093500280FFA5
:1020D00003C086E99AE0CFCF89E89AE00E94EA0639
:1020E00080915002817F8093500275CF9091500271
:1020F000892F8D7F91FF82608093500281FF08C0FD
:102100008CE79AE00E94EA06809150028160EBCF52
:102110008EE69AE0B0CF8FE49AE0ADCF9091500276
:10212000892F877F93FF88608093500283FF03C0CD
:1021300083E49AE0E7CF86E39AE09DCF8FE196E0D3
:102140000E94EA060E9446171F928F9385E096E050
:102150009F938F930E948307809114011F928F9306
:102160008EEE95E09F938F930E94830780915E028D
:102170001F928F938BED95E09F938F930E9483071F
:102180000E9442249F938F937F936F9384EC95E0FA
:102190009F938F930E9483078DB79EB742960FB689
:1021A000F8949EBF0FBE8DBF16CF89536BCF80E0D2
:1021B00008950C94D7108E518A3030F4E82FF0E057
:1021C000E85AFE4F8081089580E00895CF93C82F8C
:1021D0008091A8018130C1F0882339F0823009F460
:1021E00047C01092A80180E00DC00E94F121823208
:1021F000D1F78C2F0E94D71081111BC08C2F0E9409
:10220000770E8170CF9108950E94F121823289F377
:102210008C2F0E94D91081111BC0C431D9F060F4F9
:10222000CB3071F0C031D1F085EB95E00E94EA0629
:1022300013C081E090E0E5CFC93261F0C833A1F767
:1022400089EF96E00E94EA068BEB95E00E94EA0691
:1022500081E0D7CF1092A80180E0D3CF0E941F0D5C
:1022600087EB95E00E94EA0682E08093A801F0CF18
:10227000C432C8F4CE3108F0BEC0CB30E1F040F437
:10228000C73009F4CCC089E594E00E94EA0626C074
:10229000C331C1F1C431B9F78091A701882351F14D
:1022A0001092A7010AC0CB3409F4B7C0C8F4C932F0
:1022B00099F3C83341F70E941F0D8091A70188232D
:1022C00009F4C4C01F928F9383E594E09F938F938A
:1022D0000E9483070F900F900F900F9081E092CF94
:1022E000C13509F494C0C23509F48BC0CE3459F617
:1022F0006AE08EC088E694E00E94EA0681E080935E
:10230000A80180CF82E494E00E94EA0680E394E092
:102310000E94EA06809107011F928F938DE294E05C
:102320009F938F930E9483078BE294E00E94EA06BA
:1023300089E194E00E94EA06809106011F928F9342
:1023400086E194E09F938F930E94830784E194E059
:102350000E94EA0685E094E00E94EA068091050169
:102360001F928F9382E094E09F938F930E94830744
:1023700080E094E00E94EA068FEE93E00E94EA0675
:10238000809104011F928F938CEE93E09F938F9323
:102390000E9483078AEE93E00E94EA0685ED93E0AF
:1023A0000E94EA06809101011F928F9382ED93E0D3
:1023B0009F938F930E94830780ED93E00E94EA062B
:1023C00089EB93E00E94EA06809100011F928F93AF
:1023D00086EB93E09F938F930E94830784EB93E0B7
:1023E0000E94EA068DB79EB748960FB6F8949EBF36
:1023F0000FBE8DBF62CF8C2F0E94DB108093A70190
:102400005CCF61E08091A7010E94360D56CF61E05C
:102410008091A7010E94DA0D50CF6AE0F3CF8EE1E0
:102420008093070182E3809306018AE0809305018F
:1024300084E18093040188E08093010188E2809325
:1024400000018BE594E00E94EA0637CF80E594E036
:102450001CCF8091AF0180FF12C06091050185E023
:10246000689FB001112475956795759567956038DB
:102470007105A8F561157105A1F1862F089581FFF9
:1024800009C06091050185E0689FB0011124759530
:102490006795EDCF6091050182FD0AC08091AE0184
:1024A0008823D1F09091040160910501891728F0EB
:1024B00085E0689FB0011124DACF869FB001112416
:1024C00085E0869F9001879F300D1124692F70E071
:1024D000C9010E94292CCBCF65E070E0CECF8FE7F9
:1024E000089581E008958091AF0180FF0CC0609154
:1024F000010170E075956795759567956115710592
:1025000049F1862F089581FF06C06091010170E0B6
:1025100075956795F3CF6091010182FD0BC0909195
:10252000AD019923A1F060910001809101019617FE
:1025300038F0682F70E06038710500F38FE7089578
:10254000899FC001112470E00E94292CF4CF61E022
:1025500070E0D7CF81E008958D3E31F40E942912BA
:1025600081958093B30108958E3E19F40E9429123B
:10257000F8CF8F3E31F40E94291281958093B201E9
:102580000895803F19F40E942912F8CF893F29F459
:102590000E9473128093B40108958A3F21F40E942F
:1025A00073128195F7CF8B3F31F40E94731281959E
:1025B0008093B50108958C3F19F40E947312F8CFEF
:1025C0009FE0980F983070F4815F990B21E030E024
:1025D00001C0220F8A95EAF78091B101822B809386
:1025E000B10108958D3F31F48091AF0181608093F6
:1025F000AF0108958E3F21F48091AF018260F7CF43
:102600008F3FB9F78091AF018460F1CF4091B20163
:102610008D3E59F48091B30187FF0DC01092B30134
:1026200041110BC01092AE0108C08E3E81F4809122
:10263000B30118169CF3442381F08091B40190916A
:10264000B501892B09F05AC01092AD0108958F3E53
:1026500049F447FFF0CF1092B2018091B30181118C
:10266000ECCFE0CF803F19F41416ACF3E4CF909197
:10267000B401893F29F41916F4F61092B401DBCFA6
:102680008A3F19F497FFD7CFF8CF9091B5018B3FD0
:1026900029F497FFD0CF1092B501CDCF8C3F19F41C
:1026A0001916CCF3C8CF9FE0980F983090F4815F53
:1026B000990B21E030E0B90102C0660F771F8A95BF
:1026C000E2F7CB0180959091B10189238093B1010C
:1026D000B2CF8D3F31F48091AF018E7F8093AF01F7
:1026E000AACF8E3F21F48091AF018D7FF7CF8F3F2E
:1026F00009F0A1CF8091AF018B7FF0CF0895809139
:10270000500283FF7EC085E09BE00E94EA06809134
:10271000B1011F928F9380E09BE09F938F930E9463
:1027200083078EEF9AE00E94EA068091B201282F7B
:10273000082E000C330B3F938F938BEF9AE09F93FF
:102740008F930E94830789EF9AE00E94EA068091A6
:10275000B301282F082E000C330B3F938F9386EF85
:102760009AE09F938F930E94830784EF9AE00E94E0
:10277000EA068091B401282F082E000C330B3F93FA
:102780008F9381EF9AE09F938F930E9483078FEE40
:102790009AE00E94EA068091B501282F082E000CCD
:1027A000330B3F938F938CEE9AE09F938F930E940D
:1027B000830789EE9AE00E94EA068091AE011F929B
:1027C0008F9386EE9AE09F938F930E94830784EE07
:1027D0009AE00E94EA068091AF011F928F9381EEEA
:1027E0009AE09F938F930E9483078EED9AE00E9458
:1027F000EA068DB79EB74C960FB6F8949EBF0FBEF3
:102800008DBF0E9436249C019091B2018091B3014A
:10281000982B21F03093AC012093AB019091B4013F
:102820008091B501982B21F03093AA012093A90142
:1028300080EB91E00C949E17EF92FF920F931F9301
:10284000CF93DF9300D000D000D0CDB7DEB786E0C5
:10285000E0EBF1E0DE01119601900D928A95E1F72F
:10286000E090B201F090B3010091B4011091B50174
:102870001092B2011092B3011092B4011092B501FE
:102880008E2D8F2991F08091AB019091AC010E9427
:102890004E24AC019091AE01992309F43FC0809180
:1028A00006018417150608F447C0802F812B91F08C
:1028B0008091A9019091AA010E944E24AC019091AF
:1028C000AD01992309F477C08091020184171506A0
:1028D00008F47FC08091B2019091B301892B90914F
:1028E000B401892B9091B501892B11F00E947F13BF
:1028F00086E0FE013196A0EBB1E001900D928A9541
:10290000E1F726960FB6F894DEBF0FBECDBFDF917C
:10291000CF911F910F91FF90EF90089520910701A3
:102920008AE0289F900111242417350708F0BDCFB5
:102930009F5F9093AE0102C09F3FD1F7EE2059F008
:102940000E9429129FEF1E140CF491E0899F802DA4
:1029500011248093B201FF2059F00E9429129FEFA9
:102960001F140CF491E0899F802D11248093B301F2
:102970003091B201332309F498CF2091B30122237F
:1029800009F493CF45EB3403C0011124992359F086
:102990009093B20145EB240390011124332339F0C5
:1029A0003093B30182CF81E08093B201F3CF81E015
:1029B0008093B3017ACF209103018AE0289F900190
:1029C00011242417350708F085CF9F5F9093AD0140
:1029D00002C09F3FD1F7002359F00E9473129FEF6E
:1029E00010160CF491E0899F802D11248093B4017E
:1029F000112359F00E9473129FEF11160CF491E00D
:102A0000899F802D11248093B5013091B401332327
:102A100009F460CF2091B501222309F45BCF45EB87
:102A20003403C0011124992359F09093B40145EB6C
:102A3000240390011124332339F03093B5014ACF98
:102A400081E08093B401F3CF81E08093B50142CF60
:102A500086E0E0EBF1E0DF011D928A95E9F7109244
:102A6000AE011092AD011092AF0108950F931F9324
:102A7000CF93DF93C42FD22FFC0182818823C9F02A
:102A80004093B8010E9436249093B7018093B60119
:102A900080E28C0F883008F050C0C77081E001C020
:102AA000880FCA95EAF7DF91CF911F910F910C948F
:102AB000C5191091B801141335C08091B6019091D9
:102AC000B7010E944E24883C910560F5C0E2CD0F0D
:102AD0001D17B9F080E2810F883040F4177081E053
:102AE00001C0880F1A95EAF70E94CC19C83048F443
:102AF00081E09D2F977001C0880F9A95EAF70E9498
:102B0000C519802F0E94BD19C830B8F4D77081E074
:102B100001C0880FDA95EAF7DF91CF911F910F91ED
:102B20000C94CC1980E28C0F883038F4C77081E0A7
:102B300001C0880FCA95EAF7EFCFDF91CF911F91BF
:102B40000F9108950F939C01CB01243F4CE534076E
:102B500059F1A8F4293DFCE53F0701F12A3D4CE578
:102B60003407D1F1283D3C4591F406E221EE41EED7
:102B700068ED7CE50E94361580E00F910895263FB0
:102B8000FCE53F07E9F0B0F0273F3C45F9F0FC01D8
:102B90008281882339F11092B801EFCF07E225EE48
:102BA00045EE69ED7CE5E6CF06E221EE40EE64EF0E
:102BB0007CE5E0CF07E225EE44EE65EF7CE5DACF79
:102BC00006E221EE42EE66EF7CE5D4CF07E225EE89
:102BD00046EE67EF7CE5CECF08E221E045EE6AEDF8
:102BE0007CE5C8CF81E0C9CFCF93DF93EC01FB0137
:102BF0008281882309F419C1C230FCE5DF07C0F1E6
:102C0000C6319CE5D90730F09E012B5F3C45293049
:102C1000310570F50E94C7229093600280935F0295
:102C2000C031ECE5DE0709F4CFC008F05BC0C83066
:102C30008CE5D80709F4B6C088F5C430ECE5DE07AA
:102C400009F4A8C0C0F4C2308CE5D80709F49CC0D0
:102C500080915F028260C330DC4509F498C08091A6
:102C60005F02909160020E94D5220E943E1C80E08B
:102C7000DF91CF91089580915F028061C630ECE5CD
:102C8000DE0709F484C080915F028860C730DC45AC
:102C900008F47DC080915F02806279C0CC308CE501
:102CA000D80709F489C070F480915F028C60CA3043
:102CB000ECE5DE0709F46BC008F478C080915F0290
:102CC0008E7F65C0CE308CE5D80709F479C080913D
:102CD0005F028B7FCF30DC4508F459C080915F02E2
:102CE0008F7E55C0CC3FECE5DE0709F457C030F5C8
:102CF000C3318CE5D80709F46FC078F4C131ECE535
:102D0000DE0709F465C0C231DC4509F0A8CF0E9496
:102D10003E1C80915F028F773AC0C5318CE5D807A1
:102D200009F462C008F476C0809160028160CB3FF4
:102D3000DC4509F094CF8093600291CFC115FDE589
:102D4000DF0709F44DC088F4809160028D7FCE3F8B
:102D50009CE5D90781F3809160028E7FCF3FDC45EF
:102D600050F3809160028360E6CFC230FDE5DF075B
:102D700009F459C008F444C080E0C330DD4509F0CF
:102D80006ECF0E945B236BCF80915F028160809346
:102D90005F0265CF80915F028460F9CF809160020D
:102DA0008260C9CF80915F028064F1CF0E943E1C97
:102DB00080915F028068EBCF80915F028D7FE7CFCB
:102DC00080915F02877FE3CF80915F028F7DDFCFAD
:102DD00080915F028F7BDBCF80915F02837FD7CFB3
:102DE000809160028C7FA7CF80915F0282FB992740
:102DF00090F921E0922790FB82F990FB83F9C7CFED
:102E000080916002982F909591708E7F892B90FB16
:102E100081F991CF0E943E1C90915F02892F97FB10
:102E200087F98058B4CF81E0ACCF81E021CFCF9338
:102E3000DF93EB0186319C4511F50E94F1219A81C7
:102E4000992399F08A7A91E009F490E09093B9017E
:102E5000811109C089E20E9498210E94412280E0EC
:102E6000DF91CF91089585E3F6CF8091B90181116B
:102E700004C089E20E949F21F0CF85E3FBCF81E06F
:102E8000EFCF9093BF018093BE010895E091BE0102
:102E9000F091BF01309721F00190F081E02D09946D
:102EA00080E00895EF92FF920F931F93CF93DF93EB
:102EB0008C01E091BE01F091BF013097C1F1028019
:102EC000F381E02D09958091500282FF30C080FF90
:102ED00004C080E39BE00E94EA06D0E0C0E08AE202
:102EE000E82E8BE0F82E8091500280FF0EC0F80192
:102EF000EC0FFD1F80811F928F93FF92EF920E9433
:102F000083070F900F900F900F902196C830D10536
:102F100051F78091500280FF0AC088E29BE0DF9168
:102F2000CF911F910F91FF90EF900C94EA06DF91E3
:102F3000CF911F910F91FF90EF900895E091BE0106
:102F4000F091BF01309739F022E0DC012C9304802E
:102F5000F581E02D099408952091BC013091BD01C7
:102F60002817390771F09093BD018093BC01E0915F
:102F7000BE01F091BF01309721F00680F781E02D6E
:102F8000099408952091BA013091BB01281739079F
:102F900071F09093BB018093BA01E091BE01F09172
:102FA000BF01309721F00084F185E02D0994089548
:102FB0000E9442246093D1017093D2018093D30187
:102FC0009093D4016093CD017093CE018093CF0193
:102FD0009093D001089585B7806885BF85B78068D4
:102FE00085BF0895089508950C94F21708950C94E0
:102FF000F6170E94EB1782E696E20E94A5240E9433
:10300000F3170C94F41781E008950C9403180895B5
:1030100008950E9407180C9408180E942D240E94FD
:10302000300C0C94F717CF93C82F8091500282FF79
:103030001EC080FF1CC089E49BE00E94EA068091CC
:10304000500280FF14C01F92CF9384E49BE09F93B3
:103050008F930E948307809150020F900F900F90E2
:103060000F9080FF04C082E49BE00E94EA068C2F50
:10307000CF910C9465098F929F92AF92BF92CF929D
:10308000DF92EF92FF920F931F93CF93DF93CDB711
:10309000DEB72A970FB6F894DEBF0FBECDBF0E94F1
:1030A000650C81110E94D81751EC852E51E0952EA8
:1030B00010E000E0A02E802F0E94C10B6C01F401F3
:1030C000E190F1904F01E816F90609F45CC0809197
:1030D000500281FD0E94CA0BC7018C259D25B12C91
:1030E000EE24E394F12C9C012E213F21232B09F4A3
:1030F00044C00E9405188823A9F0BE82AF82CE206A
:10310000DF2081E0CD2809F480E088870E94362402
:103110008160782F9A8789874E815F8168858A854B
:103120000E94ED18000F111FF801EF53FE4F808130
:103130009181E826F926F182E0820E941C140E9407
:1031400046179091C0018917A9F10E9446178093F4
:10315000C0012A960FB6F894DEBF0FBECDBFDF9137
:10316000CF911F910F91FF90EF90DF90CF90BF9084
:10317000AF909F908F900C941318B394EE0CFF1C9B
:10318000FCE0BF12B0CF0F5F1F4F0630110509F0F2
:1031900091CF8FEF89838A831B820E9436248160BE
:1031A000782F9D838C8349815A816B818D810E9408
:1031B000ED18C3CF2A960FB6F894DEBF0FBECDBF71
:1031C000DF91CF911F910F91FF90EF90DF90CF9003
:1031D000BF90AF909F908F900895DF92EF92FF92F3
:1031E0000F931F93CF93DF93CDB7DEB72B970FB617
:1031F000F894DEBF0FBECDBF7A878B87F42E052FE4
:10320000162FE72ED82E61110E9411221E821D82D8
:103210007E2DEC82DD824F2D502F612F8D2D9E81D2
:103220002B960FB6F894DEBF0FBECDBFDF91CF91C6
:103230001F910F91FF90EF90DF900C94B41EFC0152
:10324000808191810C946A21CF93C82F882309F43F
:103250004CC08CEF8C0F813AC8F48C2F0E94E61082
:10326000811143C06C2F80910801909109010E9447
:103270007223882329F08C2F0E949F210E944122D3
:103280008C2F0E949821CF910C94412280E28C0FC8
:10329000883048F4C77081E001C0880FCA95EAF70A
:1032A0000E94F421F0CFEBE5EC0FE33040F4F0E0C6
:1032B000E057FE4F808190E0CF910C94AC17E8E589
:1032C000EC0FE73150F4F0E0EE0FFF1FEE59FE4F28
:1032D00080819181CF910C94C217CD3E30F08C2F1C
:1032E0000E94AC12CF910C947F13CF910895882344
:1032F00061F19CEF980F913A20F40E949F210C9469
:10330000412290E2980F983050F4877091E001C00C
:10331000990F8A95EAF7892F0E94FA21F0CF9BE551
:10332000980F933020F490E080E00C94AC1798E56F
:10333000980F973120F490E080E00C94C2178D3EF6
:1033400020F00E9406130C947F1308951F93CF93CF
:10335000DF93182FEB010E942419209731F4812F5D
:10336000DF91CF911F910C9477198FE99FE001971E
:10337000F1F700C000002197F0CF70E060E08933E2
:1033800011F460E570E00C94A619882321F00E94E6
:10339000F4210C9441220895882321F00E94FA21FF
:1033A0000C9441220895BF92CF92DF92EF92FF9248
:1033B0000F931F93CF93DF936C01D62FC72FFC0180
:1033C0001281058102950F700E94B621E82E882394
:1033D000A1F0E12E112389F08C2F807F803429F019
:1033E00080E28D0FE12C883040F082E00E94922232
:1033F0000E94B62191E0E82EE926BC2EB2949FE00F
:10340000B922EB2DF0E0E256F34D0C943D2C0C2F3D
:103410000F70C07F11F00295007F1123A9F00023E7
:1034200059F080E28D0F883010F0D11109C0802F43
:103430000E94F4210E9441228D2F0E94241914C061
:10344000802F0E940422F6CF8D2F0E94771900232F
:1034500059F080E28D0F883010F0D1112CC0802FF0
:103460000E94FA210E9441222B2D2850330B243038
:10347000310520F40E9446170E946509EE2009F4E8
:103480009EC10E94B22180FD9AC1F60112820E9463
:10349000AC210E943820C6010E94001C0E94AC2171
:1034A000DF91CF911F910F91FF90EF90DF90CF9020
:1034B000BF900C945920802F0E940A22D3CFFC2F5A
:1034C000FF70FF2EC07FC03219F0F29480EFF82217
:1034D000DD2369F0D13049F1112391F1002351F13D
:1034E000F601858180FFA8CF8F70858323C01123CB
:1034F00081F0011106C00E9424228F290E94C51963
:10350000B3CF0130C1F70E9424228F290E942A22C2
:10351000ABCF011106C00E9437228F2D0E94CC191B
:10352000A3CF013009F4A0CFF6CF112329F0063044
:1035300008F09ACF8F2DE2CF053008F095CFEDCF70
:10354000002359F3D93349F4FFEF27EE33E0F1506C
:1035500020403040E1F700C000008D2F0E94771915
:1035600083CF8C2F86958695837069F0813009F022
:103570007BCF8D2F9C2F9370111102C090E080E0C3
:103580000E94C21771CF8D2F9C2F9370111102C012
:1035900090E080E00E94AC1767CF8D2F112329F0B7
:1035A0000E94AC120E947F135FCF0E940613FACFD5
:1035B0008C2F837009F041C0111156CF4D2F4295C9
:1035C00046954770440F440F0D2F0F7010E030E008
:1035D00020E0042E04C0000F111F221F331F0A9485
:1035E000D2F760E070E0CB01D4FF0FC06FE070E075
:1035F00080E090E004C0660F771F881F991F4A95EE
:10360000D2F76095709580959095C695C695C370D4
:10361000602B712B822B932BC23049F058F4C130B0
:1036200019F00E94EA1F20CF0E94D81F1DCF0E94D0
:10363000FC1F1ACF0E94D61F17CF8695112311F0B9
:103640008C2F8170882309F40FCF4D2F429546951A
:103650004770440F440F0D2F0F7010E030E020E052
:10366000042E04C0000F111F221F331F0A94D2F72B
:1036700060E070E0CB01D4FF0FC06FE070E080E04D
:1036800090E004C0660F771F881F991F4A95D2F7F4
:103690006095709580959095C695C695C370602B82
:1036A000712B822B932BC23049F058F4C13019F0A2
:1036B0000E94AF20D9CE0E949D20D6CE0E94C1206C
:1036C000D3CE0E941220D0CECF70112329F08C2FA0
:1036D0000E9438208D2F12CF8D2F0E94CC198C2F55
:1036E0000E945920C1CED23F89F160F4D03FC9F089
:1036F000D13F29F1112309F442C001119DCE8C2F35
:103700008F7121C0D33F39F1D43FA1F7112369F163
:10371000CF718C2F0E94382063E08C2F0E9477227B
:10372000A3CE112341F0053008F09ECE8C2F8F716F
:103730000E947C2099CE063008F096CEF7CF8C2FD1
:103740008F71112369F20E9438208ECE8C2F8F71D9
:103750001123C9F3C5CF112329F08C2F8F710E943B
:10376000232082CE0E941E207FCE81E00E949222E2
:10377000023008F479CE82E00E94922275CE0023B6
:1037800059F0D93309F0E9CE8FEF97EEE3E081509D
:103790009040E040E1F7DFCE8C2F8F71A1CF4C2F0E
:1037A0004F706D2FC6010E946D090E944E1F5CCEA6
:1037B0004C2F4F706D2FC6010E94700955CEDF91BE
:1037C000CF911F910F91FF90EF90DF90CF90BF901E
:1037D00008950F931F93CF93DF93EC016881798154
:1037E0008A810E9474218C010E94D3200E94D51FDF
:1037F000B801CE01DF91CF911F910F910C94D31995
:10380000CF93DF93EC018B819C81892B29F08881F8
:10381000998189238F3F59F4DF91CF910895CE018B
:103820000E94E91BCE01DF91CF910C94DE07CE01FF
:103830000E94FF078111F3CF0E94B621882361F314
:103840008A81882349F382E0DF91CF910C94922200
:1038500090E080E00E94AC1790E080E00E94C217E8
:103860000E9411220E9421220E9441220E942815BA
:103870000C947F130E94A6210C94281C0E94012204
:103880000C943A1CE92FE295EF70E250EE3070F4A0
:10389000F0E0E255F34D0C943D2C803F19F020F4FC
:1038A000883E20F481E00895843FE1F380E00895AC
:1038B000883EC0F3813FD1F7F5CF93FB882780F98D
:1038C00008950E946A210C94421CCF93DF9300D08C
:1038D00000D00F92CDB7DEB70F900F900F900F90E2
:1038E0000F90DF91CF910895CF93DF9300D000D058
:1038F00000D0CDB7DEB726960FB6F894DEBF0FBE68
:10390000CDBFDF91CF9108951F93CF93DF93C091E7
:10391000D60116E08091D7018C1304C0DF91CF91BE
:103920001F910895D0E01C9FF0011D9FF00D112400
:10393000E852FE4F4081518162817381848195817B
:103940000E94741C2196C770E5CF409108025091E7
:10395000090260910A0270910B0280910C02909111
:103960000D020C94741C1F93CF93DF9380910D0272
:10397000807FA9F480910A02882389F08091D60182
:10398000C091D7016091080270910902A0910B02C9
:10399000B0910C02D62FD72316E0C81304C0DF91D4
:1039A000CF911F91089590E0109711F0DF3F19F427
:1039B00001968770F2CF189F9001199F300D112446
:1039C000F901E852FE4F41814713F2CF408146137F
:1039D000EFCF42814111ECCF438154814A1B5B0BF5
:1039E000483C510528F780910D028F7080618093CB
:1039F0000D02F901E352FE4F80818F708061808358
:103A000088E092E00E94001CDF91CF911F910C94FE
:103A1000841CAF92BF92CF92DF92EF92FF920F93EE
:103A20001F93CF93DF93CDB7DEB761970FB6F894AE
:103A3000DEBF0FBECDBF8C0185E0F801DE011D9613
:103A400001900D928A95E1F7F80140815181E28061
:103A500088E0C82E82E0D82E60910B0270910C0293
:103A60006115710509F461C1909108022091090264
:103A7000892F82238F3F09F458C1A380B480F0902E
:103A80000A02F501E61BF70BFF2009F4FCC0809148
:103A90000D02382F307FE83CF10508F0B2C031113B
:103AA00079C0FE2C251323C0941321C0E1101FC040
:103AB0008F70806180930D020E94A51CC6010E9438
:103AC000001C80910D02F80185838F2D61960FB641
:103AD000F894DEBF0FBECDBFDF91CF911F910F9144
:103AE000FF90EF90DF90CF90BF90AF900895AB28FC
:103AF00029F0842F85238F3F09F033C180E0F82F10
:103B0000F170DF2E80FF3CC08091D6012091D7015B
:103B100036E0821315C04D875E878D859E850E9495
:103B20006A21292F22952F702230F0F0243018F5C9
:103B30009F70F1F0F8019581907FD1F4D12C1EC0D7
:103B400090E0389FF001399FF00D1124E852FE4FAC
:103B50006181651306C06081641303C062816E11C8
:103B60000FC001968770D5CF9F7011F0882331F375
:103B7000805E883018F3C8010E94001CFD2CA5CF80
:103B8000EE2009F4A2CF80910D02816080930D0296
:103B9000F12C9BCF251306C0941304C0F801EE202E
:103BA00009F48DC04D875E878D859E850E94611CBE
:103BB000882319F1EE2009F180910D02803270F016
:103BC000209108023091090238872F831986BB861D
:103BD000AA868C87CE0107960E94001C86E0F80119
:103BE000A8E0B2E001900D928A95E1F70E94B31C23
:103BF0000E94A51CFF24F39468CFC8010E94001CFA
:103C0000F9CF311113C07A2DB98AA88A6E2D89890E
:103C10000E94651C88E092E00E94001C86E0F6018C
:103C200011928A95E9F70E94A51CB2CF25130FC007
:103C300094130DC0E1100BC0F8018583C8010E94E8
:103C4000001C86E0F60111928A95E9F73ECF4D8778
:103C50005E878D859E850E94611C882371F2EE200F
:103C600061F280910D02803208F4B8CF20910802F1
:103C7000309109023A8329831B82BD82AC828E83F4
:103C8000CE010196A9CFE83CF10508F041C0FE2C19
:103C9000EE2009F4B2CF25132AC0941328C08091D6
:103CA0000D0280FD1BC0982F907FC1F0F801858325
:103CB000903F31F0982F907F905F8F70892B858394
:103CC000C8010E94001C86E0F801A8E0B2E0019063
:103CD0000D928A95E1F70E94A51CF7CE86E0F801C7
:103CE000A8E0B2E001900D928A95E1F7EECE4D8703
:103CF0005E878D859E850E94611C81116FCF8091AA
:103D00000D02816080930D02C8010E94001CDDCE6F
:103D10007A2DB98AA88A6E2D89890E94651C86E051
:103D2000F60111928A95E9F7D6CFEE2009F465CF16
:103D30004D875E878D859E850E94611CF82E8823A5
:103D400009F45BCF86E0F801A8E0B2E001900D92A3
:103D50008A95E1F788E092E00E941F190E94B31C47
:103D6000BACF81E08E25CBCE1F93CF93DF93CDB713
:103D7000DEB72C970FB6F894DEBF0FBECDBF4F83D2
:103D8000588769877A878B879C87CE0107960E9420
:103D9000091D882369F08A859B85892B39F04F811D
:103DA0005885842F85238F3F09F071C016E05FC0CE
:103DB00086E0FE013796DE01119601900D928A95FC
:103DC000E1F78A859B85892B89F38F8198858923E3
:103DD0008F3F61F32091D70130E0C90101968770D0
:103DE00099274091D6014817190671F40E943E1C8C
:103DF0001092D7011092D60186E0E8E0F2E0DF01F0
:103E00001D928A95E9F7D2CF96E0929FD001939FB9
:103E1000B00D1124A852BE4FFE01319601900D92B3
:103E20009A95E1F78093D7010E94841CBFCF819FB0
:103E3000C001112488529E4F0E94091D8823E9F079
:103E4000E091D6011E9FF0011124E852FE4F4081FF
:103E5000518162817381848195810E94741C80915B
:103E6000D60190E00196877099278093D6018091C2
:103E7000D6019091D7018913DACF2C960FB6F8941A
:103E8000DEBF0FBECDBFDF91CF911F910895698531
:103E90007A858B859C850E94741C88CFEF92FF9257
:103EA0000F931F93CF93DF938C01892B81F0F12C1B
:103EB000EE24E394E8012196F8018491843770F4AC
:103EC000843008F05FC08130B1F08230A1F1DF9121
:103ED000CF911F910F91FF90EF900895853709F4CE
:103EE0004CC008F43DC09CE7980F903780F78F775F
:103EF0000E94771949C00E5F1F4FFE01849190E226
:103F0000980F983060F48770FE2D01C0FF0F8A95DE
:103F1000EAF78F2F0E9414220E94412202C00E94C1
:103F200024198F2D815030F2EFE9FFE03197F1F73E
:103F300000C00000F7CF0E5F1F4FFE01849190E29A
:103F4000980F983050F48770FE2D01C0FF0F8A95AE
:103F5000EAF78F2F0E941A22DFCF0E947719E1CF54
:103F60000E5F1F4FFE01C491C150D8F28FE99FE050
:103F70000197F1F700C00000F7CF0E5F1F4FFE0161
:103F8000F490CFCF0E9424198E01CBCF08950C94CA
:103F9000C61F0E94C71F60933F0270934002809328
:103FA0004102909342020C94281C08950C94C91F5E
:103FB0000F931F9300913F02109140022091410204
:103FC00030914202602B712B822B932B1F910F910A
:103FD0000C94C91F0F931F9300913F021091400250
:103FE0002091410230914202602371238223932366
:103FF0001F910F910C94C91F0F931F9300913F02C3
:1040000010914002209141023091420260277127B5
:10401000822793271F910F910C94C91F0C94C61FE0
:104020000C940E200E94102060933B0270933C027F
:1040300080933D0290933E020C94281C60E070E057
:10404000CB010C9412200F931F9341E050E060E0ED
:1040500070E08A019B0104C0000F111F221F331F53
:104060008A95D2F7C901B8011F910F910C941220C3
:104070000F931F9341E050E060E070E004C0440FF4
:10408000551F661F771F8A95D2F780913B0290914A
:104090003C02A0913D02B0913E028A019B01082B97
:1040A000192B2A2B3B2BC901B8011F910F910C949E
:1040B00012200F931F9341E050E060E070E004C0D5
:1040C000440F551F661F771F8A95D2F7CB01BA019F
:1040D000609570958095909500913B0210913C02FF
:1040E00020913D0230913E0260237123822393236D
:1040F0001F910F910C9412200F931F9341E050E0F9
:1041000060E070E004C0440F551F661F771F8A955A
:10411000D2F780913B0290913C02A0913D02B09178
:104120003E028A019B01082719272A273B27C9013C
:10413000B8011F910F910C9412200F931F930091BF
:104140003B0210913C0220913D0230913E02602BD7
:10415000712B822B932B1F910F910C9412200F9394
:104160001F9300913B0210913C0220913D0230913F
:104170003E0260237123822393231F910F910C949D
:1041800012200F931F9300913B0210913C0220914B
:104190003D0230913E0260277127822793271F91AD
:1041A0000F910C94122008952CE0929F800D112401
:1041B000982F977041E001C0440F9A95EAF78695D1
:1041C0008695869595E0899FF0011124E25FFD4F69
:1041D00090E080E070E05191DF0111979B01082E83
:1041E00002C0369527950A94E2F72170219525277C
:1041F000242325272C9301968530910561F7089596
:104200002CE0929F800D1124982F977086958695AB
:10421000869525E0829FF0011124E25FFD4F50E07A
:1042200040E080E0219130E0092E02C036952795CC
:104230000A94E2F721703327042E01C0220F0A945A
:10424000EAF7822B4F5F5F4F4530510559F70895CC
:10425000BF92CF92DF92EF92FF920F931F93CF9373
:10426000DF938C01C0903B02D0903C02E0903D0275
:10427000F0903E0280913F0290914002A091410255
:10428000B0914202C82AD92AEA2AFB2ACFE1D0E01B
:10429000BC2ED701C6010C2E04C0B695A7959795E4
:1042A00087950A94D2F780FD0EC0219788F7B12C2C
:1042B0008B2DDF91CF911F910F91FF90EF90DF90A9
:1042C000CF90BF900895B8018C2F0E948D0901975F
:1042D00061F3EECFCF93DF93EC010E942821BE0162
:1042E000DF91CF910C948D091F93CF93DF93EB0156
:1042F0009091D501992331F0CB01DF91CF911F919E
:104300000C946A21882379F0CB010E942821182F70
:10431000682FCE010E94D420BE01812FDF91CF9162
:104320001F910C948D09CB010E940021182FF4CF0E
:10433000682F80910801909109010C94A823682F9F
:1043400080910801909109010C94AA2380910801A1
:10435000909109010C94AC23809143028595859539
:104360008595089580914302877008959091430246
:10437000977081E009F480E00895CF93C82F809171
:10438000600282FB992790F99C17D1F0C0FB82F95B
:104390008093600280915F02909160020E94D5221A
:1043A0008091500280FF0CC01F92CF938CE59BE060
:1043B0009F938F930E9483070F900F900F900F9001
:1043C000CF9108958091600282FB882780F991E067
:1043D00089270C94BD2181E00C94BD2180E00C94D0
:1043E000BD2180914F02089590914F02892B8093B7
:1043F0004F020895809590914F02982390934F0219
:10440000089510924F02089590914E02892B809347
:104410004E020895809590914E02982390934E02FB
:10442000089510924E02089590914D02892B809329
:104430004D020895809590914D02982390934D02DE
:10444000089510924D0208958091440208950895B0
:104450000C9427229091600292FD08C09091440232
:10446000981721F0809344020C942822089580919B
:104470004402882329F01092440280E00C94282200
:104480000895E0910801F091090180914F02808325
:10449000E0910801F0910901808190914E02892BF1
:1044A0008083E0910801F0910901808190914D0293
:1044B000892B808390914402992381F0E091080137
:1044C000F09109018081892B80838091080190916E
:1044D00009010E94602381110E9437228091080106
:1044E000909109010C94521708950C9474229091A4
:1044F000600292FD10C098E0899F90011124622B08
:10450000609343020E9438208091430285958595EF
:1045100085950C9475220C9438201092430280E00B
:104520000C947522909143028095892380934302D5
:10453000282F277039F4282F082E000C330B9217E0
:10454000130621F49091600292FF07C0859585952E
:1045500085950E9459200C948D2208956FEF7FEF6E
:1045600090E080E00C94862C90E080E00E94622C29
:1045700021E08A3E9E4F09F020E0822F089582E0DC
:1045800090E00C945A2C83E090E00C945A2CCF933A
:1045900084E090E00E945A2CC82F82E290E00E94B2
:1045A0005A2C982F8C2FCF910895CF93C92F682F15
:1045B00084E090E00E94682C6C2F82E290E0CF9122
:1045C0000C94682CAB01BC018FE090E00C947A2C29
:1045D000AB01BC0183E190E00C947A2C60E070E0C8
:1045E000CB010C94E82260E070E0CB010E94E22253
:1045F0000C94EE226AEE7EEF90E080E00E94862C22
:1046000060E082E090E00E94682C60E083E090E04F
:104610000E94682C10923F021092400210924102B8
:104620001092420260E084E090E00E94682C60E01A
:1046300082E290E00E94682C60E085E090E00E94B9
:10464000682C60E086E090E00E94682C6FEF87E0C5
:1046500090E00E94682C40E050E0BA0188E090E0D1
:104660000E947A2C60E08DE090E00E94682C40E08F
:1046700050E0BA0188E190E00E947A2C60E087E186
:1046800090E00E94682C40E050E0BA018CE190E09C
:104690000E947A2C70E060E080E290E00E94862C1C
:1046A00040E050E0BA0188E190E00E947A2C0C943E
:1046B000F3220C94FA22682F8EE090E00C94682C80
:1046C0009C012E5F3F4FAC01485F5F4F80E0241795
:1046D000350709F40895F90191919F019923B9F3E0
:1046E0008F5FF5CF662349F0FC0132960896219141
:1046F000261729F0E817F907D1F780E0089581E03F
:1047000008959C01FC0132969FEF80E0419146178D
:1047100051F09F3F19F4411101C0982F8F5F8630EF
:10472000A9F79F3F09F40895290F311D97FD3A9588
:10473000F90162830895FC013296089621912613AF
:1047400003C0DF0111971C92E817F907B9F7089524
:104750000C9481230C949B23029626E0FC01119279
:104760002A95E9F70895089508950C94B42380914B
:104770008102843049F10E94B52380E00E946509DE
:104780001092510288E190E020E40FB6F894A895C9
:10479000809360000FBE2093600083B7817F8460A8
:1047A00083BF83B7816083BF7894889583B78E7FFA
:1047B00083BF0FB6F894A8958091600088618093BC
:1047C0006000109260000FBE08950895CF930E947C
:1047D000B3230E94650C0E94E523C0E08C2F0E9449
:1047E000C10B892B31F4CF5FC630C1F780E0CF9188
:1047F000089581E0FCCF08950C94FB230E943E1C99
:104800000E9446170E9465090C94FC231F921FB654
:104810001F9211248F939F93AF93BF938091510266
:10482000811113C08091790290917A02A0917B024C
:10483000B0917C024196A11DB11D809379029093A5
:104840007A02A0937B02B0937C02BF91AF919F91BB
:104850008F911F901FBE1F90189582E084BD93E03A
:1048600095BD9AEF97BD80936E0008952FB7F89489
:104870008091790290917A02A0917B02B0917C02A2
:104880002FBF08952FB7F8946091790270917A0242
:1048900080917B0290917C022FBF08959C014FB7BD
:1048A000F8948091790290917A02A0917B02B09164
:1048B0007C024FBF821B930B089578941F921FB602
:1048C0001F9211248F939F93AF93BF93809179028E
:1048D00090917A02A0917B02B0917C020196A11D79
:1048E000B11D8093790290937A02A0937B02B093DA
:1048F0007C02BF91AF919F918F911F901FBE1F901F
:10490000189581E08093E00080E28093D8001092B7
:10491000C9008FE19EE40197F1F700C0000087E035
:1049200090EBDC0180938A0290938B02A0938C021F
:10493000B0938D0288E19CE00FB6F894A89580931F
:1049400060000FBE90936000FFCF9093A30180930F
:10495000A201089580915D020895CF93DF9300D066
:104960000F92CDB7DEB790918102943019F589830B
:104970007B836A8382E08093E9008FEF9091E80067
:10498000815095FD06C095ED9A95F1F700008111D3
:10499000F5CF8091E80085FF0DC050E040E063E076
:1049A00070E0CE0101960E9484278091E8008E7706
:1049B0008093E8000F900F900F90DF91CF910895B2
:1049C000BC0184E00C94AD24BC0183E00C94AD24C4
:1049D0009C0182E08093E9009FEF8091E800915074
:1049E00085FD06C085ED8A95F1F700009111F5CFA0
:1049F0008091E80085FF0CC050E040E066E070E088
:104A0000C9010E9484278091E8008E778093E80096
:104A10000895CF93DF93EC0181E08093E9008FEF5D
:104A20009091E800815095FD06C095ED9A95F1F7BB
:104A300000008111F5CF8091E80085FF14C050E09F
:104A400040E068E070E0CE010E9484278091E80099
:104A50008E778093E80088E0FE01A5E5B2E0019042
:104A60000D928A95E1F7DF91CF91089586E99BE059
:104A70000E94EA0680918002811109C00E941229D9
:104A80000E9474298091E20084608093E20008957E
:104A900082E99BE00E94EA061092800208958EE867
:104AA0009BE00C94EA068AE89BE00C94EA0686E810
:104AB0009BE00C94EA06209153022F5F822F62E361
:104AC0000E941D2C992319F02093530208951092EF
:104AD0005302809154028823F1F080918102843046
:104AE000C1F49091E9009F702091EC00822F8170B9
:104AF00020FD80E8892B93E09093E9009091EB00F2
:104B000090FF04C09091EE0097FD08C08F708093D5
:104B1000E9001092540208951092F1009091E8007B
:104B200095FDFACF9091E80090FFF0CF9091E800CA
:104B30009E779093E800EACF42E061EC81E00E942A
:104B40008E2842E261EC82E00E948E2842E261EC13
:104B500083E00C948E2880918302833009F45FC037
:104B600030F48130C1F1823009F49BC008958A305D
:104B700009F487C08B3009F46DC0893009F04EC04C
:104B800080918202813209F049C080918602909121
:104B90008702029708F042C08091E800877F8093E7
:104BA000E8008091E80082FF35C08091F20090918A
:104BB000F300029729F48091F1008B7F813021F47A
:104BC0008091F10080935D028091E8008B77809363
:104BD000E8000C94C22880918202813AF9F4809115
:104BE000E800877F8093E800809186029091870299
:104BF000892B61F468E085E592E070E00E94D3279C
:104C00008091E8008B778093E800089560E090E061
:104C100080E0F3CF809181028111C3CF089580910C
:104C20008202813AD9F78091860290918702892B7E
:104C3000A9F78091E800877F8093E8008091E800E1
:104C400080FFFCCF809114018093F1008091E800F7
:104C50008E77BDCF80918202813201F780918602EA
:104C600090918702892BD1F68091E800877F80930D
:104C7000E8000E94C22880918402809314010C9461
:104C80003E1C80918202813249F68091E800877F44
:104C90008093E8000E94C2288091850280935E0282
:104CA000089580918202813A09F0B8CF8091E8009E
:104CB000877F8093E8008091E80080FFFCCF80919F
:104CC0005E02C2CF9FB7F894109254029FBF90919A
:104CD0008102943009F048C02091E9002F70309192
:104CE000EC00932F917030FD90E8922B23E02093FD
:104CF000E9002091EB0020FF34C02091EE0027FF57
:104D000030C020915202222321F02091E80025FF9B
:104D100028C01092520226E03091E80035FF14C0FE
:104D20008093F1008091E80085FD27C08091E80024
:104D300080FFFCCF8091E8008E778093E8009F7021
:104D40009093E90080E0089530918102343049F475
:104D50003091EB0035FD05C0215041F481E0809396
:104D600052029F709093E9008FEF0895EFE9FFE002
:104D70003197F1F700C00000CFCF8FB7F89421E052
:104D8000209354028FBFDBCF84B7877F84BF0FB6D9
:104D9000F894A895809160008861809360001092DB
:104DA00060000FBE80E890E00FB6F8948093610039
:104DB000909361000FBE0E94F9170E9412290E9471
:104DC00074298091E20084608093E20078940E94CC
:104DD000022C0E940D188AE091E00E94411785E79D
:104DE0009BE00E94EA0680918102853051F481E7C0
:104DF0009BE00E94EA0680918102853039F00E9492
:104E0000FE230E943B180E940918EDCF0E94B72391
:104E100080917F02882379F30E94E623882359F347
:104E20000E946E270E943E1CE6CF0C941727292F64
:104E300033272330310521F168F42130310509F49D
:104E400043C02230310509F444C090E080E030E0F6
:104E500020E026C02132310551F122323105A9F777
:104E60006330710590F7FB01EE0FFF1FEA56FE4F0E
:104E7000208131816D567E4FFB01808190E010C012
:104E800099278130910581F0009729F00297E9F682
:104E9000EAE9FBE002C0E8EDFBE0849190E09F01CD
:104EA000FA01318320830895E0ECFBE0F6CF633014
:104EB000710558F6660F771FFB01E456FE4F2081FF
:104EC000318189E090E0ECCF82E190E027E33CE0A3
:104ED000E7CF8BE590E02CED3BE0E2CF84E189BDAC
:104EE00086E189BD09B400FEFDCF8091D8008F7D99
:104EF0008093D8008091E00082608093E0008091F0
:104F0000E00081FDFCCF0895AF92BF92CF92DF9277
:104F1000FF920F931F93CF93DF936C01EB018A01F4
:104F20000E94E128F82E811123C00115110539F0E6
:104F3000F80180819181C81BD90BC80ED91EB12CF4
:104F4000A12C2097A9F08091E80085FD22C08091D6
:104F5000E8008E778093E80001151105A1F0F801B3
:104F600080819181A80EB91EB182A08285E0F82EC1
:104F70008F2DDF91CF911F910F91FF90DF90CF90F8
:104F8000BF90AF9008950E94E1288823D1F2F82EB7
:104F9000EFCFF60181916F018093F1002197FFEF30
:104FA000AF1ABF0ACECFFC0180918802909189028E
:104FB00086179707A0F06115710529F49091E80014
:104FC0009E779093E80090E06115710551F491117E
:104FD00008C08091E80082FF33C080E00895BC01E2
:104FE000F2CF809181028823B9F18530B9F18091A7
:104FF000E80083FD2FC08091E80082FDEACF809118
:10500000E80080FFE1CF2091F2003091F3006115BC
:10501000710519F02830310558F091E0283031053C
:1050200009F090E02091E8002E772093E800CCCFA3
:1050300081918093F100615071092F5F3F4FE7CF5D
:1050400080918102882341F0853041F08091E80011
:1050500083FFBFCF81E0089582E0089583E0089543
:10506000FC01809188029091890286179707A0F031
:105070006115710529F48091E8008E778093E8002E
:1050800090E06115710551F4911108C08091E8001C
:1050900082FF34C080E00895BC01F2CF809181028C
:1050A0008823C1F18530C1F18091E80083FD30C0D3
:1050B0008091E80082FDEACF8091E80080FFE1CF97
:1050C0002091F2003091F3006115710519F028303C
:1050D000310558F091E02830310509F090E08091D9
:1050E000E8008E778093E800CCCF84918093F10024
:1050F0003196615071092F5F3F4FE6CF8091810259
:10510000882341F0853041F08091E80083FFBECFD5
:1051100081E0089582E0089583E00895982F973004
:1051200028F08F708093E90081E008959093E90062
:10513000242F762F50E0981731F07091EC002091D9
:10514000ED005091F00021FD02C09F5FE8CF30914B
:10515000EB003E7F3093EB003091ED003D7F3093CC
:10516000ED003091EB0031603093EB007093EC0078
:105170002093ED005093F0002091EE0027FDE5CF45
:1051800080E008958091820287FF13C08091E8003B
:1051900082FF06C08091E8008B778093E80004C00E
:1051A000809181028111F2CF08958091810288233C
:1051B000D9F38091E80080FFF8CF8091E8008E77E6
:1051C000ECCF2091E4003091E50095E6A901209113
:1051D000EC00822F817020FF06C08091E80080FFE4
:1051E00006C080E008952091E80022FD1AC0809159
:1051F0008102882389F0853089F08091EB0085FD5C
:105200000FC02091E4003091E50042175307F9F2F6
:105210009150E1F684E0089582E0089583E00895D6
:1052200081E008950E9483290E948B29E0EEF0E03E
:10523000808181608083E8EDF0E080818F778083DA
:1052400019BCA7EDB0E08C918E7F8C9380818F7E0E
:1052500080831092800208950F931F93CF93DF9362
:105260000E9483290E948B29C8EDD0E088818F7726
:10527000888388818068888388818F7D8883E7ED33
:10528000F0E080818068808319BC109281021092C6
:105290007D0210927F0210927E0200EE10E0F80173
:1052A00080818B7F808388818160888342E060E099
:1052B00080E00E948E28E1EEF0E080818E7F808386
:1052C000E2EEF0E08081816080838081886080836D
:1052D000F80180818E7F8083888180618883DF915F
:1052E000CF911F910F910895E8EDF0E080818F7EBE
:1052F0008083E7EDF0E080818160808381E08093AE
:1053000080020C942C29E8EDF0E080818C7F808372
:105310001092E20008951092DA001092E1000895D0
:105320001F920F920FB60F9211240BB60F922F936C
:105330003F934F935F936F937F938F939F93AF931D
:10534000BF93EF93FF938091E10082FF0BC08091A8
:10535000E20082FF07C08091E1008B7F8093E10033
:105360000E945B258091DA0080FF19C08091D800EF
:1053700080FF15C08091DA008E7F8093DA008091E3
:10538000D90080FF98C084E189BD86E189BD09B458
:1053900000FEFDCF81E0809381020E94362580913E
:1053A000E10080FF19C08091E20080FF15C080916C
:1053B000E2008E7F8093E2008091E2008061809322
:1053C000E2008091D80080628093D80019BC85E00B
:1053D000809381020E9453258091E10084FF2BC0BD
:1053E0008091E20084FF27C084E189BD86E189BD08
:1053F00089B5982F917080FFFBCF8091D8008F7D69
:105400008093D8008091E1008F7E8093E1008091AD
:10541000E2008F7E8093E2008091E20081608093C1
:10542000E20080917D02882309F44BC084E08093E0
:1054300081020E9457258091E10083FF29C080915D
:10544000E20083FF25C08091E100877F8093E10027
:1054500082E08093810210927D028091E1008E7F34
:105460008093E1008091E2008E7F8093E200809142
:10547000E20080618093E20042E060E080E00E9410
:105480008E288091F00088608093F0000E944F2564
:10549000FF91EF91BF91AF919F918F917F916F910C
:1054A0005F914F913F912F910F900BBE0F900FBEC8
:1054B0000F901F90189519BC109281020E944825E8
:1054C0006ECF8091E30087FD93E090938102B1CF8E
:1054D0001F920F920FB60F9211240BB60F922F93BB
:1054E0003F934F935F936F937F938F939F93AF936C
:1054F000BF93CF93DF93EF93FF93D091E900DF70D9
:105500008091EC00C82FC17080FDC0E81092E900C6
:105510008091F000877F8093F00078940E94B02AF9
:105520001092E9008091F00088608093F000CD2B0C
:10553000CF70C093E900FF91EF91DF91CF91BF91C0
:10554000AF919F918F917F916F915F914F913F911B
:105550002F910F900BBE0F900FBE0F901F901895BC
:105560001F93CF93DF93CDB7DEB7AA970FB6F8940A
:10557000DEBF0FBECDBF82E892E02091F100FC01BA
:105580002193CF01F2E08A389F07B9F70E94AB253B
:105590008091E80083FF1EC1809182029091830276
:1055A0009A3008F017C1E92FF0E0E454F34D0C9461
:1055B0003D2C803899F0823809F00CC18091860228
:1055C0008F70873008F006C18093E9008091EB006E
:1055D00085FB882780F91092E90006C080917E0241
:1055E00090917F02911182609091E800977F909353
:1055F000E8008093F1001092F1008091E8008E772E
:10560000E5C0882309F4D3C0823009F0E3C080915B
:1056100084028111D6C0809186028F702FEF280FEF
:10562000263008F0D7C08093E9002091EB0020FFDE
:10563000C8C0933031F48091EB0080628093EB001E
:10564000C0C09091EB0090619093EB0021E030E0BE
:1056500001C0220F8A95EAF72093EA001092EA002F
:105660008091EB008860EACF8111B4C01091840270
:105670001F778091E3008078812B8093E3008091F5
:10568000E800877F8093E8000E94C2288091E800AC
:1056900080FFFCCF8091E30080688093E30082E08C
:1056A000111183E08093810295C08058823008F008
:1056B00091C080918402909185028C3D23E09207F5
:1056C000A1F583E08A838AE289834FB7F894DE01EB
:1056D000139620E03EE051E2E32FF0E050935700B4
:1056E000E49120FF03C0E295EF703F5FEF708E2FD3
:1056F00090E0EA30C0F0C7968D939D932F5F2431E0
:1057000059F74FBF8091E800877F8093E8006AE2F5
:1057100070E0CE0101960E94D3278091E8008B773C
:105720008093E80057C0C096E7CF609186027091E1
:105730008702AE014F5F5F4F0E941527BC01892B86
:1057400009F448C09091E800977F9093E800898120
:105750009A810E943028E1CF8038E1F58091E800FD
:10576000877F8093E80080917D028093F10045CF90
:10577000811130C090918402923060F58091E800F0
:10578000877F8093E80090937D020E94C2288091D9
:105790007D02882311F084E005C08091E30087FD3D
:1057A000FACF81E0809381020E949C2513C08091F2
:1057B0008402813079F481E0933009F080E08093B5
:1057C0007F021092E9008091E800877F8093E800D3
:1057D0000E94C2288091E80083FF0AC08091E800FF
:1057E000877F8093E8008091EB0080628093EB00DC
:1057F000AA960FB6F894DEBF0FBECDBFDF91CF9152
:105800001F910895CF93809181028823A1F0C091C8
:10581000E900CF709091EC00892F817090FD80E8B5
:10582000C82B1092E9008091E80083FD0E94B02A05
:10583000CF70C093E900CF910895991B79E004C01F
:10584000991F961708F0961B881F7A95C9F78095BF
:10585000089597FB072E16F4009407D077FD09D022
:105860000E94462C07FC05D03EF4909581959F4FF1
:105870000895709561957F4F0895EE0FFF1F0024E6
:10588000001C0BBE0790F691E02D0994AA1BBB1BD0
:1058900051E107C0AA1FBB1FA617B70710F0A61B30
:1058A000B70B881F991F5A95A9F780959095BC0151
:1058B000CD010895F999FECF92BD81BDF89A99273F
:1058C00080B50895A8E1B0E042E050E00C948E2C41
:1058D000262FF999FECF92BD81BDF89A019700B4A9
:1058E000021639F01FBA20BD0FB6F894FA9AF99A49
:1058F0000FBE08950396272F0E94692C0E94682CE2
:10590000252F0E94692C242F0C94692C0196272F97
:105910000E94692C0C94682CDC01CB01FC01F999E4
:10592000FECF06C0F2BDE1BDF89A319600B40D92EB
:1059300041505040B8F70895F894FFCF071A071A5E
:105940005F1A5F1AB11ACD1A341A341AD81A641BA6
:10595000731B731BCF1B341A341AD81B4D1C4D1CE0
:10596000561C561C581C561C561C561C4D1C4D1CB7
:105970005D1C561C561C5D1CD92A012BEA2B012BE1
:0C598000EA2B342B552BEA2BAC2BB82B58
:10598C002808641E140A321E4502AA240925E8249C
:10599C00E424E02401E200E900EA00B500B600B717
:1059AC0000CD008301CC008A0192019401210223D5
:1059BC000224022502260227022A02B300B4006F39
:1059CC00007000818283F6F5F4F3F2F1363534334E
:1059DC0032316162636465660102030405060708DF
:1059EC000900E200E900EA00B500B600B700CD00FE
:1059FC008301CC008A01920194012102230224022A
:105A0C002502260227022A02B300B4006F007000A0
:105A1C00818283407B22E60C6B0C490CEE0B070C4D
:025A2C00200C4C
:00000001FF
